:020000040800F2
:100000000028002099130008F5110008FB110008D2
:1000100001120008071200080D120008000000007D
:1000200000000000000000000000000013120008A3
:100030001F120008000000002B12000837120008F1
:10004000E1130008E1130008E1130008E1130008C0
:10005000E1130008E1130008E1130008E1130008B0
:10006000E1130008E1130008E1130008E1130008A0
:10007000E1130008E1130008E1130008E113000890
:10008000E1130008E1130008E1130008E113000880
:10009000E1130008E1130008E1130008E113000870
:1000A000E1130008E1130008E1130008E113000860
:1000B00045120008E113000800000000E1130008E9
:1000C000E11300080000000000000000E113000838
:1000D00000000000E1130008E11300080000000028
:1000E000E1130008E1130008E1130008000000001C
:1000F0000000000000000000000000000000000000
:0C01000000000000000000005FF808F1A3
:10010C0010B5054C237833B9044B13B10448AFF345
:10011C0000800123237010BD80000020000000002F
:10012C00642B000808B5034B1BB103490348AFF31C
:10013C00008008BD0000000084000020642B000833
:10014C0080B483B000AF7860094A7B6852F82330E2
:10015C00012B06D1064A7B68002142F823100123AB
:10016C0000E0002318460C37BD4680BC704700BF2A
:10017C004C01002080B500AF9F4B1B68013B042B4A
:10018C0000F2AA8101A252F823F000BFAD010008D1
:10019C00EF010008A302000851030008390400080D
:1001AC0000F0CCFC944B02221A60022001F08AF879
:1001BC00924B1B68914A52681146184600F090FA0F
:1001CC00002200218E4800F05BFE4FF47A72002171
:1001DC008C4800F055FEFA2200218B4800F050FEAE
:1001EC0083E10020FFF7ACFF0346002B40D087488B
:1001FC0000F02AFF844800F027FF824800F024FF1B
:10020C00834800F021FF834B1B68002219467C4871
:10021C0000F036FE7F4B1B684FF47A721946794812
:10022C0000F02EFE7B4B1B68FA221946764800F034
:10023C0027FE714B1B681E336F4A1360764B1A688E
:10024C00764B1B681344764A82FB03129211DB1720
:10025C00D31A6A4A1360704B1B68714A82FB0312F3
:10026C009211DB17D31A654A536000F0A9FC3CE1EC
:10027C000220FFF765FF0346002B00F02F81634837
:10028C0000F0E2FE5F4800F0DFFE00F057FC5A4B36
:10029C000B221A6022E10020FFF752FF0346002BCD
:1002AC003DD0604800F0D0FE574800F0CDFE5548D8
:1002BC0000F0CAFE564800F0C7FE564B1B680022E1
:1002CC001946524800F0DCFD524B1B684FF47A7211
:1002DC0019464C4800F0D4FD4E4B1B68FA221946C7
:1002EC00494800F0CDFD444B1B681E33424A136055
:1002FC004A4B1B684A4A82FB03129211DB17D31A32
:10030C003E4A1360454B1B68454A82FB031292110F
:10031C00DB17D31A394A536000F052FCE5E0022097
:10032C00FFF70EFF0346002B00F0DA803D4800F08B
:10033C008BFE344800F088FE00F000FC2E4B0B22A4
:10034C001A60CDE00020FFF7FBFE0346002B40D0E7
:10035C00354800F079FE2C4800F076FE294800F074
:10036C0073FE2B4800F070FE2A4B1B6800221946C6
:10037C002C4800F085FD274B1B684FF47A72194608
:10038C00204800F07DFD234B1B68FA2219461E48BD
:10039C0000F076FD184B1B681E33174A13601E4B7A
:1003AC001B681F4A82FB03129211DB17D31A134AE4
:1003BC001360194B1A68194B1B681344184A82FBBB
:1003CC0003129211DB17D31A0C4A536000F0F8FB9E
:1003DC008BE00220FFF7B4FE0346002B00F0828076
:1003EC00114800F031FE074800F02EFE00F0A6FB8D
:1003FC00014B0B221A6075E0000000209C010020CC
:10040C005D05000821050008210C0008C505000841
:10041C00810100080C0000200400002008000020CE
:10042C00D34D6210250600088D0600080020FFF74A
:10043C0087FE0346002B3DD02C4800F005FE2C48CF
:10044C0000F002FE2B4800F0FFFD2B4800F0FCFDF5
:10045C002A4B1B6800221946294800F011FD274B36
:10046C001B684FF47A721946224800F009FD234BA1
:10047C001B68FA2219461E4800F002FD214B1B682E
:10048C001E33204A1360204B1B68204A82FB031248
:10049C009211DB17D31A1E4A13601B4B1B681B4AA5
:1004AC0082FB03129211DB17D31A194A536000F026
:1004BC0087FB1AE00220FFF743FE0346002B13D004
:1004CC000A4800F0C1FD0B4800F0BEFD00F036FB01
:1004DC000C4B0B221A6007E000BF06E000BF04E0E3
:1004EC0000BF02E000BF00E000BF80BD5D0500085A
:1004FC00210C000821050008810100080C000020D7
:10050C008D0600080000002008000020D34D62106A
:10051C009C01002080B500AF0B4B1B68013B0A4AC5
:10052C001360094B5B68013B074A5360064B1B6821
:10053C00054A52681146184600F0D2F8034B0022C7
:10054C001A6000BF80BD00BF9C0100209C000020F1
:10055C0080B500AF124B02221A60022000F0B2FEEE
:10056C00104B1A68104B1B681344104A82FB031281
:10057C009211DB17D31A0E4A13600A4B1B680B4AF5
:10058C0082FB03129211DB17D31A094A5360054BF5
:10059C001B6800221946074800F072FC00BF80BDA2
:1005AC00000000200400002008000020D34D621041
:1005BC009C010020C505000880B500AF114B03223B
:1005CC001A60032000F07EFE0F4B1B680F4A82FB63
:1005DC0003129211DB17D31A0D4A13600A4B1B68D6
:1005EC000A4A82FB03129211DB17D31A084A536092
:1005FC00054B1B6800221946064800F041FC00BF61
:10060C0080BD00BF0000002008000020D34D621008
:10061C009C0100202506000880B500AF124B042277
:10062C001A60042000F04EFE104B1B68104A82FB2F
:10063C0003129211DB17D31A0E4A13600B4B1A6874
:10064C000D4B1B6813440A4A82FB03129211DB17F1
:10065C00D31A084A5360054B1B68002219460748F9
:10066C0000F00EFC00BF80BD000000200400002044
:10067C00D34D62109C010020080000208D0600085C
:10068C0080B500AF114B05221A60052000F01AFE50
:10069C000F4B1B680F4A82FB03129211DB17D31A04
:1006AC000D4A13600A4B1B680A4A82FB0312921113
:1006BC00DB17D31A084A5360054B1B6800221946F6
:1006CC00064800F0DDFB00BF80BD00BF000000202D
:1006DC0008000020D34D62109C0100205D0500082D
:1006EC0080B483B000AF786039603968184B83FBF5
:1006FC0001239A10CB17D21A13469B0013445B00AC
:10070C00CA1A144BDA603B68114A82FB031292102E
:10071C00DB17D31A0F4A936079680D4B83FB0123C7
:10072C009A10CB17D21A13469B0013445B00CA1ABB
:10073C00084B5A607B68064A82FB03129210DB1747
:10074C00D31A044A136000BF0C37BD4680BC7047F7
:10075C0067666666A801002080B582B000AF78603D
:10076C00012202212B4801F021F901220421294800
:10077C0001F01CF901220821264801F017F9012289
:10078C001021244801F012F97B68032B3ED801A2FA
:10079C0052F823F0B1070008CB070008E507000862
:1007AC00FF070008002202211A4801F0FFF81A4A3C
:1007BC007B6852F82330184600F030F826E000220F
:1007CC000421144801F0F2F8134A7B6852F82330E4
:1007DC00184600F023F819E0002208210D4801F01A
:1007EC00E5F80D4A7B6852F82330184600F016F8ED
:1007FC000CE000221021074801F0D8F8064A7B686B
:10080C0052F82330184600F009F800BF00BF083733
:10081C00BD4680BD00080140A801002080B582B013
:10082C0000AF78607B68092B00F2808101A252F83E
:10083C0023F000BF69080008B1080008F908000897
:10084C004109000889090008D1090008190A0008A3
:10085C00610A0008A90A0008F10A00080022012117
:10086C00B54801F0A3F800220221B34801F09EF82C
:10087C0000220421B04801F099F800220821AE486A
:10088C0001F094F800221021AB4801F08FF80022FF
:10089C002021A94801F08AF801224021A64801F044
:1008AC0085F844E101220121A34801F07FF80022E0
:1008BC000221A14801F07AF8002204219E4801F09F
:1008CC0075F8012208219C4801F070F801221021D2
:1008DC00994801F06BF801222021974801F066F845
:1008EC0001224021944801F061F820E1002201210D
:1008FC00914801F05BF8002202218F4801F056F874
:10090C00012204218C4801F051F8002208218A4868
:10091C0001F04CF800221021874801F047F8012221
:10092C002021854801F042F800224021824801F044
:10093C003DF8FCE0002201217F4801F037F800224D
:10094C0002217D4801F032F8002204217A4801F09E
:10095C002DF800220821784801F028F801221021F6
:10096C00754801F023F801222021734801F01EF88C
:10097C0000224021704801F019F8D8E00122012131
:10098C006D4801F013F8002202216B4801F00EF8BB
:10099C0000220421684801F009F801220821664868
:1009AC0001F004F801221021634800F0FFFF00223F
:1009BC002021614800F0FAFF002240215E4800F03F
:1009CC00F5FFB4E0002201215B4800F0EFFF0122AB
:1009DC000221594800F0EAFF00220421564800F099
:1009EC00E5FF00220821544800F0E0FF012210210D
:1009FC00514800F0DBFF002220214F4800F0D6FFC9
:100A0C00002240214C4800F0D1FF90E0002201214F
:100A1C00494800F0CBFF01220221474800F0C6FFF5
:100A2C0000220421444800F0C1FF00220821424862
:100A3C0000F0BCFF002210213F4800F0B7FF00225D
:100A4C0020213D4800F0B2FF002240213A4800F03E
:100A5C00ADFF6CE000220121374800F0A7FF002217
:100A6C000221354800F0A2FF00220421324800F098
:100A7C009DFF01220821304800F098FF012210212F
:100A8C002D4800F093FF012220212B4800F08EFF0F
:100A9C0001224021284800F089FF48E00022012172
:100AAC00254800F083FF00220221234800F07EFF3E
:100ABC0000220421204800F079FF002208211E4862
:100ACC0000F074FF002210211B4800F06FFF002281
:100ADC002021194800F06AFF00224021164800F03E
:100AEC0065FF24E000220121134800F05FFF002283
:100AFC000221114800F05AFF002204210E4800F098
:100B0C0055FF002208210C4800F050FF0122102153
:100B1C00094800F04BFF00222021074800F046FF57
:100B2C0000224021044800F041FF00E000BF00BF5C
:100B3C000837BD4680BD00BF000C014080B500AF3A
:100B4C00002202211D4800F031FF002204211B4825
:100B5C0000F02CFF00220821184800F027FF00228B
:100B6C001021164800F022FF00222021134800F02B
:100B7C001DFF00224021114800F018FF00228021A7
:100B8C000E4800F013FF00224FF480710B4800F068
:100B9C000DFF00224FF40071084800F007FF0022FF
:100BAC004FF48061054800F001FF00224FF4006112
:100BBC00024800F0FBFE00BF80BD00BF00080140F2
:100BCC0080B500AF01220121114800F0EFFE012297
:100BDC0002210F4800F0EAFE012204210C4800F02B
:100BEC00E5FE012208210A4800F0E0FE0122102156
:100BFC00074800F0DBFE01222021054800F0D6FE5C
:100C0C0001224021024800F0D1FE00BF80BD00BF90
:100C1C00000C014080B500AF044B1B685A1C034903
:100C2C000A601846FFF798FD00BF80BD9C000020AD
:100C3C0080B500AF00F0D0FB00F016F800F09CF887
:100C4C0000F04EF8064801F0F5FA00F007F90A2218
:100C5C000021044800F014F900F0B8F9FCE700BFDB
:100C6C00B80100208101000880B590B000AF07F1F9
:100C7C00180328220021184601F0A2FE3B1D002279
:100C8C001A605A609A60DA601A610223BB61012310
:100C9C00BB621023FB6200237B6307F11803184629
:100CAC0000F09CFE0346002B01D000F0D1F80F237E
:100CBC007B600023BB600023FB6000233B610023AF
:100CCC007B613B1D0021184601F008F90346002BFF
:100CDC0001D000F0BDF800BF4037BD4680BD00001C
:100CEC0080B586B000AF07F1080300221A605A6085
:100CFC009A60DA603B4600221A605A601D4B4FF036
:100D0C0080421A601B4B41F63F725A60194B00220D
:100D1C009A60184B0922DA60164B00221A61154BA7
:100D2C0000229A61134801F035FA0346002B01D0DA
:100D3C0000F08EF84FF48053BB6007F1080319469E
:100D4C000C4801F0B3FB0346002B01D000F080F8F7
:100D5C0000233B6000237B603B461946054801F0AD
:100D6C008BFD0346002B01D000F072F800BF183742
:100D7C00BD4680BDB801002080B586B000AF07F13C
:100D8C00080300221A605A609A60DA60284B9B694B
:100D9C00274A43F004039361254B9B6903F004033A
:100DAC007B607B68224B9B69214A43F0080393616B
:100DBC001F4B9B6903F008033B603B68002240F625
:100DCC00FE711C4800F0F2FD00227F211A4800F051
:100DDC00EDFD40F6FE73BB600123FB6000233B611D
:100DEC0002237B6107F108031946124800F064FCEA
:100DFC007F23BB600123FB6000233B6102237B61EB
:100E0C0007F1080319460C4800F056FC4FF4E04378
:100E1C00BB600023FB6001233B6107F1080319460B
:100E2C00044800F049FC00BF1837BD4680BD00BF28
:100E3C000010024000080140000C014080B582B057
:100E4C0000AF786000F0B0F800BF0837BD4680BD39
:100E5C0080B400AF72B600BFFEE7000080B400AFF4
:100E6C00064B00221A60054B00225A60034B0022ED
:100E7C001A7200BFBD4680BC704700BF0002002044
:100E8C0080B586B000AFF860B9607A60142001F0CC
:100E9C0087FD03463B613B69002B7DD03B69FA68BB
:100EAC001A60BB683E4AA2FB0323DA083B695A600E
:100EBC007B683B4AA2FB0323DA083B699A603B69D7
:100ECC000022DA603B6900221A61364B1B68002B4A
:100EDC0006D1344A3B691360324A3B69536054E093
:100EEC00304B1B687B6109E03B695A687B695B6826
:100EFC00D21A3B695A607B69DB687B617B69002B8A
:100F0C0005D03B695A687B695B689A42ECD2254BE9
:100F1C001B687A699A4214D1224B1A683B69DA60D1
:100F2C00204B1B683A691A611E4B1B6859683B6958
:100F3C005A681C4B1B688A1A5A601A4A3B69136020
:100F4C0023E07B69002B0BD1164B5A683B691A6165
:100F5C00144B5B683A69DA60124A3B69536014E0DF
:100F6C003B697A69DA607B691A693B691A617B694A
:100F7C001B693A69DA607B693A691A617B695A685C
:100F8C003B695B68D21A7B695A60064B1B7A01334A
:100F9C00DAB2044B1A7200E000BF1837BD4680BDB0
:100FAC00CDCCCCCC0002002080B400AF064B1B682B
:100FBC00002B05D0044B1B685A68013A5A6000E0BC
:100FCC0000BFBD4680BC70470002002080B582B0D7
:100FDC0000AF1C4B1B68002B30D01A4B1B685B6896
:100FEC00002B2CD1174B1B681B689847154B1B68A3
:100FFC007B60144B1B68DB68124A13607B689B6830
:10100C00002B11D07B6818687B689A6813469B008C
:10101C0013445B0019467B689A6813469B00134483
:10102C005B001A46FFF72CFF786801F0C1FC054BFA
:10103C001B7A013BDAB2034B1A7200E000BF08378F
:10104C00BD4680BD0002002080B584B000AF786042
:10105C00394B1B7A002B01D1002368E0364B1B7AED
:10106C00012B11D1344B1B68BB60334B00225A60EF
:10107C00314B5B68304A13602F4B00221A72B868F0
:10108C0001F096FC012352E02B4B1B68FB604AE0FD
:10109C00FB681B687A689A4242D1274B1B68FA6836
:1010AC009A4211D1FB68DB6800221A61FB68DB688D
:1010BC00214A1360204B1B685968FB685A681E4B09
:1010CC001B680A445A6020E01B4B5B68FA689A4222
:1010DC0008D1FB681B690022DA60FB681B69164AA1
:1010EC00536012E0FB681B69FA68D268DA60FB682F
:1010FC00DB68FA6812691A61FB68DB685968FB687F
:10110C005A68FB68DB680A445A600B4B1B7A013B3C
:10111C00DAB2094B1A72F86801F04AFC012306E0B6
:10112C00FB68DB68FB60FB68002BB1D10023184621
:10113C001037BD4680BD00BF0002002080B485B0D2
:10114C0000AF154B9B69144A43F001039361124B9A
:10115C009B6903F00103BB60BB680F4BDB690E4A54
:10116C0043F08053D3610C4BDB6903F080537B60FD
:10117C007B680A4B5B68FB60FB6823F0E063FB60F9
:10118C00FB6843F08063FB60044AFB68536000BF5C
:10119C001437BD4680BC704700100240000001406F
:1011AC0080B584B000AF78607B681B68B3F1804F6A
:1011BC0013D10C4BDB690B4A43F00103D361094B90
:1011CC00DB6903F00103FB60FB68002200211C209B
:1011DC0000F03BFA1C2000F054FA00BF1037BD465B
:1011EC0080BD00BF0010024080B400AFFEE780B4A9
:1011FC0000AFFEE780B400AFFEE780B400AFFEE7BF
:10120C0080B400AFFEE780B400AF00BFBD4680BC29
:10121C00704780B400AF00BFBD4680BC704780B43F
:10122C0000AF00BFBD4680BC704780B500AF00F07A
:10123C0019F900BF80BD000080B500AF024801F075
:10124C0045F800BF80BD00BFB801002080B586B056
:10125C0000AF7860144A154BD31A7B617B693B61F4
:10126C00134B1B68002B02D1114B124A1A60104B06
:10127C001A687B6813443A699A4207D201F066FBFC
:10128C0003460C221A604FF0FF3309E0084B1B6831
:10129C00FB60074B1A687B681344054A1360FB68B4
:1012AC0018461837BD4680BD0028002000040000F9
:1012BC00A00000202002002080B400AF00BFBD467B
:1012CC0080BC704780B582B000AF78607B68023B11
:1012DC00032B53D801A252F823F000BFF9120008D7
:1012EC002913000843130008711300080122402140
:1012FC00254800F05BFB00224FF48071224800F07F
:10130C0055FB00224FF400711F4800F04FFB0122E7
:10131C004FF480611C4800F049FB30E000224FF490
:10132C008061194800F042FB01224FF4006116481D
:10133C0000F03CFB23E000224021134800F036FB78
:10134C0001228021104800F031FB01224FF4007182
:10135C000D4800F02BFB00224FF400610A4800F00E
:10136C0025FB0CE000228021074800F01FFB012226
:10137C004FF48071044800F019FB00E000BF00BF7F
:10138C000837BD4680BD00BF00080140FFF794FF41
:10139C000B480C490C4A002302E0D458C4500433C7
:1013AC00C4188C42F9D3094A094C002301E013609C
:1013BC000432A242FBD301F0CFFAFFF739FC70479D
:1013CC000000002080000020A82B000880000020D6
:1013DC0020020020FEE7000080B500AF084B1B6820
:1013EC00074A43F010031360032000F023F90F2089
:1013FC0000F008F8FFF7A2FE0023184680BD00BFDE
:10140C000020024080B582B000AF7860124B1A68A1
:10141C00124B1B7819464FF47A73B3FBF1F3B2FB02
:10142C00F3F3184600F03BF90346002B01D00123DF
:10143C000EE07B680F2B0AD8002279684FF0FF3042
:10144C0000F003F9064A7B681360002300E00123D7
:10145C0018460837BD4680BD10000020180000203B
:10146C001400002080B400AF054B1B781A46054BC6
:10147C001B681344034A136000BFBD4680BC704711
:10148C00180000200C02002080B400AF024B1B6837
:10149C001846BD4680BC70470C02002080B485B055
:1014AC0000AF78607B6803F00703FB600C4BDB68D4
:1014BC00BB60BA684FF6FF031340BB60FB681A02AF
:1014CC00BB68134343F0BF6343F40033BB60044A6F
:1014DC00BB68D36000BF1437BD4680BC704700BFEB
:1014EC0000ED00E080B400AF044BDB681B0A03F096
:1014FC0007031846BD4680BC704700BF00ED00E0F6
:10150C0080B483B000AF0346FB7197F90730002B12
:10151C000BDBFB7903F01F02064997F907305B09D7
:10152C00012000FA02F241F8232000BF0C37BD461F
:10153C0080BC704700E100E080B483B000AF03468C
:10154C003960FB7197F90730002B0ADB3B68DAB284
:10155C000C4997F907301201D2B20B4483F80023DF
:10156C000AE03B68DAB20849FB7903F00F03043B4D
:10157C001201D2B20B441A7600BF0C37BD4680BCA8
:10158C00704700BF00E100E000ED00E080B489B0DE
:10159C0000AFF860B9607A60FB6803F00703FB6189
:1015AC00FB69C3F10703042B28BF0423BB61FB6950
:1015BC000433062B02D9FB69033B00E000237B615B
:1015CC004FF0FF32BB6902FA03F3DA43BB681A40EF
:1015DC007B699A404FF0FF317B6901FA03F3D943E1
:1015EC007B680B40134318462437BD4680BC7047BC
:1015FC0080B582B000AF78607B68013BB3F1807F2F
:10160C0001D301230FE00A4A7B68013B53600F2191
:10161C004FF0FF30FFF790FF054B00229A60044B10
:10162C0007221A60002318460837BD4680BD00BF4C
:10163C0010E000E080B582B000AF78607868FFF70A
:10164C002DFF00BF0837BD4680BD80B586B000AF0A
:10165C000346B9607A60FB7300237B61FFF742FF9E
:10166C0078617A68B9687869FFF790FF024697F954
:10167C000F3011461846FFF75FFF00BF1837BD4605
:10168C0080BD80B582B000AF0346FB7197F907307F
:10169C001846FFF735FF00BF0837BD4680BD80B543
:1016AC0082B000AF78607868FFF7A2FF0346184657
:1016BC000837BD4680BD000080B48BB000AF7860A9
:1016CC00396000237B6200233B6248E101227B6A84
:1016DC0002FA03F3FB613B681B68FA691340BB61B8
:1016EC00BA69FB699A4240F037813B685B68A34A50
:1016FC0093425ED0A14A934275D8A14A934258D0E6
:10170C009F4A93426FD89F4A934252D09D4A93422C
:10171C0069D89D4A93424CD09B4A934263D89B4ACA
:10172C00934246D0994A93425DD8122B2AD8122B59
:10173C0059D801A252F823F0BF17000899170008D6
:10174C00AB170008ED170008F3170008F317000893
:10175C00F3170008F3170008F3170008F317000835
:10176C00F3170008F3170008F3170008F317000825
:10177C00F3170008F3170008F3170008A117000867
:10178C00B5170008824A934213D02CE03B68DB6803
:10179C003B6229E03B68DB6804333B6224E03B6836
:1017AC00DB6808333B621FE03B68DB680C333B6251
:1017BC001AE03B689B68002B02D104233B6213E0C8
:1017CC003B689B68012B05D108233B627B68FA6957
:1017DC001A6109E008233B627B68FA695A6103E0ED
:1017EC0000233B6200E000BFBB69FF2B01D87B6884
:1017FC0001E07B6804337B61BB69FF2B02D87B6AF9
:10180C009B0002E07B6A083B9B003B617B691A688A
:10181C000F213B6901FA03F3DB431A40396A3B6938
:10182C0001FA03F31A437B691A603B685B6803F0A7
:10183C008053002B00F09080564B9B69554A43F027
:10184C0001039361534B9B6903F00103BB60BB68BD
:10185C00514A7B6A9B08023352F82330FB607B6A47
:10186C0003F003039B000F2202FA03F3DB43FA6835
:10187C001340FB607B68494A93420DD07B68484A11
:10188C00934207D07B68474A934201D1022304E07C
:10189C00032302E0012300E000237A6A02F0030232
:1018AC0092009340FA681343FB603B497B6A9B08A8
:1018BC000233FA6841F823203B685B6803F4801319
:1018CC00002B06D0384B9A683749BB6913438B60A1
:1018DC0006E0354B9A68BB69DB43334913408B6098
:1018EC003B685B6803F40013002B06D02E4BDA68C0
:1018FC002D49BB691343CB6006E02B4BDA68BB69FF
:10190C00DB4329491340CB603B685B6803F400332D
:10191C00002B06D0244B5A682349BB6913434B60F8
:10192C0006E0214B5A68BB69DB431F4913404B60EF
:10193C003B685B6803F48033002B06D01A4B1A68A3
:10194C001949BB6913430B6006E0174B1A68BB6956
:10195C00DB43154913400B607B6A01337B623B68A8
:10196C001A687B6A22FA03F3002B7FF4AFAE00BF38
:10197C0000BF2C37BD4680BC704700BF0000321042
:10198C000000311000002210000021100000121085
:10199C00000011100010024000000140000801403E
:1019AC00000C0140001001400004014080B483B0E1
:1019BC0000AF78600B467B8013467B707B78002BE6
:1019CC0003D07A887B681A6103E07B881A047B68F1
:1019DC001A6100BF0C37BD4680BC704780B586B01D
:1019EC0000AF78607B68002B01D101236CE27B682F
:1019FC001B6803F00103002B00F08780924B5B689F
:101A0C0003F00C03042B0CD08F4B5B6803F00C031E
:101A1C00082B12D18C4B5B6803F48033B3F5803FF9
:101A2C000BD1894B1B6803F40033002B6CD07B6803
:101A3C005B68002B68D1012346E27B685B68B3F5D9
:101A4C00803F06D1804B1B687F4A43F48033136080
:101A5C002EE07B685B68002B0CD17B4B1B687A4AB1
:101A6C0023F480331360784B1B68774A23F480236C
:101A7C0013601DE07B685B68B3F5A02F0CD1724B33
:101A8C001B68714A43F4802313606F4B1B686E4ACA
:101A9C0043F4803313600BE06B4B1B686A4A23F4EE
:101AAC0080331360684B1B68674A23F480231360F0
:101ABC007B685B68002B13D0FFF7E6FC386108E00D
:101ACC00FFF7E2FC02463B69D31A642B01D90323CE
:101ADC00FAE15D4B1B6803F40033002BF0D014E0EB
:101AEC00FFF7D2FC386108E0FFF7CEFC02463B69F9
:101AFC00D31A642B01D90323E6E1534B1B6803F47F
:101B0C000033002BF0D100E000BF7B681B6803F0B2
:101B1C000203002B63D04C4B5B6803F00C03002BCF
:101B2C000BD0494B5B6803F00C03082B1CD1464BC4
:101B3C005B6803F48033002B16D1434B1B6803F016
:101B4C000203002B05D07B681B69012B01D00123FC
:101B5C00BAE13D4B1B6823F0F8027B685B69DB0044
:101B6C00394913430B603AE07B681B69002B20D08A
:101B7C00364B01221A60FFF787FC386108E0FFF74B
:101B8C0083FC02463B69D31A022B01D903239BE148
:101B9C002D4B1B6803F00203002BF0D02A4B1B6863
:101BAC0023F0F8027B685B69DB00274913430B6069
:101BBC0015E0264B00221A60FFF766FC386108E03E
:101BCC00FFF762FC02463B69D31A022B01D90323AF
:101BDC007AE11D4B1B6803F00203002BF0D17B68EC
:101BEC001B6803F00803002B3AD07B689B69002B21
:101BFC0019D0174B01221A60FFF746FC386108E038
:101C0C00FFF742FC02463B69D31A022B01D903238E
:101C1C005AE10D4B5B6A03F00203002BF0D001205C
:101C2C0000F09AFA1CE00A4B00221A60FFF72CFC19
:101C3C0038610FE0FFF728FC02463B69D31A022BF0
:101C4C0008D9032340E100BF0010024000004242CB
:101C5C00800442429E4B5B6A03F00203002BE9D1E5
:101C6C007B681B6803F00403002B00F0A6800023A4
:101C7C00FB75974BDB6903F08053002B0DD1944B14
:101C8C00DB69934A43F08053D361914BDB6903F0DA
:101C9C008053BB60BB680123FB758E4B1B6803F440
:101CAC008073002B18D18B4B1B688A4A43F48073CA
:101CBC001360FFF7E9FB386108E0FFF7E5FB02462C
:101CCC003B69D31A642B01D90323FDE0814B1B68BC
:101CDC0003F48073002BF0D07B68DB68012B06D1FA
:101CEC007B4B1B6A7A4A43F0010313622DE07B683D
:101CFC00DB68002B0CD1764B1B6A754A23F0010371
:101D0C001362734B1B6A724A23F0040313621CE0C8
:101D1C007B68DB68052B0CD16D4B1B6A6C4A43F05E
:101D2C00040313626A4B1B6A694A43F00103136292
:101D3C000BE0674B1B6A664A23F001031362644B8A
:101D4C001B6A634A23F0040313627B68DB68002B75
:101D5C0015D0FFF799FB38610AE0FFF795FB0246B7
:101D6C003B69D31A41F28832934201D90323ABE089
:101D7C00574B1B6A03F00203002BEED014E0FFF765
:101D8C0083FB38610AE0FFF77FFB02463B69D31AFD
:101D9C0041F28832934201D9032395E04C4B1B6AE4
:101DAC0003F00203002BEED1FB7D012B05D1484B38
:101DBC00DB69474A23F08053D3617B68DB69002BD6
:101DCC0000F08180424B5B6803F00C03082B61D060
:101DDC007B68DB69022B46D13F4B00221A60FFF770
:101DEC0053FB386108E0FFF74FFB02463B69D31AFF
:101DFC00022B01D9032367E0354B1B6803F00073FA
:101E0C00002BF0D17B681B6AB3F5803F08D1304BB7
:101E1C005B6823F400327B689B682D4913434B604D
:101E2C002B4B5B6823F474127B68196A7B685B6AC2
:101E3C000B43274913434B60274B01221A60FFF7D2
:101E4C0023FB386108E0FFF71FFB02463B69D31AFE
:101E5C00022B01D9032337E01D4B1B6803F00073E1
:101E6C00002BF0D02FE01C4B00221A60FFF70CFB6C
:101E7C00386108E0FFF708FB02463B69D31A022BD6
:101E8C0001D9032320E0124B1B6803F00073002BD5
:101E9C00F0D118E07B68DB69012B01D1012313E041
:101EAC000B4B5B68FB60FB6803F480327B681B6A3E
:101EBC009A4206D1FB6803F470127B685B6A9A4203
:101ECC0001D0012300E0002318461837BD4680BD21
:101EDC0000100240007000406000424280B584B0A7
:101EEC0000AF786039607B68002B01D10123D0E012
:101EFC006A4B1B6803F007033A689A4210D9674B88
:101F0C001B6823F0070265493B6813430B60634B66
:101F1C001B6803F007033A689A4201D00123B8E02A
:101F2C007B681B6803F00203002B20D07B681B68C6
:101F3C0003F00403002B05D0594B5B68584A43F45B
:101F4C00E06353607B681B6803F00803002B05D02B
:101F5C00534B5B68524A43F460535360504B5B687D
:101F6C0023F0F0027B689B684D4913434B607B6800
:101F7C001B6803F00103002B40D07B685B68012BCE
:101F8C0007D1474B1B6803F40033002B15D10123F9
:101F9C007FE07B685B68022B07D1414B1B6803F029
:101FAC000073002B09D1012373E03D4B1B6803F038
:101FBC000203002B01D101236BE0394B5B6823F04A
:101FCC0003027B685B68364913434B60FFF75CFA8E
:101FDC00F8600AE0FFF758FA0246FB68D31A41F2A0
:101FEC008832934201D9032353E02D4B5B6803F0F5
:101FFC000C027B685B689B009A42EBD1274B1B68F9
:10200C0003F007033A689A4210D2244B1B6823F062
:10201C00070222493B6813430B60204B1B6803F0FB
:10202C0007033A689A4201D0012332E07B681B68AF
:10203C0003F00403002B08D0194B5B6823F4E06217
:10204C007B68DB68164913434B607B681B6803F0A5
:10205C000803002B09D0124B5B6823F460527B6899
:10206C001B69DB000E4913434B6000F021F802465C
:10207C000B4B5B681B0903F00F030A49CB5C22FA7C
:10208C0003F3094A1360094B1B681846FFF7BAF9AA
:10209C00002318461037BD4680BD00BF002002400B
:1020AC00001002407C2B00081000002014000020BF
:1020BC0080B487B000AF0023FB600023BB6000231B
:1020CC007B6100237B6000233B611E4B5B68FB60E4
:1020DC00FB6803F00C03042B02D0082B03D027E081
:1020EC00194B3B6127E0FB689B0C03F00F03174A6D
:1020FC00D35C7B60FB6803F48033002B10D0114B56
:10210C005B685B0C03F00103114AD35CBB607B681A
:10211C000D4A02FB03F2BB68B2FBF3F37B6104E0F4
:10212C007B680C4A02FB03F37B617B693B6102E039
:10213C00054B3B6100BF3B6918461C37BD4680BC54
:10214C00704700BF0010024000127A008C2B000870
:10215C009C2B000800093D0080B485B000AF78606E
:10216C000A4B1B680A4AA2FB03235B0A7A6802FB30
:10217C0003F3FB6000BFFB685A1EFA60002BF9D119
:10218C0000BF00BF1437BD4680BC70471000002054
:10219C00D34D621080B582B000AF78607B68002BA5
:1021AC0001D1012341E07B6893F83D30DBB2002B79
:1021BC0006D17B68002283F83C207868FEF7F0FF9C
:1021CC007B68022283F83D207B681A687B680433A5
:1021DC001946104600F056FA7B68012283F8462017
:1021EC007B68012283F83E207B68012283F83F2024
:1021FC007B68012283F840207B68012283F8412010
:10220C007B68012283F842207B68012283F84320FB
:10221C007B68012283F844207B68012283F84520E7
:10222C007B68012283F83D20002318460837BD4601
:10223C0080BD000080B485B000AF78607B6893F8F7
:10224C003D30DBB2012B01D0012335E07B6802224B
:10225C0083F83D207B681B68DA687B681B6842F05A
:10226C000102DA607B681B68164A934209D07B68CE
:10227C001B68B3F1804F04D07B681B68124A9342F1
:10228C0011D17B681B689B6803F00703FB60FB683C
:10229C00062B10D07B681B681A687B681B6842F0A1
:1022AC0001021A6007E07B681B681A687B681B6870
:1022BC0042F001021A60002318461437BD4680BC58
:1022CC00704700BF002C01400004004080B584B072
:1022DC0000AF78607B681B68DB68FB607B681B6801
:1022EC001B69BB60BB6803F00203002B20D0FB68AA
:1022FC0003F00203002B1BD07B681B686FF00202FB
:10230C001A617B6801221A777B681B689B6903F052
:10231C000303002B03D0786800F098F905E0786887
:10232C0000F08BF9786800F09AF97B6800221A7734
:10233C00BB6803F00403002B20D0FB6803F00403FC
:10234C00002B1BD07B681B686FF004021A617B6842
:10235C0002221A777B681B689B6903F44073002B7D
:10236C0003D0786800F072F905E0786800F065F940
:10237C00786800F074F97B6800221A77BB6803F068
:10238C000803002B20D0FB6803F00803002B1BD0A4
:10239C007B681B686FF008021A617B6804221A774D
:1023AC007B681B68DB6903F00303002B03D07868A0
:1023BC0000F04CF905E0786800F03FF9786800F01F
:1023CC004EF97B6800221A77BB6803F01003002BD0
:1023DC0020D0FB6803F01003002B1BD07B681B681C
:1023EC006FF010021A617B6808221A777B681B68F1
:1023FC00DB6903F44073002B03D0786800F026F9F6
:10240C0005E0786800F019F9786800F028F97B6825
:10241C0000221A77BB6803F00103002B0CD0FB6879
:10242C0003F00103002B07D07B681B686FF00102DF
:10243C001A617868FEF702FDBB6803F08003002B7D
:10244C000CD0FB6803F08003002B07D07B681B6863
:10245C006FF080021A61786800F06FFABB6803F0C5
:10246C004003002B0CD0FB6803F04003002B07D07B
:10247C007B681B686FF040021A61786800F0F8F80E
:10248C00BB6803F02003002B0CD0FB6803F0200387
:10249C00002B07D07B681B686FF020021A617868EC
:1024AC0000F042FA00BF1037BD4680BD80B584B045
:1024BC0000AF786039600023FB737B6893F83C3085
:1024CC00012B01D10223B4E07B68012283F83C206C
:1024DC007B68022283F83D207B681B689B68BB608D
:1024EC00BB6823F07703BB60BB6823F47F43BB60FE
:1024FC007B681B68BA689A603B681B68B3F5005F21
:10250C003ED0B3F5005F00F28780B3F5805F00F03A
:10251C008680B3F5805F7FD8702B1AD0702B7BD858
:10252C00602B50D0602B77D8502B3CD0502B73D8CD
:10253C00402B58D0402B6FD8302B64D0302B6BD81D
:10254C00202B60D0202B67D8002B5CD0102B5AD0BE
:10255C0062E07B6818683B6899683B685A683B681E
:10256C00DB6800F06AF97B681B689B68BB60BB6822
:10257C0043F07703BB607B681B68BA689A604FE0D6
:10258C007B6818683B6899683B685A683B68DB68ED
:10259C0000F053F97B681B689A687B681B6842F4EF
:1025AC0080429A603CE07B6818683B6859683B68DD
:1025BC00DB681A4600F0CAF87B681B685021184685
:1025CC0000F021F92CE07B6818683B6859683B687F
:1025DC00DB681A4600F0E8F87B681B686021184637
:1025EC0000F011F91CE07B6818683B6859683B687F
:1025FC00DB681A4600F0AAF87B681B684021184675
:10260C0000F001F90CE07B681A683B681B681946FE
:10261C00104600F0F8F803E00123FB7300E000BF64
:10262C007B68012283F83D207B68002283F83C20E4
:10263C00FB7B18461037BD4680BD80B483B000AF1D
:10264C00786000BF0C37BD4680BC704780B483B047
:10265C0000AF786000BF0C37BD4680BC704780B4BB
:10266C0083B000AF786000BF0C37BD4680BC7047AC
:10267C0080B483B000AF786000BF0C37BD4680BC1F
:10268C007047000080B485B000AF786039607B681B
:10269C001B68FB607B682B4A934207D07B68B3F1C5
:1026AC00804F03D07B68284A934208D1FB6823F003
:1026BC007003FB603B685B68FA681343FB607B68E4
:1026CC00204A934207D07B68B3F1804F03D07B68DC
:1026DC001D4A934208D1FB6823F44073FB603B68AE
:1026EC00DB68FA681343FB60FB6823F080023B68ED
:1026FC005B691343FB607B68FA681A603B689A68F5
:10270C007B68DA623B681A687B689A627B680D4A60
:10271C00934203D13B681A697B681A637B68012278
:10272C005A617B681B6903F00103002B05D07B68A1
:10273C001B6923F001027B681A6100BF1437BD4688
:10274C0080BC7047002C01400004004080B487B06E
:10275C0000AFF860B9607A60FB681B6A7B61FB684C
:10276C001B6A23F00102FB681A62FB689B693B61E0
:10277C003B6923F0F0033B617B681B013A6913430F
:10278C003B617B6923F00A037B617A69BB68134365
:10279C007B61FB683A699A61FB687A691A6200BFCF
:1027AC001C37BD4680BC704780B487B000AFF86062
:1027BC00B9607A60FB681B6A7B61FB681B6A23F05B
:1027CC001002FB681A62FB689B693B613B6923F44E
:1027DC0070433B617B681B033A6913433B617B6924
:1027EC0023F0A0037B61BB681B017A6913437B61F7
:1027FC00FB683A699A61FB687A691A6200BF1C37F8
:10280C00BD4680BC704780B485B000AF786039603D
:10281C007B689B68FB60FB6823F07003FB603A6885
:10282C00FB68134343F00703FB607B68FA689A600C
:10283C0000BF1437BD4680BC704780B487B000AF72
:10284C00F860B9607A603B60FB689B687B617B6970
:10285C0023F47F437B613B681A027B681A43BB6895
:10286C0013437A6913437B61FB687A699A6000BFF2
:10287C001C37BD4680BC704780B485B000AF786013
:10288C0039607B6893F83C30012B01D1022341E085
:10289C007B68012283F83C207B68022283F83D2070
:1028AC007B681B685B68FB607B681B689B68BB6014
:1028BC00FB6823F07003FB603B681B68FA681343EA
:1028CC00FB607B681B68FA685A607B681B68144A5B
:1028DC00934209D07B681B68B3F1804F04D07B68AE
:1028EC001B68104A93420CD1BB6823F08003BB6079
:1028FC003B685B68BA681343BB607B681B68BA684B
:10290C009A607B68012283F83D207B68002283F863
:10291C003C20002318461437BD4680BC704700BFCE
:10292C00002C01400004004080B483B000AF7860FC
:10293C0000BF0C37BD4680BC704780B483B000AF7D
:10294C00786000BF0C37BD4680BC7047014B1868DF
:10295C00704700BF1C00002070B500260C4D0D4CBC
:10296C00641BA410A64209D100F0F6F800260A4D0B
:10297C000A4C641BA410A64205D170BD55F8043B4B
:10298C0098470136EEE755F8043B98470136F2E7D5
:10299C00A02B0008A02B0008A02B0008A42B0008DB
:1029AC00024B0146186800F05FB800BF1C00002005
:1029BC00024B0146186800F00BB800BF1C00002049
:1029CC0003460244934200D1704703F8011BF9E718
:1029DC0038B50546002943D051F8043C0C1F002B98
:1029EC00B8BFE41800F0AAF81E4A1368104633B9B1
:1029FC00636014602846BDE8384000F0A5B8A342D7
:102A0C000AD921686218934201BF1A685B68521890
:102A1C00226063600460EDE71A465B680BB1A34269
:102A2C00FAD911685018A0420BD1206801445018F3
:102A3C0083421160DED118685B68014411605360F9
:102A4C00D8E702D90C232B60D4E7206821188B42DD
:102A5C0001BF19685B680918216063605460C9E79D
:102A6C0038BD00BFA4000020F8B5CD1C25F003052F
:102A7C0008350C2D38BF0C25002D064601DBA9426C
:102A8C0003D90C2333600020F8BD00F057F821491E
:102A9C000A6814469CB9204F3B6823B9214630463E
:102AAC0000F03CF838602946304600F037F8431CFB
:102ABC0023D10C233046336000F046F8E3E723685B
:102ACC005B1B17D40B2B03D923601C44256004E03B
:102ADC006368A2420CBF0B605360304600F034F8C0
:102AEC0004F10B00231D20F00700C21ACCD01B1AD6
:102AFC00A350C9E722466468CCE7C41C24F0030445
:102B0C00A042E3D0211A304600F008F80130DDD1A4
:102B1C00CFE700BFA4000020A800002038B5002398
:102B2C00054D044608462B60FEF790FB431C02D172
:102B3C002B6803B1236038BD10020020014800F05F
:102B4C0009B800BF18020020014800F004B800BF0B
:102B5C001802002070477047F8B500BFF8BC08BCDD
:102B6C009E467047F8B500BFF8BC08BC9E4670473F
:102B7C000000000000000000010203040607080921
:102B8C0002030405060708090A0B0C0D0E0F1010A2
:042B9C000102000032
:042BA00031010008F7
:042BA4000D01000817
:102BA80001000000B80B0000D0070000D0070000AB
:102BB80000127A0010000000010000002000002030
:102BC80000000000000000000000000000000000FD
:102BD80000000000000000000000000000000000ED
:102BE80000000000000000000000000000000000DD
:102BF80000000000000000000000000000000000CD
:102C080000000000000000000000000000000000BC
:102C180000000000000000000000000000000000AC
:040000050800139943
:00000001FF
