:020000040800F2
:1000000000280020D9140008D5110008DB110008D1
:10001000E1110008E7110008ED11000800000000E0
:10002000000000000000000000000000F3110008C4
:10003000FF110008000000000B1200081712000852
:1000400021150008211500082115000821150008B8
:1000500021150008211500082115000821150008A8
:100060002115000821150008211500082115000898
:100070002115000821150008211500082115000888
:100080002115000821150008211500082115000878
:100090002115000821150008211500082115000868
:1000A0002115000821150008211500082115000858
:1000B0002512000821150008000000002115000885
:1000C00021150008000000000000000021150008B4
:1000D00000000000211500082115000800000000A4
:1000E0002115000821150008211500080000000056
:1000F0000000000000000000000000000000000000
:0C01000000000000000000005FF808F1A3
:10010C0010B5054C237833B9044B13B10448AFF345
:10011C0000800123237010BD3C0000200000000073
:10012C00502B000808B5034B1BB103490348AFF330
:10013C00008008BD0000000040000020502B00088B
:10014C0080B500AF234B5B69012B12D14FF480516A
:10015C00214801F0CBFC0346002B0AD11F4B012296
:10016C001A6020211C4801F0F0FC3221052001F01E
:10017C0063F8184B9B69012B12D14FF400511648B0
:10018C0001F0B4FC0346002B0AD1144B01225A6037
:10019C002021114801F0D9FC3221062001F04CF845
:1001AC000C4BDB69012B12D14FF480410A4801F052
:1001BC009DFC0346002B0AD1084B01229A6020219A
:1001CC00054801F0C2FC3221072001F035F800BFD0
:1001DC0080BD00BF0C000020000801400001002081
:1001EC0080B483B000AF7860094A7B6852F8233042
:1001FC00012B06D1064A7B68002142F8231001230B
:10020C0000E0002318460C37BD4680BC704700BF89
:10021C000001002080B500AFA14B1B68013B042BF3
:10022C0000F28C8101A252F823F000BF4D020008AD
:10023C00AF0200082B030008A903000821040008E2
:10024C00984BC8221A60974BC8225A60954B4FF4B2
:10025C0096729A60924B02221A60022001F038F8D2
:10026C006421022000F0E8FF1821002000F0E4FFD8
:10027C008C4B5B681946012000F0DEFF00F06AF938
:10028C00894B5B68013B884A5360874B5A68864BA5
:10029C009B681344844A52681146184600F0E6FBEA
:1002AC000BE1824B9B68012B14D17F4B5B68013BAC
:1002BC007D4A53607C4B5A687B4B9B6813447A4A4B
:1002CC0052681146184600F0D1FB00F0F5FF784B50
:1002DC0000221A60754B5B68012B40F0DA80704B82
:1002EC001B68744A13606E4B03221A606E4B9B683A
:1002FC00013B6D4A93606C4B9B686B4A926811464C
:10030C00184600F0B3FB674B9B681946012000F0C0
:10031C0093FF00F0D1FF032000F0DAFFB9E0634B4C
:10032C009B68012B11D1604B9B68013B5E4A93602B
:10033C005D4B9B685C4A92681146184600F096FB30
:10034C0000F0BAFF5A4B00221A60584B5B68012B25
:10035C0040F0A180524B1B68564A1360504B04224C
:10036C001A6000F0F7F8504B5B68013B4E4A536043
:10037C004D4B58684C4B5A684B4B9B681344194671
:10038C0000F074FB474B5B681946012000F054FFEA
:10039C0000F092FF042000F09BFF7CE0434B9B6835
:1003AC00012B13D1404B5B68013B3F4A53603E4BE2
:1003BC0058683D4B5A683C4B9B681344194600F0F7
:1003CC0055FB00F079FF3A4B00221A60374B5B6803
:1003DC00012B62D1324B1B68364A1360304B05221D
:1003EC001A60314B9B68013B2F4A93602E4B9B68E4
:1003FC002D4A92681146184600F038FB294B9B6831
:10040C001946012000F018FF00F056FF052000F0FF
:10041C005FFF42E0254B9B68012B11D1224B9B685F
:10042C00013B214A9360204B9B681F4A92681146FE
:10043C00184600F01BFB00F03FFF1D4B00221A601A
:10044C001A4B5B68012B37D1154B1B68194A13608B
:10045C00134B02221A6000F07DF8134B5B68013BD2
:10046C00114A5360104B5A680F4B9B6813440E4A49
:10047C0052681146184600F0F9FA0A4B5B681946A7
:10048C00012000F0D9FE00F017FF022000F020FF41
:10049C0012E000BF11E000BF0FE000BF0DE000BF95
:1004AC000000002050010020780100200C000020EA
:1004BC00580000200400002000BF0020FFF790FE31
:1004CC000346002B15D000F045F800F063FA00F05D
:1004DC00A3FA1B4B1B681B4A1360194B1B681E337A
:1004EC00174A1360184B1B681946012000F0A4FE34
:1004FC0025E00220FFF774FE0346002B0DD0104BB5
:10050C001B68104A136000F025F800F043FA00F065
:10051C0083FA0B4B0B221A6011E00C4B1B68012B5E
:10052C000DD10B4B1B685A1C09490A60184600F088
:10053C00D9FA1821002000F07FFE00E000BF80BD3A
:10054C000000002004000020500100200C000020BE
:10055C005800002080B400AF124B5B68124A82FB3B
:10056C0003125211DB17D31A104A53600D4B9B68C0
:10057C000D4A82FB03125211DB17D31A0B4A9360FC
:10058C00084B5A68074B9B681344074A82FB0312BB
:10059C005211DB17D31A054AD36000BFBD4680BC8D
:1005AC00704700BF500100201F85EB5178010020DF
:1005BC0080B500AF494B1B68203B032B00F28B80AE
:1005CC0001A252F823F000BFE5050008130600084D
:1005DC00410600086F0600080120FFF701FE0346E4
:1005EC00002B55D0032000F073FE3C4B1B683C4A9B
:1005FC0013603A4B21221A603A4B1B6819460120B2
:10060C0000F01AFE44E00120FFF7EAFD0346002B40
:10061C0040D0042000F05CFE304B1B68304A136065
:10062C002E4B22221A602F4B1B681946012000F01A
:10063C0003FE2FE00120FFF7D3FD0346002B2BD048
:10064C00052000F045FE254B1B68254A1360234B03
:10065C0023221A60234B1B681946012000F0ECFD85
:10066C001AE00120FFF7BCFD0346002B16D0022038
:10067C0000F02EFE194B1B68194A1360174B2022F1
:10068C001A60184B1B681946012000F0D5FD05E0D7
:10069C0000BF04E000BF02E000BF00E000BF124B4F
:1006AC005B68012B09D10D4B1B680D4A13600B4B7A
:1006BC001B681E3B094A13600EE00220FFF790FDF9
:1006CC000346002B08D0054B1B68054A1360034BEF
:1006DC000D221A6000E000BF80BD00BF00000020AA
:1006EC0004000020500100200C00002080B500AF59
:1006FC00A14B1B680D2B00F0C7800D2B00F339812B
:10070C000B2B02D00C2B53D033E10B2000F044FE0A
:10071C000120FFF765FD0346002B11D0974B1B689A
:10072C000133964A1360954B1B68622B02DD934B89
:10073C0000221A60914B1B681946002000F096F9B4
:10074C000020FFF74DFD0346002B26D08A4B0C22D0
:10075C001A608A4B1B68642202FB03F3874A1360FE
:10076C00874B5A68854B1B685340844A1360844BF3
:10077C005A68824B1B685340814A5360804B5A68BD
:10078C007E4B1B6853407D4A13607D4B5B68002B8E
:10079C0003DC7A4B1B687A4A53600220FFF720FD7A
:1007AC000346002B00F0BA80744B00221A60B5E0AF
:1007BC000C2000F0F1FD0120FFF712FD0346002B89
:1007CC001BD06E4B1B6801336C4A13606C4B5B681F
:1007DC006C4A82FB03125211DB179B1A03F1630262
:1007EC00664B1B689A4202DA644B00221A60634B18
:1007FC001B681946002000F039F90020FFF7F0FCC7
:10080C000346002B36D0604B1B685B4A13605A4B77
:10081C001B68184600F0F6FD584B1B68642202FB5F
:10082C0003F3564A1360564B9A68544B1B6853405B
:10083C00524A1360524B9A68504B1B685340504AB3
:10084C0093604F4B9A684D4B1B6853404B4A136057
:10085C004B4B9B68002B03DC484B1B68484A93604E
:10086C00FFF778FE1821002000F0E6FC642102203E
:10087C0000F0E2FC0220FFF7B3FC0346002B4FD044
:10088C003E4B00221A604BE00120FFF7A9FC034607
:10089C00002B0BD0394B1B680133384A1360374B94
:1008AC001B68632B02DD354B00221A600020FFF71A
:1008BC0097FC0346002B27D0334B1B682E4A136042
:1008CC002E4B1B68642202FB03F32C4A13602C4B47
:1008DC001A682A4B1B685340284A1360284B1A6825
:1008EC00264B1B685340264A1360254B1A68234B32
:1008FC001B685340214A1360214B1B68002B03D10A
:10090C001E4B1B681E4A13600220FFF769FC03464E
:10091C00002B07D0194B00221A6003E000BF02E045
:10092C0000BF00E000BF194B9B68012B10D1134B8B
:10093C001B681946002000F099F86421022000F091
:10094C007BFC1821002000F077FC114B00221A6070
:10095C000E4B1B68012B0DD10D4B1B685A1C0C49FF
:10096C000A60184600F0BEF81821002000F064FC64
:10097C0000E000BF80BD00BF000000205C00002034
:10098C00500100201F85EB51040000200C000020BA
:10099C005800002080B500AF002202211D4801F054
:1009AC00BCF8002204211B4801F0B7F800220821F2
:1009BC00184801F0B2F800221021164801F0ADF8E9
:1009CC0000222021134801F0A8F8002240211148F0
:1009DC0001F0A3F8002280210E4801F09EF80022BD
:1009EC004FF480710B4801F098F800224FF400711D
:1009FC00084801F092F800224FF48061054801F09C
:100A0C008CF800224FF40061024801F086F800BF18
:100A1C0080BD00BF0008014080B500AF002201215D
:100A2C00114801F07AF8002202210F4801F075F804
:100A3C00002204210C4801F070F8002208210A4819
:100A4C0001F06BF800221021074801F066F8002233
:100A5C002021054801F061F800224021024801F0F4
:100A6C005CF800BF80BD00BF000C014080B483B0B7
:100A7C0000AF786039603968184B83FB01239A10FA
:100A8C00CB17D21A13469B0013445B00CA1A144BA3
:100A9C00DA603B68114A82FB03129210DB17D31AFF
:100AAC000F4A936079680D4B83FB01239A10CB1787
:100ABC00D21A13469B0013445B00CA1A084B5A60A7
:100ACC007B68064A82FB03129210DB17D31A044A86
:100ADC00136000BF0C37BD4680BC70476766666606
:100AEC00A001002080B582B000AF78600122022105
:100AFC002B4801F012F801220421294801F00DF8CD
:100B0C0001220821264801F008F80122102124486E
:100B1C0001F003F87B68032B3ED801A252F823F0B6
:100B2C003D0B0008570B0008710B00088B0B0008DD
:100B3C00002202211A4800F0F0FF1A4A7B6852F892
:100B4C002330184600F030F826E000220421144827
:100B5C0000F0E3FF134A7B6852F82330184600F08C
:100B6C0023F819E0002208210D4800F0D6FF0D4AA9
:100B7C007B6852F82330184600F016F80CE000227F
:100B8C001021074800F0C9FF064A7B6852F8233051
:100B9C00184600F009F800BF00BF0837BD4680BDFD
:100BAC0000080140A001002080B582B000AF786041
:100BBC007B68092B00F2808101A252F823F000BF60
:100BCC00F50B00083D0C0008850C0008CD0C000846
:100BDC00150D00085D0D0008A50D0008ED0D0008B1
:100BEC00350E00087D0E000800220121B54800F0EA
:100BFC0094FF00220221B34800F08FFF0022042151
:100C0C00B04800F08AFF00220821AE4800F085FFB2
:100C1C0000221021AB4800F080FF00222021A948BF
:100C2C0000F07BFF01224021A64800F076FF44E152
:100C3C0001220121A34800F070FF00220221A148EB
:100C4C0000F06BFF002204219E4800F066FF012299
:100C5C0008219C4800F061FF01221021994800F006
:100C6C005CFF01222021974800F057FF0122402110
:100C7C00944800F052FF20E100220121914800F03D
:100C8C004CFF002202218F4800F047FF0122042173
:100C9C008C4800F042FF002208218A4800F03DFFFA
:100CAC0000221021874800F038FF012220218548BE
:100CBC0000F033FF00224021824800F02EFFFCE0C0
:100CCC00002201217F4800F028FF002202217D48EC
:100CDC0000F023FF002204217A4800F01EFF0022BE
:100CEC000821784800F019FF01221021754800F006
:100CFC0014FF01222021734800F00FFF0022402135
:100D0C00704800F00AFFD8E0012201216D4800F084
:100D1C0004FF002202216B4800F0FFFE0022042198
:100D2C00684800F0FAFE01220821664800F0F5FE42
:100D3C0001221021634800F0F0FE002220216148BE
:100D4C0000F0EBFE002240215E4800F0E6FEB4E02D
:100D5C00002201215B4800F0E0FE012202215948EB
:100D6C0000F0DBFE00220421564800F0D6FE0022E3
:100D7C000821544800F0D1FE01221021514800F006
:100D8C00CCFE002220214F4800F0C7FE002240215B
:100D9C004C4800F0C2FE90E000220121494800F0CE
:100DAC00BCFE01220221474800F0B7FE00220421BC
:100DBC00444800F0B2FE00220821424800F0ADFE8B
:100DCC00002210213F4800F0A8FE002220213D48BF
:100DDC0000F0A3FE002240213A4800F09EFE6CE099
:100DEC0000220121374800F098FE002202213548EC
:100DFC0000F093FE00220421324800F08EFE012206
:100E0C000821304800F089FE012210212D4800F005
:100E1C0084FE012220212B4800F07FFE012240217C
:100E2C00284800F07AFE48E000220121254800F015
:100E3C0074FE00220221234800F06FFE00220421E0
:100E4C00204800F06AFE002208211E4800F065FED2
:100E5C00002210211B4800F060FE002220211948BE
:100E6C0000F05BFE00224021164800F056FE24E004
:100E7C0000220121134800F050FE002202211148EB
:100E8C0000F04BFE002204210E4800F046FE00222A
:100E9C0008210C4800F041FE01221021094800F005
:100EAC003CFE00222021074800F037FE00224021A2
:100EBC00044800F032FE00E000BF00BF0837BD461A
:100ECC0080BD00BF000C014080B500AF00F024FBDA
:100EDC0000F016F800F09CF800F04EF8064801F00F
:100EEC0079FA064B01221A60FFF794F9FFF760FBC1
:100EFC00FFF7FCFBF8E700BFB0010020000000206A
:100F0C0080B590B000AF07F11803282200211846D5
:100F1C0001F010FE3B1D00221A605A609A60DA60E4
:100F2C001A610223BB610123BB621023FB62002305
:100F3C007B6307F11803184600F020FE0346002BD4
:100F4C0001D000F0E6F80F237B600023BB60002388
:100F5C00FB6000233B6100237B613B1D0021184695
:100F6C0001F08CF80346002B01D000F0D2F800BF42
:100F7C004037BD4680BD000080B586B000AF07F19C
:100F8C00080300221A605A609A60DA603B4600221D
:100F9C001A605A601D4B4FF080421A601B4B41F691
:100FAC003F725A60194B00229A60184B0922DA6082
:100FBC00164B00221A61154B00229A61134801F05E
:100FCC00B9F90346002B01D000F0A3F84FF480537D
:100FDC00BB6007F1080319460C4801F037FB0346C8
:100FEC00002B01D000F095F800233B6000237B60C0
:100FFC003B461946054801F00FFD0346002B01D076
:10100C0000F087F800BF1837BD4680BDB001002046
:10101C0080B586B000AF07F1080300221A605A6051
:10102C009A60DA60284B9B69274A43F0040393616A
:10103C00254B9B6903F004037B607B68224B9B6907
:10104C00214A43F0080393611F4B9B6903F008038B
:10105C003B603B68002240F6FE711C4800F05DFDD1
:10106C0000227F211A4800F058FD40F6FE73BB6049
:10107C000123FB6000233B6102237B6107F1080322
:10108C001946124800F0B8FB7F23BB600123FB60BC
:10109C0000233B6102237B6107F1080319460C48CE
:1010AC0000F0AAFB4FF4E043BB600023FB6001237C
:1010BC003B6107F108031946044800F09DFB00BF93
:1010CC001837BD4680BD00BF00100240000801402B
:1010DC00000C014080B582B000AF7860002000F0B9
:1010EC00C3F8012000F0C0F8022000F0BDF8032086
:1010FC0000F0BAF8052000F0B7F8062000F0B4F8BC
:10110C00072000F0B1F8FFF71BF800BF0837BD4609
:10111C0080BD80B400AF72B600BFFEE780B485B06E
:10112C0000AF154B9B69144A43F001039361124BBA
:10113C009B6903F00103BB60BB680F4BDB690E4A74
:10114C0043F08053D3610C4BDB6903F080537B601D
:10115C007B680A4B5B68FB60FB6823F0E063FB6019
:10116C00FB6843F08063FB60044AFB68536000BF7C
:10117C001437BD4680BC704700100240000001408F
:10118C0080B584B000AF78607B681B68B3F1804F8A
:10119C0013D10C4BDB690B4A43F00103D361094BB0
:1011AC00DB6903F00103FB60FB68002200211C20BB
:1011BC0000F0EBFA1C2000F004FB00BF1037BD461A
:1011CC0080BD00BF0010024080B400AFFEE780B4C9
:1011DC0000AFFEE780B400AFFEE780B400AFFEE7DF
:1011EC0080B400AFFEE780B400AF00BFBD4680BC4A
:1011FC00704780B400AF00BFBD4680BC704780B460
:10120C0000AF00BFBD4680BC704780B500AF00F09A
:10121C00C9F900BF80BD000080B500AF024801F0E5
:10122C0025F900BF80BD00BFB001002080B400AF25
:10123C0000BFBD4680BC704780B483B000AF7860FF
:10124C003960074A7B68002142F8231005497B6806
:10125C003A6841F8232000BF0C37BD4680BC70476C
:10126C000C000020F801002080B483B000AF78603F
:10127C000F4A7B6852F82330002B13DD0C4A7B6835
:10128C0052F823305A1E0A497B6841F82320084A39
:10129C007B6852F82330002B04DC064A7B68012162
:1012AC0042F8231000BF0C37BD4680BC704700BF0E
:1012BC00F80100200C00002080B500AF18210020A0
:1012CC00FFF7BAFF64210220FFF7B6FF00BF80BD15
:1012DC0080B582B000AF78607B68023B032B53D89B
:1012EC0001A252F823F000BF0513000835130008C3
:1012FC004F1300087D13000801224021254800F0FF
:10130C000CFC00224FF48071224800F006FC0022F5
:10131C004FF400711F4800F000FC01224FF4806173
:10132C001C4800F0FAFB30E000224FF480611948B1
:10133C0000F0F3FB01224FF40061164800F0EDFBC6
:10134C0023E000224021134800F0E7FB012280211A
:10135C00104800F0E2FB01224FF400710D4800F040
:10136C00DCFB00224FF400610A4800F0D6FB0CE0D5
:10137C0000228021074800F0D0FB01224FF480713D
:10138C00044800F0CAFB00E000BF00BF0837BD46B0
:10139C0080BD00BF0008014080B582B000AF78600E
:1013AC007B680B2B03D07B680C2B0CD023E0012229
:1013BC008021134800F0B1FB01224FF480611048EA
:1013CC0000F0ABFB17E0002280210D4800F0A5FBDC
:1013DC0000224FF480610A4800F09FFB01224FF479
:1013EC008071074800F099FB01224FF4006104481A
:1013FC0000F093FB00BF00BF0837BD4680BD00BFA7
:10140C000008014080B582B000AF78607B68023B79
:10141C00032B54D801A252F823F000BF3914000852
:10142C006914000881140008B1140008012240213D
:10143C00254800F072FB01224FF48061224800F035
:10144C006CFB00224FF480711F4800F066FB0022F9
:10145C004FF400611C4800F060FB31E00122402198
:10146C00194800F05AFB00224FF48071164800F026
:10147C0054FB25E001228021134800F04EFB012291
:10148C004FF40071104800F048FB00224FF48071BB
:10149C000D4800F042FB00224FF400610A4800F0B6
:1014AC003CFB0DE001224FF40071074800F035FBC6
:1014BC0000224FF40061044800F02FFB00E000BF55
:1014CC0000BF0837BD4680BD00080140FFF7AEFEE7
:1014DC000B480C490C4A002302E0D458C450043386
:1014EC00C4188C42F9D3094A094C002301E013605B
:1014FC000432A242FBD301F0F9FAFFF7E5FC704786
:10150C00000000203C000020942B00083C00002030
:10151C0024020020FEE7000080B500AF084B1B68DA
:10152C00074A43F010031360032000F023F90F2047
:10153C0000F008F8FFF7F2FD0023184680BD00BF4D
:10154C000020024080B582B000AF7860124B1A6860
:10155C00124B1B7819464FF47A73B3FBF1F3B2FBC1
:10156C00F3F3184600F03BF90346002B01D001239E
:10157C000EE07B680F2B0AD8002279684FF0FF3001
:10158C0000F003F9064A7B681360002300E0012396
:10159C0018460837BD4680BD0800002038000020E2
:1015AC003400002080B400AF054B1B781A46054B65
:1015BC001B681344034A136000BFBD4680BC7047D0
:1015CC00380000202002002080B400AF024B1B68C2
:1015DC001846BD4680BC70472002002080B485B000
:1015EC0000AF78607B6803F00703FB600C4BDB6893
:1015FC00BB60BA684FF6FF031340BB60FB681A026E
:10160C00BB68134343F0BF6343F40033BB60044A2D
:10161C00BB68D36000BF1437BD4680BC704700BFA9
:10162C0000ED00E080B400AF044BDB681B0A03F054
:10163C0007031846BD4680BC704700BF00ED00E0B4
:10164C0080B483B000AF0346FB7197F90730002BD1
:10165C000BDBFB7903F01F02064997F907305B0996
:10166C00012000FA02F241F8232000BF0C37BD46DE
:10167C0080BC704700E100E080B483B000AF03464B
:10168C003960FB7197F90730002B0ADB3B68DAB243
:10169C000C4997F907301201D2B20B4483F800239E
:1016AC000AE03B68DAB20849FB7903F00F03043B0C
:1016BC001201D2B20B441A7600BF0C37BD4680BC67
:1016CC00704700BF00E100E000ED00E080B489B09D
:1016DC0000AFF860B9607A60FB6803F00703FB6148
:1016EC00FB69C3F10703042B28BF0423BB61FB690F
:1016FC000433062B02D9FB69033B00E000237B611A
:10170C004FF0FF32BB6902FA03F3DA43BB681A40AD
:10171C007B699A404FF0FF317B6901FA03F3D9439F
:10172C007B680B40134318462437BD4680BC70477A
:10173C0080B582B000AF78607B68013BB3F1807FED
:10174C0001D301230FE00A4A7B68013B53600F2150
:10175C004FF0FF30FFF790FF054B00229A60044BCF
:10176C0007221A60002318460837BD4680BD00BF0B
:10177C0010E000E080B582B000AF78607868FFF7C9
:10178C002DFF00BF0837BD4680BD80B586B000AFC9
:10179C000346B9607A60FB7300237B61FFF742FF5D
:1017AC0078617A68B9687869FFF790FF024697F913
:1017BC000F3011461846FFF75FFF00BF1837BD46C4
:1017CC0080BD80B582B000AF0346FB7197F907303E
:1017DC001846FFF735FF00BF0837BD4680BD80B502
:1017EC0082B000AF78607868FFF7A2FF0346184616
:1017FC000837BD4680BD000080B48BB000AF786068
:10180C00396000237B6200233B6248E101227B6A42
:10181C0002FA03F3FB613B681B68FA691340BB6176
:10182C00BA69FB699A4240F037813B685B68A34A0E
:10183C0093425ED0A14A934275D8A14A934258D0A4
:10184C009F4A93426FD89F4A934252D09D4A9342EB
:10185C0069D89D4A93424CD09B4A934263D89B4A89
:10186C00934246D0994A93425DD8122B2AD8122B18
:10187C0059D801A252F823F0FF180008D918000813
:10188C00EB1800082D19000833190008331900084B
:10189C0033190008331900083319000833190008EC
:1018AC0033190008331900083319000833190008DC
:1018BC00331900083319000833190008E11800081F
:1018CC00F5180008824A934213D02CE03B68DB6881
:1018DC003B6229E03B68DB6804333B6224E03B68F5
:1018EC00DB6808333B621FE03B68DB680C333B6210
:1018FC001AE03B689B68002B02D104233B6213E087
:10190C003B689B68012B05D108233B627B68FA6915
:10191C001A6109E008233B627B68FA695A6103E0AB
:10192C0000233B6200E000BFBB69FF2B01D87B6842
:10193C0001E07B6804337B61BB69FF2B02D87B6AB7
:10194C009B0002E07B6A083B9B003B617B691A6849
:10195C000F213B6901FA03F3DB431A40396A3B69F7
:10196C0001FA03F31A437B691A603B685B6803F066
:10197C008053002B00F09080564B9B69554A43F0E6
:10198C0001039361534B9B6903F00103BB60BB687C
:10199C00514A7B6A9B08023352F82330FB607B6A06
:1019AC0003F003039B000F2202FA03F3DB43FA68F4
:1019BC001340FB607B68494A93420DD07B68484AD0
:1019CC00934207D07B68474A934201D1022304E03B
:1019DC00032302E0012300E000237A6A02F00302F1
:1019EC0092009340FA681343FB603B497B6A9B0867
:1019FC000233FA6841F823203B685B6803F48013D8
:101A0C00002B06D0384B9A683749BB6913438B605F
:101A1C0006E0354B9A68BB69DB43334913408B6056
:101A2C003B685B6803F40013002B06D02E4BDA687E
:101A3C002D49BB691343CB6006E02B4BDA68BB69BD
:101A4C00DB4329491340CB603B685B6803F40033EC
:101A5C00002B06D0244B5A682349BB6913434B60B7
:101A6C0006E0214B5A68BB69DB431F4913404B60AE
:101A7C003B685B6803F48033002B06D01A4B1A6862
:101A8C001949BB6913430B6006E0174B1A68BB6915
:101A9C00DB43154913400B607B6A01337B623B6867
:101AAC001A687B6A22FA03F3002B7FF4AFAE00BFF7
:101ABC0000BF2C37BD4680BC704700BF0000321001
:101ACC000000311000002210000021100000121044
:101ADC0000001110001002400000014000080140FD
:101AEC00000C0140001001400004014080B485B09E
:101AFC0000AF78600B467B807B689A687B881340CC
:101B0C00002B02D00123FB7301E00023FB73FB7B52
:101B1C0018461437BD4680BC704780B483B000AF04
:101B2C0078600B467B8013467B707B78002B03D050
:101B3C007A887B681A6103E07B881A047B681A61D7
:101B4C0000BF0C37BD4680BC704780B485B000AF79
:101B5C0078600B467B807B68DB68FB607A88FB686F
:101B6C0013401A04FB68D9437B880B401A437B68EB
:101B7C001A6100BF1437BD4680BC704780B586B073
:101B8C0000AF78607B68002B01D101236CE27B688D
:101B9C001B6803F00103002B00F08780924B5B68FD
:101BAC0003F00C03042B0CD08F4B5B6803F00C037D
:101BBC00082B12D18C4B5B6803F48033B3F5803F58
:101BCC000BD1894B1B6803F40033002B6CD07B6862
:101BDC005B68002B68D1012346E27B685B68B3F538
:101BEC00803F06D1804B1B687F4A43F480331360DF
:101BFC002EE07B685B68002B0CD17B4B1B687A4A10
:101C0C0023F480331360784B1B68774A23F48023CA
:101C1C0013601DE07B685B68B3F5A02F0CD1724B91
:101C2C001B68714A43F4802313606F4B1B686E4A28
:101C3C0043F4803313600BE06B4B1B686A4A23F44C
:101C4C0080331360684B1B68674A23F4802313604E
:101C5C007B685B68002B13D0FFF7B6FC386108E09B
:101C6C00FFF7B2FC02463B69D31A642B01D903235C
:101C7C00FAE15D4B1B6803F40033002BF0D014E049
:101C8C00FFF7A2FC386108E0FFF79EFC02463B69B7
:101C9C00D31A642B01D90323E6E1534B1B6803F4DD
:101CAC000033002BF0D100E000BF7B681B6803F011
:101CBC000203002B63D04C4B5B6803F00C03002B2E
:101CCC000BD0494B5B6803F00C03082B1CD1464B23
:101CDC005B6803F48033002B16D1434B1B6803F075
:101CEC000203002B05D07B681B69012B01D001235B
:101CFC00BAE13D4B1B6823F0F8027B685B69DB00A3
:101D0C00394913430B603AE07B681B69002B20D0E8
:101D1C00364B01221A60FFF757FC386108E0FFF7D9
:101D2C0053FC02463B69D31A022B01D903239BE1D6
:101D3C002D4B1B6803F00203002BF0D02A4B1B68C1
:101D4C0023F0F8027B685B69DB00274913430B60C7
:101D5C0015E0264B00221A60FFF736FC386108E0CC
:101D6C00FFF732FC02463B69D31A022B01D903233D
:101D7C007AE11D4B1B6803F00203002BF0D17B684A
:101D8C001B6803F00803002B3AD07B689B69002B7F
:101D9C0019D0174B01221A60FFF716FC386108E0C6
:101DAC00FFF712FC02463B69D31A022B01D903231D
:101DBC005AE10D4B5B6A03F00203002BF0D00120BB
:101DCC0000F09AFA1CE00A4B00221A60FFF7FCFBA9
:101DDC0038610FE0FFF7F8FB02463B69D31A022B80
:101DEC0008D9032340E100BF00100240000042422A
:101DFC00800442429E4B5B6A03F00203002BE9D144
:101E0C007B681B6803F00403002B00F0A680002302
:101E1C00FB75974BDB6903F08053002B0DD1944B72
:101E2C00DB69934A43F08053D361914BDB6903F038
:101E3C008053BB60BB680123FB758E4B1B6803F49E
:101E4C008073002B18D18B4B1B688A4A43F4807328
:101E5C001360FFF7B9FB386108E0FFF7B5FB0246EA
:101E6C003B69D31A642B01D90323FDE0814B1B681A
:101E7C0003F48073002BF0D07B68DB68012B06D158
:101E8C007B4B1B6A7A4A43F0010313622DE07B689B
:101E9C00DB68002B0CD1764B1B6A754A23F00103CF
:101EAC001362734B1B6A724A23F0040313621CE027
:101EBC007B68DB68052B0CD16D4B1B6A6C4A43F0BD
:101ECC00040313626A4B1B6A694A43F001031362F1
:101EDC000BE0674B1B6A664A23F001031362644BE9
:101EEC001B6A634A23F0040313627B68DB68002BD4
:101EFC0015D0FFF769FB38610AE0FFF765FB024676
:101F0C003B69D31A41F28832934201D90323ABE0E7
:101F1C00574B1B6A03F00203002BEED014E0FFF7C3
:101F2C0053FB38610AE0FFF74FFB02463B69D31ABB
:101F3C0041F28832934201D9032395E04C4B1B6A42
:101F4C0003F00203002BEED1FB7D012B05D1484B96
:101F5C00DB69474A23F08053D3617B68DB69002B34
:101F6C0000F08180424B5B6803F00C03082B61D0BE
:101F7C007B68DB69022B46D13F4B00221A60FFF7CE
:101F8C0023FB386108E0FFF71FFB02463B69D31ABD
:101F9C00022B01D9032367E0354B1B6803F0007358
:101FAC00002BF0D17B681B6AB3F5803F08D1304B16
:101FBC005B6823F400327B689B682D4913434B60AC
:101FCC002B4B5B6823F474127B68196A7B685B6A21
:101FDC000B43274913434B60274B01221A60FFF731
:101FEC00F3FA386108E0FFF7EFFA02463B69D31ABF
:101FFC00022B01D9032337E01D4B1B6803F0007340
:10200C00002BF0D02FE01C4B00221A60FFF7DCFAFB
:10201C00386108E0FFF7D8FA02463B69D31A022B65
:10202C0001D9032320E0124B1B6803F00073002B33
:10203C00F0D118E07B68DB69012B01D1012313E09F
:10204C000B4B5B68FB60FB6803F480327B681B6A9C
:10205C009A4206D1FB6803F470127B685B6A9A4261
:10206C0001D0012300E0002318461837BD4680BD7F
:10207C0000100240007000406000424280B584B005
:10208C0000AF786039607B68002B01D10123D0E070
:10209C006A4B1B6803F007033A689A4210D9674BE6
:1020AC001B6823F0070265493B6813430B60634BC5
:1020BC001B6803F007033A689A4201D00123B8E089
:1020CC007B681B6803F00203002B20D07B681B6825
:1020DC0003F00403002B05D0594B5B68584A43F4BA
:1020EC00E06353607B681B6803F00803002B05D08A
:1020FC00534B5B68524A43F460535360504B5B68DC
:10210C0023F0F0027B689B684D4913434B607B685E
:10211C001B6803F00103002B40D07B685B68012B2C
:10212C0007D1474B1B6803F40033002B15D1012357
:10213C007FE07B685B68022B07D1414B1B6803F087
:10214C000073002B09D1012373E03D4B1B6803F096
:10215C000203002B01D101236BE0394B5B6823F0A8
:10216C0003027B685B68364913434B60FFF72CFA1C
:10217C00F8600AE0FFF728FA0246FB68D31A41F22E
:10218C008832934201D9032353E02D4B5B6803F053
:10219C000C027B685B689B009A42EBD1274B1B6857
:1021AC0003F007033A689A4210D2244B1B6823F0C1
:1021BC00070222493B6813430B60204B1B6803F05A
:1021CC0007033A689A4201D0012332E07B681B680E
:1021DC0003F00403002B08D0194B5B6823F4E06276
:1021EC007B68DB68164913434B607B681B6803F004
:1021FC000803002B09D0124B5B6823F460527B68F8
:10220C001B69DB000E4913434B6000F021F80246BA
:10221C000B4B5B681B0903F00F030A49CB5C22FADA
:10222C0003F3094A1360094B1B681846FFF78AF938
:10223C00002318461037BD4680BD00BF0020024069
:10224C0000100240682B0008080000203400002019
:10225C0080B487B000AF0023FB600023BB60002379
:10226C007B6100237B6000233B611E4B5B68FB6042
:10227C00FB6803F00C03042B02D0082B03D027E0DF
:10228C00194B3B6127E0FB689B0C03F00F03174ACB
:10229C00D35C7B60FB6803F48033002B10D0114BB4
:1022AC005B685B0C03F00103114AD35CBB607B6879
:1022BC000D4A02FB03F2BB68B2FBF3F37B6104E053
:1022CC007B680C4A02FB03F37B617B693B6102E098
:1022DC00054B3B6100BF3B6918461C37BD4680BCB3
:1022EC00704700BF0010024000127A00782B0008E3
:1022FC00882B000800093D0080B485B000AF7860E1
:10230C000A4B1B680A4AA2FB03235B0A7A6802FB8E
:10231C0003F3FB6000BFFB685A1EFA60002BF9D177
:10232C0000BF00BF1437BD4680BC704708000020BA
:10233C00D34D621080B582B000AF78607B68002B03
:10234C0001D1012341E07B6893F83D30DBB2002BD7
:10235C0006D17B68002283F83C207868FEF710FFDA
:10236C007B68022283F83D207B681A687B68043303
:10237C001946104600F056FA7B68012283F8462075
:10238C007B68012283F83E207B68012283F83F2082
:10239C007B68012283F840207B68012283F841206E
:1023AC007B68012283F842207B68012283F843205A
:1023BC007B68012283F844207B68012283F8452046
:1023CC007B68012283F83D20002318460837BD4660
:1023DC0080BD000080B485B000AF78607B6893F856
:1023EC003D30DBB2012B01D0012335E07B680222AA
:1023FC0083F83D207B681B68DA687B681B6842F0B9
:10240C000102DA607B681B68164A934209D07B682C
:10241C001B68B3F1804F04D07B681B68124A93424F
:10242C0011D17B681B689B6803F00703FB60FB689A
:10243C00062B10D07B681B681A687B681B6842F0FF
:10244C0001021A6007E07B681B681A687B681B68CE
:10245C0042F001021A60002318461437BD4680BCB6
:10246C00704700BF002C01400004004080B584B0D0
:10247C0000AF78607B681B68DB68FB607B681B685F
:10248C001B69BB60BB6803F00203002B20D0FB6808
:10249C0003F00203002B1BD07B681B686FF0020259
:1024AC001A617B6801221A777B681B689B6903F0B1
:1024BC000303002B03D0786800F098F905E07868E6
:1024CC0000F08BF9786800F09AF97B6800221A7793
:1024DC00BB6803F00403002B20D0FB6803F004035B
:1024EC00002B1BD07B681B686FF004021A617B68A1
:1024FC0002221A777B681B689B6903F44073002BDC
:10250C0003D0786800F072F905E0786800F065F99E
:10251C00786800F074F97B6800221A77BB6803F0C6
:10252C000803002B20D0FB6803F00803002B1BD002
:10253C007B681B686FF008021A617B6804221A77AB
:10254C007B681B68DB6903F00303002B03D07868FE
:10255C0000F04CF905E0786800F03FF9786800F07D
:10256C004EF97B6800221A77BB6803F01003002B2E
:10257C0020D0FB6803F01003002B1BD07B681B687A
:10258C006FF010021A617B6808221A777B681B684F
:10259C00DB6903F44073002B03D0786800F026F954
:1025AC0005E0786800F019F9786800F028F97B6884
:1025BC0000221A77BB6803F00103002B0CD0FB68D8
:1025CC0003F00103002B07D07B681B686FF001023E
:1025DC001A617868FEF77EFDBB6803F08003002B60
:1025EC000CD0FB6803F08003002B07D07B681B68C2
:1025FC006FF080021A61786800F06FFABB6803F024
:10260C004003002B0CD0FB6803F04003002B07D0D9
:10261C007B681B686FF040021A61786800F0F8F86C
:10262C00BB6803F02003002B0CD0FB6803F02003E5
:10263C00002B07D07B681B686FF020021A6178684A
:10264C0000F042FA00BF1037BD4680BD80B584B0A3
:10265C0000AF786039600023FB737B6893F83C30E3
:10266C00012B01D10223B4E07B68012283F83C20CA
:10267C007B68022283F83D207B681B689B68BB60EB
:10268C00BB6823F07703BB60BB6823F47F43BB605C
:10269C007B681B68BA689A603B681B68B3F5005F7F
:1026AC003ED0B3F5005F00F28780B3F5805F00F099
:1026BC008680B3F5805F7FD8702B1AD0702B7BD8B7
:1026CC00602B50D0602B77D8502B3CD0502B73D82C
:1026DC00402B58D0402B6FD8302B64D0302B6BD87C
:1026EC00202B60D0202B67D8002B5CD0102B5AD01D
:1026FC0062E07B6818683B6899683B685A683B687D
:10270C00DB6800F06AF97B681B689B68BB60BB6880
:10271C0043F07703BB607B681B68BA689A604FE034
:10272C007B6818683B6899683B685A683B68DB684B
:10273C0000F053F97B681B689A687B681B6842F44D
:10274C0080429A603CE07B6818683B6859683B683B
:10275C00DB681A4600F0CAF87B681B6850211846E3
:10276C0000F021F92CE07B6818683B6859683B68DD
:10277C00DB681A4600F0E8F87B681B686021184695
:10278C0000F011F91CE07B6818683B6859683B68DD
:10279C00DB681A4600F0AAF87B681B6840211846D3
:1027AC0000F001F90CE07B681A683B681B6819465D
:1027BC00104600F0F8F803E00123FB7300E000BFC3
:1027CC007B68012283F83D207B68002283F83C2043
:1027DC00FB7B18461037BD4680BD80B483B000AF7C
:1027EC00786000BF0C37BD4680BC704780B483B0A6
:1027FC0000AF786000BF0C37BD4680BC704780B41A
:10280C0083B000AF786000BF0C37BD4680BC70470A
:10281C0080B483B000AF786000BF0C37BD4680BC7D
:10282C007047000080B485B000AF786039607B6879
:10283C001B68FB607B682B4A934207D07B68B3F123
:10284C00804F03D07B68284A934208D1FB6823F061
:10285C007003FB603B685B68FA681343FB607B6842
:10286C00204A934207D07B68B3F1804F03D07B683A
:10287C001D4A934208D1FB6823F44073FB603B680C
:10288C00DB68FA681343FB60FB6823F080023B684B
:10289C005B691343FB607B68FA681A603B689A6853
:1028AC007B68DA623B681A687B689A627B680D4ABF
:1028BC00934203D13B681A697B681A637B680122D7
:1028CC005A617B681B6903F00103002B05D07B6800
:1028DC001B6923F001027B681A6100BF1437BD46E7
:1028EC0080BC7047002C01400004004080B487B0CD
:1028FC0000AFF860B9607A60FB681B6A7B61FB68AB
:10290C001B6A23F00102FB681A62FB689B693B613E
:10291C003B6923F0F0033B617B681B013A6913436D
:10292C003B617B6923F00A037B617A69BB681343C3
:10293C007B61FB683A699A61FB687A691A6200BF2D
:10294C001C37BD4680BC704780B487B000AFF860C0
:10295C00B9607A60FB681B6A7B61FB681B6A23F0B9
:10296C001002FB681A62FB689B693B613B6923F4AC
:10297C0070433B617B681B033A6913433B617B6982
:10298C0023F0A0037B61BB681B017A6913437B6155
:10299C00FB683A699A61FB687A691A6200BF1C3756
:1029AC00BD4680BC704780B485B000AF786039609C
:1029BC007B689B68FB60FB6823F07003FB603A68E4
:1029CC00FB68134343F00703FB607B68FA689A606B
:1029DC0000BF1437BD4680BC704780B487B000AFD1
:1029EC00F860B9607A603B60FB689B687B617B69CF
:1029FC0023F47F437B613B681A027B681A43BB68F4
:102A0C0013437A6913437B61FB687A699A6000BF50
:102A1C001C37BD4680BC704780B485B000AF786071
:102A2C0039607B6893F83C30012B01D1022341E0E3
:102A3C007B68012283F83C207B68022283F83D20CE
:102A4C007B681B685B68FB607B681B689B68BB6072
:102A5C00FB6823F07003FB603B681B68FA68134348
:102A6C00FB607B681B68FA685A607B681B68144AB9
:102A7C00934209D07B681B68B3F1804F04D07B680C
:102A8C001B68104A93420CD1BB6823F08003BB60D7
:102A9C003B685B68BA681343BB607B681B68BA68A9
:102AAC009A607B68012283F83D207B68002283F8C2
:102ABC003C20002318461437BD4680BC704700BF2D
:102ACC00002C01400004004080B483B000AF78605B
:102ADC0000BF0C37BD4680BC704780B483B000AFDC
:102AEC00786000BF0C37BD4680BC704770B50026BF
:102AFC000C4D0D4C641BA410A64209D100F022F819
:102B0C0000260A4D0A4C641BA410A64205D170BDC8
:102B1C0055F8043B98470136EEE755F8043B9847C7
:102B2C000136F2E78C2B00088C2B00088C2B00084C
:102B3C00902B000803460244934200D1704703F8DF
:102B4C00011BF9E7F8B500BFF8BC08BC9E467047FE
:0C2B5C00F8B500BFF8BC08BC9E467047EE
:102B68000000000000000000010203040607080935
:102B780002030405060708090A0B0C0D0E0F1010B6
:042B88000102000046
:042B8C00310100080B
:042B90000D0100082B
:102B9400010000000100000000127A0000000000A3
:102BA4000000000000000000000000000000000021
:102BB400010000000100000001000000000000000E
:0C2BC400000000001000000001000000F4
:04000005080014D902
:00000001FF
