:020000040800F2
:1000000000280020B5150008B1120008B71200083A
:10001000BD120008C3120008C91200080000000049
:10002000000000000000000000000000CF120008E7
:10003000DB12000800000000E7120008F3120008BD
:10004000FD150008FD150008FD150008FD15000848
:10005000FD150008FD150008FD150008FD15000838
:10006000FD150008FD150008FD150008FD15000828
:10007000FD150008FD150008FD150008FD15000818
:10008000FD150008FD150008FD150008FD15000808
:10009000FD150008FD150008FD150008FD150008F8
:1000A000FD150008FD150008FD150008FD150008E8
:1000B00001130008FD15000800000000FD150008F0
:1000C000FD1500080000000000000000FD150008FC
:1000D00000000000FD150008FD15000800000000EC
:1000E000FD150008FD150008FD15000800000000C2
:1000F0000000000000000000000000000000000000
:0C01000000000000000000005FF808F1A3
:10010C0010B5054C237833B9044B13B10448AFF345
:10011C0000800123237010BD3C0000200000000073
:10012C002C2C000808B5034B1BB103490348AFF353
:10013C00008008BD00000000400000202C2C0008AE
:10014C0080B500AF234B5B69012B12D14FF480516A
:10015C00214801F039FD0346002B0AD11F4B012227
:10016C001A6020211C4801F05EFD3221052001F0AF
:10017C00D1F8184B9B69012B12D14FF40051164842
:10018C0001F022FD0346002B0AD1144B01225A60C8
:10019C002021114801F047FD3221062001F0BAF868
:1001AC000C4BDB69012B12D14FF480410A4801F052
:1001BC000BFD0346002B0AD1084B01229A6020212B
:1001CC00054801F030FD3221072001F0A3F800BFF3
:1001DC0080BD00BF0C000020000801400001002081
:1001EC0080B483B000AF7860094A7B6852F8233042
:1001FC00012B06D1064A7B68002142F8231001230B
:10020C0000E0002318460C37BD4680BC704700BF89
:10021C000001002080B500AF814B1B68013B042B13
:10022C0000F2F68101A252F823F000BF4D02000843
:10023C00BB0200086D03000845040008F504000823
:10024C0000F012FC00F052FC764BC8221A60754B81
:10025C00C8225A60734B4FF496729A60704B02220C
:10026C001A60022001F0A2F81821002001F052F8C7
:10027C006C4B5B681946012001F04CF8642102209C
:10028C0001F048F800F0D4F9674BDB68013B664A93
:10029C00D360654BDA68644B5B68013B62494B6029
:1002AC00614B5B681946104600F04AFC88E15F4BD5
:1002BC009B68012B1CD15C4BDB68013B5A4AD36019
:1002CC00594BDA68584B5B68013B57494B60564BAE
:1002DC005B681946104600F033FC6421022001F0E3
:1002EC0019F81821002001F015F8514B00221A6062
:1002FC004E4B5B68012B19D1494B1B684D4A13605F
:10030C00484B9B681946012001F004F8444B03222A
:10031C001A60454BDA68444B9B68013B42498B6041
:10032C00414B9B681946104600F00AFC022001F074
:10033C003DF80020FFF754FF0346002B00F03981F5
:10034C00374B1B683B4A136000F072F9344B202288
:10035C001A60344B1B681946012000F0DBFF28E1C2
:10036C00324B9B68012B1CD12F4BDB68013B2E4A77
:10037C00D3602D4BDA682C4B9B68013B2A498B6070
:10038C00294B9B681946104600F0DAFB64210220C9
:10039C0000F0C0FF1821002000F0BCFF244B00220D
:1003AC001A60224B5B68012B20D11D4B1B68214A24
:1003BC0013601B4B04221A601A4B5B681946012010
:1003CC0000F0A8FF00F034F9174B5B68013B164AAC
:1003DC005360154B5A68144BDB68013B1249CB60D8
:1003EC00114BDB681946104600F0AAFB032000F005
:1003FC00DDFF0020FFF7F4FE0346002B00F0DB804E
:10040C00074B1B680B4A136000F012F9044B2122B6
:10041C001A60044B1B681946012000F07BFFCAE0F0
:10042C000000002050010020780100200C0000206A
:10043C005800002004000020764B9B68012B1CD137
:10044C00754B5B68013B744A5360734B5A68724B33
:10045C00DB68013B7049CB606F4BDB68194610467B
:10046C0000F06EFB6421022000F054FF18210020E4
:10047C0000F050FF694B00221A60664B5B68012B41
:10048C0019D1674B1B68674A1360654B05221A60CC
:10049C00614B9B68013B604A93605F4B9B685E4A73
:1004AC00D2681146184600F04BFB5F4B9B6819460F
:1004BC00012000F02FFF042000F078FF0020FFF750
:1004CC008FFE0346002B78D0554B1B68554A1360A2
:1004DC0000F0AEF8524B22221A60534B1B6819469F
:1004EC00012000F017FF68E04A4B9B68012B1CD1E0
:1004FC00494B9B68013B484A9360474B9A68464B73
:10050C00DB68013B4449CB60434BDB681946104622
:10051C0000F016FB6421022000F0FCFE18210020E4
:10052C0000F0F8FE3D4B00221A603A4B5B68012B41
:10053C0023D13B4B1B683B4A1360394B02221A6098
:10054C00394B5B681946012000F0E4FE00F070F8AE
:10055C00314BDB68013B304AD3602F4BDA682E4BB2
:10056C005B68013B2C494B602B4B5B681946104672
:10057C0000F0E6FA022000F019FF052000F016FF4B
:10058C000020FFF72DFE0346002B18D0244B1B68D0
:10059C00244A136000F04CF8214B23221A60224BA2
:1005AC001B681946012000F0B5FE204B00221A6092
:1005BC0005E000BF04E000BF02E000BF00E000BFA8
:1005CC000220FFF70DFE0346002B10D0144B1B68C6
:1005DC00144A136000F02CF800F046FA00F086FA8A
:1005EC000F4B0B221A60114B00229A6011E0094B41
:1005FC001B68012B0DD1094B1B685A1C07490A605B
:10060C00184600F0D9FA1821002000F083FE00E013
:10061C0000BF80BD0C000020780100205800002095
:10062C0000000020040000205001002000010020E8
:10063C0080B400AF0F4B5B680F4A82FB0312521160
:10064C00DB17D31A0D4A53600A4B9B680A4A82FB8C
:10065C0003125211DB17D31A084A9360074B5A68DE
:10066C00064B9B681344054AD36000BFBD4680BC53
:10067C00704700BF500100201F85EB51780100200E
:10068C0080B500AF664B1B68203B032B00F2C68085
:10069C0001A252F823F000BFB506000809070008B4
:1006AC005B070008AD0700085E4B5B68012B0DD1A2
:1006BC005B4B1B685C4A1360594B02221A605B4B04
:1006CC005B681946012000F025FEA8E00120FFF729
:1006DC0087FD0346002B00F08C80032000F066FEA3
:1006EC004F4B1B68504A13604D4B21221A604F4BE5
:1006FC001B681946012000F00DFE7AE0494B5B683F
:10070C00012B0DD1464B1B68474A1360444B032207
:10071C001A60464B9B681946012000F0FBFD7EE0F9
:10072C000120FFF75DFD0346002B64D0042000F090
:10073C003DFE3B4B1B683C4A1360394B22221A602E
:10074C003A4B1B681946012000F0E4FD53E0354B91
:10075C005B68012B0DD1324B1B68334A1360304B55
:10076C0004221A60314B5B681946012000F0D2FD5F
:10077C0055E00120FFF734FD0346002B3DD005204A
:10078C0000F014FE264B1B68274A1360244B2322CF
:10079C001A60264B1B681946012000F0BBFD2CE0AB
:1007AC00204B5B68012B0DD11D4B1B681E4A13603F
:1007BC001B4B05221A601D4B9B681946012000F04B
:1007CC00A9FD2CE00120FFF70BFD0346002B16D0F2
:1007DC00022000F0EBFD124B1B68134A1360104B08
:1007EC0020221A60114B1B681946012000F092FD63
:1007FC0005E000BF04E000BF02E000BF00E000BF66
:10080C000220FFF7EDFC0346002B08D0044B1B68BD
:10081C00054A1360024B0D221A6000E000BF80BD38
:10082C00000000200C0000200400002050010020DB
:10083C0080B500AF854B1B680D2B00F0A1800D2BF4
:10084C0000F302810B2B02D00C2B40D0FCE00B20D0
:10085C0000F010FE0120FFF7C3FC0346002B11D063
:10086C007B4B1B6801337A4A1360794B1B68622BF4
:10087C0002DD774B00221A60754B1B68194600206D
:10088C0000F05EF90020FFF7ABFC0346002B13D001
:10089C006E4B0C221A606E4B1B68642202FB03F336
:1008AC006C4A53606A4B00221A606A4B5B68002BDF
:1008BC0002D1684BC8225A600220FFF791FC034614
:1008CC00002B00F09680624B00221A6091E00C2005
:1008DC0000F0D0FD0120FFF783FC0346002B1BD05A
:1008EC005B4B1B6801335A4A13605A4B5B685A4A7C
:1008FC0082FB03125211DB179B1A03F16302544B58
:10090C001B689A4202DA524B00221A60504B1B6849
:10091C001946002000F014F90020FFF761FC034693
:10092C00002B23D04D4B1B68484A1360474B1B6868
:10093C00184600F0D5FD464B1B68642202FB03F3FE
:10094C00444A9360424B00221A60424B9B68002B36
:10095C0002DC404BC8229A60FFF76AFE1921002086
:10096C0000F0D8FC6421022000F0D4FC0220FFF738
:10097C0037FC0346002B3ED0354B00221A603AE080
:10098C000120FFF72DFC0346002B0BD0304B1B68CE
:10099C0001332F4A13602E4B1B68632B02DD2C4B4B
:1009AC0000221A600020FFF71BFC0346002B16D018
:1009BC002A4B1B68254A1360254B1B68642202FBDB
:1009CC0003F3244A5360224B00221A60214B1B680C
:1009DC00002B02D11F4BC8221A60FFF729FE022000
:1009EC00FFF7FEFB0346002B07D0194B00221A60C1
:1009FC0003E000BF02E000BF00E000BF184B9B68A3
:100A0C00012B10D1124B1B681946002000F098F8EE
:100A1C006421022000F07EFC1821002000F07AFCFA
:100A2C00104B00221A600E4B1B68012B0DD10D4B85
:100A3C001B685A1C0B490A60184600F0BDF81821B7
:100A4C00002000F067FC00E000BF80BD000000202B
:100A5C005C000020500100201F85EB510400002099
:100A6C000C0000205800002080B500AF00220221AD
:100A7C001D4801F0C0F8002204211B4801F0BBF80E
:100A8C0000220821184801F0B6F80022102116485F
:100A9C0001F0B1F800222021134801F0ACF800223B
:100AAC004021114801F0A7F8002280210E4801F0E6
:100ABC00A2F800224FF480710B4801F09CF8002240
:100ACC004FF40071084801F096F800224FF4806151
:100ADC00054801F090F800224FF40061024801F043
:100AEC008AF800BF80BD00BF0008014080B500AF90
:100AFC0000220121114801F07EF8002202210F484A
:100B0C0001F079F8002204210C4801F074F800225D
:100B1C0008210A4801F06FF800221021074801F063
:100B2C006AF800222021054801F065F800224021D6
:100B3C00024801F060F800BF80BD00BF000C01400E
:100B4C0080B483B000AF786039603968184B83FB90
:100B5C0001239A10CB17D21A13469B0013445B0047
:100B6C00CA1A144BDA603B68114A82FB03129210CA
:100B7C00DB17D31A0F4A936079680D4B83FB012363
:100B8C009A10CB17D21A13469B0013445B00CA1A57
:100B9C00084B5A607B68064A82FB03129210DB17E3
:100BAC00D31A044A136000BF0C37BD4680BC704793
:100BBC0067666666A001002080B582B000AF7860E1
:100BCC00012202212B4801F016F8012204212948A8
:100BDC0001F011F801220821264801F00CF801223D
:100BEC001021244801F007F87B68032B3ED801A2A2
:100BFC0052F823F0110C00082B0C0008450C0008CF
:100C0C005F0C0008002202211A4800F0F4FF1A4A77
:100C1C007B6852F82330184600F030F826E00022AA
:100C2C000421144800F0E7FF134A7B6852F8233084
:100C3C00184600F023F819E0002208210D4800F0B6
:100C4C00DAFF0D4A7B6852F82330184600F016F88C
:100C5C000CE000221021074800F0CDFF064A7B680B
:100C6C0052F82330184600F009F800BF00BF0837CF
:100C7C00BD4680BD00080140A001002080B582B0B7
:100C8C0000AF78607B68092B00F2808101A252F8DA
:100C9C0023F000BFC90C0008110D0008590D000805
:100CAC00A10D0008E90D0008310E0008790E0008AE
:100CBC00C10E0008090F0008510F00080022012185
:100CCC00B54800F098FF00220221B34800F093FFD2
:100CDC0000220421B04800F08EFF00220821AE480B
:100CEC0000F089FF00221021AB4800F084FF0022A5
:100CFC002021A94800F07FFF01224021A64800F0E6
:100D0C007AFF44E101220121A34800F074FF002284
:100D1C000221A14800F06FFF002204219E4800F040
:100D2C006AFF012208219C4800F065FF0122102176
:100D3C00994800F060FF01222021974800F05BFFEA
:100D4C0001224021944800F056FF20E100220121AD
:100D5C00914800F050FF002202218F4800F04BFF19
:100D6C00012204218C4800F046FF002208218A4809
:100D7C0000F041FF00221021874800F03CFF0122C7
:100D8C002021854800F037FF00224021824800F0E6
:100D9C0032FFFCE0002201217F4800F02CFF0022F2
:100DAC0002217D4800F027FF002204217A4800F040
:100DBC0022FF00220821784800F01DFF012210219B
:100DCC00754800F018FF01222021734800F013FF32
:100DDC0000224021704800F00EFFD8E001220121D2
:100DEC006D4800F008FF002202216B4800F003FF61
:100DFC0000220421684800F0FEFE0122082166480A
:100E0C0000F0F9FE01221021634800F0F4FE0022EC
:100E1C002021614800F0EFFE002240215E4800F0E6
:100E2C00EAFEB4E0002201215B4800F0E4FE01225E
:100E3C000221594800F0DFFE00220421564800F040
:100E4C00DAFE00220821544800F0D5FE01221021C0
:100E5C00514800F0D0FE002220214F4800F0CBFE7C
:100E6C00002240214C4800F0C6FE90E000220121F7
:100E7C00494800F0C0FE01220221474800F0BBFEA9
:100E8C0000220421444800F0B6FE0022082142480A
:100E9C0000F0B1FE002210213F4800F0ACFE002211
:100EAC0020213D4800F0A7FE002240213A4800F0E6
:100EBC00A2FE6CE000220121374800F09CFE0022CB
:100ECC000221354800F097FE00220421324800F040
:100EDC0092FE01220821304800F08DFE01221021E3
:100EEC002D4800F088FE012220212B4800F083FEC3
:100EFC0001224021284800F07EFE48E0002201211A
:100F0C00254800F078FE00220221234800F073FEF1
:100F1C0000220421204800F06EFE002208211E4809
:100F2C0000F069FE002210211B4800F064FE002234
:100F3C002021194800F05FFE00224021164800F0E5
:100F4C005AFE24E000220121134800F054FE002236
:100F5C000221114800F04FFE002204210E4800F03F
:100F6C004AFE002208210C4800F045FE0122102107
:100F7C00094800F040FE00222021074800F03BFE0B
:100F8C0000224021044800F036FE00E000BF00BF04
:100F9C000837BD4680BD00BF000C014080B500AFD6
:100FAC0000F028FB00F0F6F9FFF7CAFD00F016F888
:100FBC0000F09CF800F04EF8064801F079FA064B68
:100FCC0001221A60FFF726F9FFF75AFBFFF730FCF6
:100FDC00F8E700BFB00100200000002080B590B001
:100FEC0000AF07F1180328220021184601F010FE6B
:100FFC003B1D00221A605A609A60DA601A61022363
:10100C00BB610123BB621023FB6200237B6307F1EE
:10101C001803184600F020FE0346002B01D000F008
:10102C00E6F80F237B600023BB600023FB600023EA
:10103C003B6100237B613B1D0021184601F08CF8BD
:10104C000346002B01D000F0D2F800BF4037BD465C
:10105C0080BD000080B586B000AF07F10803002208
:10106C001A605A609A60DA603B4600221A605A6035
:10107C001D4B4FF080421A601B4B41F63F725A6079
:10108C00194B00229A60184B0922DA60164B002289
:10109C001A61154B00229A61134801F0B9F9034605
:1010AC00002B01D000F0A3F84FF48053BB6007F184
:1010BC00080319460C4801F037FB0346002B01D0FE
:1010CC0000F095F800233B6000237B603B461946FB
:1010DC00054801F00FFD0346002B01D000F087F806
:1010EC0000BF1837BD4680BDB001002080B586B06A
:1010FC0000AF07F1080300221A605A609A60DA60A8
:10110C00284B9B69274A43F004039361254B9B6949
:10111C0003F004037B607B68224B9B69214A43F0FC
:10112C00080393611F4B9B6903F008033B603B680A
:10113C00002240F6FE711C4800F05DFD00227F216C
:10114C001A4800F058FD40F6FE73BB600123FB60AB
:10115C0000233B6102237B6107F108031946124807
:10116C0000F0B8FB7F23BB600123FB6000233B61D5
:10117C0002237B6107F1080319460C4800F0AAFB17
:10118C004FF4E043BB600023FB6001233B6107F19C
:10119C0008031946044800F09DFB00BF1837BD46F4
:1011AC0080BD00BF0010024000080140000C01404F
:1011BC0080B582B000AF7860002000F0C3F8012049
:1011CC0000F0C0F8022000F0BDF8032000F0BAF8DF
:1011DC00052000F0B7F8062000F0B4F8072000F066
:1011EC00B1F8FEF7ADFF00BF0837BD4680BD80B437
:1011FC0000AF72B600BFFEE780B485B000AF154BF0
:10120C009B69144A43F001039361124B9B6903F0F1
:10121C000103BB60BB680F4BDB690E4A43F0805384
:10122C00D3610C4BDB6903F080537B607B680A4B0A
:10123C005B68FB60FB6823F0E063FB60FB6843F0DA
:10124C008063FB60044AFB68536000BF1437BD46E3
:10125C0080BC7047001002400000014080B584B093
:10126C0000AF78607B681B68B3F1804F13D10C4BD7
:10127C00DB690B4A43F00103D361094BDB6903F0D3
:10128C000103FB60FB68002200211C2000F0EBFA3C
:10129C001C2000F004FB00BF1037BD4680BD00BF12
:1012AC000010024080B400AFFEE780B400AFFEE750
:1012BC0080B400AFFEE780B400AFFEE780B400AFAF
:1012CC00FEE780B400AF00BFBD4680BC704780B461
:1012DC0000AF00BFBD4680BC704780B400AF00BFFC
:1012EC00BD4680BC704780B500AF00F0C9F900BFA7
:1012FC0080BD000080B500AF024801F025F900BFA9
:10130C0080BD00BFB001002080B400AF00BFBD465F
:10131C0080BC704780B483B000AF78603960074AF6
:10132C007B68002142F8231005497B683A6841F834
:10133C00232000BF0C37BD4680BC70470C0000203A
:10134C00F801002080B483B000AF78600F4A7B684E
:10135C0052F82330002B13DD0C4A7B6852F82330F3
:10136C005A1E0A497B6841F82320084A7B6852F8C8
:10137C002330002B04DC064A7B68012142F8231041
:10138C0000BF0C37BD4680BC704700BFF801002081
:10139C000C00002080B500AF19210020FFF7BAFF28
:1013AC0064210120FFF7B6FF00BF80BD80B582B07D
:1013BC0000AF78607B68023B032B53D801A252F834
:1013CC0023F000BFE1130008111400082B140008CF
:1013DC005914000801224021254800F00CFC002281
:1013EC004FF48071224800F006FC00224FF400718B
:1013FC001F4800F000FC01224FF480611C4800F0F3
:10140C00FAFB30E000224FF48061194800F0F3FB46
:10141C0001224FF40061164800F0EDFB23E000229E
:10142C004021134800F0E7FB01228021104800F016
:10143C00E2FB01224FF400710D4800F0DCFB0022AE
:10144C004FF400610A4800F0D6FB0CE0002280212A
:10145C00074800F0D0FB01224FF48071044800F0E3
:10146C00CAFB00E000BF00BF0837BD4680BD00BF0F
:10147C000008014080B582B000AF78607B680B2B10
:10148C0003D07B680C2B0CD023E001228021134865
:10149C0000F0B1FB01224FF48061104800F0ABFB6F
:1014AC0017E0002280210D4800F0A5FB00224FF42C
:1014BC0080610A4800F09FFB01224FF480710748BD
:1014CC0000F099FB01224FF40061044800F093FBFB
:1014DC0000BF00BF0837BD4680BD00BF00080140FB
:1014EC0080B582B000AF78607B68023B032B54D888
:1014FC0001A252F823F000BF15150008451500088D
:10150C005D1500088D15000801224021254800F0CA
:10151C0072FB01224FF48061224800F06CFB002228
:10152C004FF480711F4800F066FB00224FF40061FD
:10153C001C4800F060FB31E001224021194800F00A
:10154C005AFB00224FF48071164800F054FB25E042
:10155C0001228021134800F04EFB01224FF4007150
:10156C00104800F048FB00224FF480710D4800F049
:10157C0042FB00224FF400610A4800F03CFB0DE0F6
:10158C0001224FF40071074800F035FB00224FF4A4
:10159C000061044800F02FFB00E000BF00BF0837DB
:1015AC00BD4680BD00080140FFF7AEFE0B480C495C
:1015BC000C4A002302E0D458C4500433C4188C42A3
:1015CC00F9D3094A094C002301E013600432A2420A
:1015DC00FBD301F0F9FAFFF7E1FC704700000020A3
:1015EC003C000020702C00083C000020240200204D
:1015FC00FEE7000080B500AF084B1B68074A43F0BC
:10160C0010031360032000F023F90F2000F008F8FA
:10161C00FFF7F2FD0023184680BD00BF00200240FA
:10162C0080B582B000AF7860124B1A68124B1B78F1
:10163C0019464FF47A73B3FBF1F3B2FBF3F318468C
:10164C0000F03BF90346002B01D001230EE07B6830
:10165C000F2B0AD8002279684FF0FF3000F003F905
:10166C00064A7B681360002300E001231846083704
:10167C00BD4680BD0800002038000020340000204A
:10168C0080B400AF054B1B781A46054B1B681344FE
:10169C00034A136000BFBD4680BC70473800002071
:1016AC002002002080B400AF024B1B681846BD46D8
:1016BC0080BC70472002002080B485B000AF7860F9
:1016CC007B6803F00703FB600C4BDB68BB60BA68FC
:1016DC004FF6FF031340BB60FB681A02BB68134351
:1016EC0043F0BF6343F40033BB60044ABB68D36070
:1016FC0000BF1437BD4680BC704700BF00ED00E052
:10170C0080B400AF044BDB681B0A03F007031846D8
:10171C00BD4680BC704700BF00ED00E080B483B0D4
:10172C0000AF0346FB7197F90730002B0BDBFB79FD
:10173C0003F01F02064997F907305B09012000FAF4
:10174C0002F241F8232000BF0C37BD4680BC704725
:10175C0000E100E080B483B000AF03463960FB7158
:10176C0097F90730002B0ADB3B68DAB20C4997F982
:10177C0007301201D2B20B4483F800230AE03B6815
:10178C00DAB20849FB7903F00F03043B1201D2B221
:10179C000B441A7600BF0C37BD4680BC704700BFA7
:1017AC0000E100E000ED00E080B489B000AFF8602B
:1017BC00B9607A60FB6803F00703FB61FB69C3F156
:1017CC000703042B28BF0423BB61FB690433062BDE
:1017DC0002D9FB69033B00E000237B614FF0FF3231
:1017EC00BB6902FA03F3DA43BB681A407B699A407F
:1017FC004FF0FF317B6901FA03F3D9437B680B404F
:10180C00134318462437BD4680BC704780B582B060
:10181C0000AF78607B68013BB3F1807F01D301237B
:10182C000FE00A4A7B68013B53600F214FF0FF30F9
:10183C00FFF790FF054B00229A60044B07221A60B9
:10184C00002318460837BD4680BD00BF10E000E0FD
:10185C0080B582B000AF78607868FFF72DFF00BFCD
:10186C000837BD4680BD80B586B000AF0346B96071
:10187C007A60FB7300237B61FFF742FF78617A6823
:10188C00B9687869FFF790FF024697F90F30114657
:10189C001846FFF75FFF00BF1837BD4680BD80B507
:1018AC0082B000AF0346FB7197F907301846FFF77B
:1018BC0035FF00BF0837BD4680BD80B582B000AF94
:1018CC0078607868FFF7A2FF034618460837BD46D4
:1018DC0080BD000080B48BB000AF7860396000230D
:1018EC007B6200233B6248E101227B6A02FA03F32C
:1018FC00FB613B681B68FA691340BB61BA69FB6901
:10190C009A4240F037813B685B68A34A93425ED0B1
:10191C00A14A934275D8A14A934258D09F4A934208
:10192C006FD89F4A934252D09D4A934269D89D4AA0
:10193C0093424CD09B4A934263D89B4A934246D0E5
:10194C00994A93425DD8122B2AD8122B59D801A24E
:10195C0052F823F0DB190008B5190008C719000864
:10196C00091A00080F1A00080F1A00080F1A0008AD
:10197C000F1A00080F1A00080F1A00080F1A000897
:10198C000F1A00080F1A00080F1A00080F1A000887
:10199C000F1A00080F1A0008BD190008D119000809
:1019AC00824A934213D02CE03B68DB683B6229E00F
:1019BC003B68DB6804333B6224E03B68DB6808333C
:1019CC003B621FE03B68DB680C333B621AE03B6810
:1019DC009B68002B02D104233B6213E03B689B689D
:1019EC00012B05D108233B627B68FA691A6109E077
:1019FC0008233B627B68FA695A6103E000233B626F
:101A0C0000E000BFBB69FF2B01D87B6801E07B685D
:101A1C0004337B61BB69FF2B02D87B6A9B0002E01D
:101A2C007B6A083B9B003B617B691A680F213B6911
:101A3C0001FA03F3DB431A40396A3B6901FA03F3F9
:101A4C001A437B691A603B685B6803F08053002B78
:101A5C0000F09080564B9B69554A43F0010393610B
:101A6C00534B9B6903F00103BB60BB68514A7B6A13
:101A7C009B08023352F82330FB607B6A03F00303AC
:101A8C009B000F2202FA03F3DB43FA681340FB605E
:101A9C007B68494A93420DD07B68484A934207D0F1
:101AAC007B68474A934201D1022304E0032302E0FE
:101ABC00012300E000237A6A02F0030292009340B3
:101ACC00FA681343FB603B497B6A9B080233FA6854
:101ADC0041F823203B685B6803F48013002B06D08D
:101AEC00384B9A683749BB6913438B6006E0354B1A
:101AFC009A68BB69DB43334913408B603B685B6876
:101B0C0003F40013002B06D02E4BDA682D49BB6969
:101B1C001343CB6006E02B4BDA68BB69DB432949E6
:101B2C001340CB603B685B6803F40033002B06D09A
:101B3C00244B5A682349BB6913434B6006E0214B85
:101B4C005A68BB69DB431F4913404B603B685B68B9
:101B5C0003F48033002B06D01A4B1A681949BB6961
:101B6C0013430B6006E0174B1A68BB69DB4315493E
:101B7C0013400B607B6A01337B623B681A687B6A9B
:101B8C0022FA03F3002B7FF4AFAE00BF00BF2C375B
:101B9C00BD4680BC704700BF000032100000311001
:101BAC000000221000002110000012100000111083
:101BBC00001002400000014000080140000C0140F0
:101BCC00001001400004014080B485B000AF786083
:101BDC000B467B807B689A687B881340002B02D075
:101BEC000123FB7301E00023FB73FB7B18461437C6
:101BFC00BD4680BC704780B483B000AF78600B46A4
:101C0C007B8013467B707B78002B03D07A887B68B3
:101C1C001A6103E07B881A047B681A6100BF0C37D9
:101C2C00BD4680BC704780B485B000AF78600B4671
:101C3C007B807B68DB68FB607A88FB6813401A0446
:101C4C00FB68D9437B880B401A437B681A6100BF41
:101C5C001437BD4680BC704780B586B000AF786045
:101C6C007B68002B01D101236CE27B681B6803F0BD
:101C7C000103002B00F08780924B5B6803F00C0390
:101C8C00042B0CD08F4B5B6803F00C03082B12D188
:101C9C008C4B5B6803F48033B3F5803F0BD1894BDD
:101CAC001B6803F40033002B6CD07B685B68002B43
:101CBC0068D1012346E27B685B68B3F5803F06D1AF
:101CCC00804B1B687F4A43F4803313602EE07B68A3
:101CDC005B68002B0CD17B4B1B687A4A23F4803356
:101CEC001360784B1B68774A23F4802313601DE044
:101CFC007B685B68B3F5A02F0CD1724B1B68714AE3
:101D0C0043F4802313606F4B1B686E4A43F480339B
:101D1C0013600BE06B4B1B686A4A23F4803313602F
:101D2C00684B1B68674A23F4802313607B685B68ED
:101D3C00002B13D0FFF7B6FC386108E0FFF7B2FCBC
:101D4C0002463B69D31A642B01D90323FAE15D4B9C
:101D5C001B6803F40033002BF0D014E0FFF7A2FC57
:101D6C00386108E0FFF79EFC02463B69D31A642BEE
:101D7C0001D90323E6E1534B1B6803F40033002B1A
:101D8C00F0D100E000BF7B681B6803F00203002B5E
:101D9C0063D04C4B5B6803F00C03002B0BD0494B0E
:101DAC005B6803F00C03082B1CD1464B5B6803F4F7
:101DBC008033002B16D1434B1B6803F00203002B1E
:101DCC0005D07B681B69012B01D00123BAE13D4B87
:101DDC001B6823F0F8027B685B69DB00394913430D
:101DEC000B603AE07B681B69002B20D0364B01223C
:101DFC001A60FFF757FC386108E0FFF753FC024606
:101E0C003B69D31A022B01D903239BE12D4B1B6891
:101E1C0003F00203002BF0D02A4B1B6823F0F802CE
:101E2C007B685B69DB00274913430B6015E0264B8D
:101E3C0000221A60FFF736FC386108E0FFF732FC2D
:101E4C0002463B69D31A022B01D903237AE11D4BBD
:101E5C001B6803F00203002BF0D17B681B6803F0B6
:101E6C000803002B3AD07B689B69002B19D0174BC9
:101E7C0001221A60FFF716FC386108E0FFF712FC2C
:101E8C0002463B69D31A022B01D903235AE10D4BAD
:101E9C005B6A03F00203002BF0D0012000F09AFAE9
:101EAC001CE00A4B00221A60FFF7FCFB38610FE0C4
:101EBC00FFF7F8FB02463B69D31A022B08D9032320
:101ECC0040E100BF00100240000042428004424248
:101EDC009E4B5B6A03F00203002BE9D17B681B6805
:101EEC0003F00403002B00F0A6800023FB75974B36
:101EFC00DB6903F08053002B0DD1944BDB69934AC3
:101F0C0043F08053D361914BDB6903F08053BB608A
:101F1C00BB680123FB758E4B1B6803F48073002B8D
:101F2C0018D18B4B1B688A4A43F480731360FFF7FC
:101F3C00B9FB386108E0FFF7B5FB02463B69D31AE1
:101F4C00642B01D90323FDE0814B1B6803F48073E0
:101F5C00002BF0D07B68DB68012B06D17B4B1B6A16
:101F6C007A4A43F0010313622DE07B68DB68002B97
:101F7C000CD1764B1B6A754A23F001031362734B29
:101F8C001B6A724A23F0040313621CE07B68DB6853
:101F9C00052B0CD16D4B1B6A6C4A43F00403136286
:101FAC006A4B1B6A694A43F0010313620BE0674BEF
:101FBC001B6A664A23F001031362644B1B6A634A73
:101FCC0023F0040313627B68DB68002B15D0FFF74A
:101FDC0069FB38610AE0FFF765FB02463B69D31ADF
:101FEC0041F28832934201D90323ABE0574B1B6A71
:101FFC0003F00203002BEED014E0FFF753FB386123
:10200C000AE0FFF74FFB02463B69D31A41F28832D4
:10201C00934201D9032395E04C4B1B6A03F0020356
:10202C00002BEED1FB7D012B05D1484BDB69474AD8
:10203C0023F08053D3617B68DB69002B00F0818037
:10204C00424B5B6803F00C03082B61D07B68DB69A7
:10205C00022B46D13F4B00221A60FFF723FB38615D
:10206C0008E0FFF71FFB02463B69D31A022B01D98C
:10207C00032367E0354B1B6803F00073002BF0D192
:10208C007B681B6AB3F5803F08D1304B5B6823F447
:10209C0000327B689B682D4913434B602B4B5B686C
:1020AC0023F474127B68196A7B685B6A0B432749BB
:1020BC0013434B60274B01221A60FFF7F3FA386188
:1020CC0008E0FFF7EFFA02463B69D31A022B01D95D
:1020DC00032337E01D4B1B6803F00073002BF0D07B
:1020EC002FE01C4B00221A60FFF7DCFA386108E085
:1020FC00FFF7D8FA02463B69D31A022B01D9032306
:10210C0020E0124B1B6803F00073002BF0D118E099
:10211C007B68DB69012B01D1012313E00B4B5B685E
:10212C00FB60FB6803F480327B681B6A9A4206D121
:10213C00FB6803F470127B685B6A9A4201D001233E
:10214C0000E0002318461837BD4680BD0010024041
:10215C00007000406000424280B584B000AF7860EF
:10216C0039607B68002B01D10123D0E06A4B1B68DE
:10217C0003F007033A689A4210D9674B1B6823F0A7
:10218C00070265493B6813430B60634B1B6803F004
:10219C0007033A689A4201D00123B8E07B681B68B8
:1021AC0003F00203002B20D07B681B6803F00403B0
:1021BC00002B05D0594B5B68584A43F4E0635360DD
:1021CC007B681B6803F00803002B05D0534B5B683E
:1021DC00524A43F460535360504B5B6823F0F00257
:1021EC007B689B684D4913434B607B681B6803F00D
:1021FC000103002B40D07B685B68012B07D1474B58
:10220C001B6803F40033002B15D101237FE07B689E
:10221C005B68022B07D1414B1B6803F00073002B4A
:10222C0009D1012373E03D4B1B6803F00203002B23
:10223C0001D101236BE0394B5B6823F003027B680F
:10224C005B68364913434B60FFF72CFAF8600AE0E1
:10225C00FFF728FA0246FB68D31A41F28832934200
:10226C0001D9032353E02D4B5B6803F00C027B6810
:10227C005B689B009A42EBD1274B1B6803F007036A
:10228C003A689A4210D2244B1B6823F00702224969
:10229C003B6813430B60204B1B6803F007033A6841
:1022AC009A4201D0012332E07B681B6803F00403DF
:1022BC00002B08D0194B5B6823F4E0627B68DB6869
:1022CC00164913434B607B681B6803F00803002B13
:1022DC0009D0124B5B6823F460527B681B69DB00EE
:1022EC000E4913434B6000F021F802460B4B5B6820
:1022FC001B0903F00F030A49CB5C22FA03F3094ACA
:10230C001360094B1B681846FFF78AF9002318461F
:10231C001037BD4680BD00BF0020024000100240B7
:10232C00442C0008080000203400002080B487B042
:10233C0000AF0023FB600023BB6000237B61002304
:10234C007B6000233B611E4B5B68FB60FB6803F00A
:10235C000C03042B02D0082B03D027E0194B3B6154
:10236C0027E0FB689B0C03F00F03174AD35C7B60E0
:10237C00FB6803F48033002B10D0114B5B685B0CB3
:10238C0003F00103114AD35CBB607B680D4A02FB6E
:10239C0003F2BB68B2FBF3F37B6104E07B680C4A8D
:1023AC0002FB03F37B617B693B6102E0054B3B6104
:1023BC0000BF3B6918461C37BD4680BC704700BF48
:1023CC000010024000127A00542C0008642C000803
:1023DC0000093D0080B485B000AF78600A4B1B68E3
:1023EC000A4AA2FB03235B0A7A6802FB03F3FB6035
:1023FC0000BFFB685A1EFA60002BF9D100BF00BF6A
:10240C001437BD4680BC704708000020D34D6210C5
:10241C0080B582B000AF78607B68002B01D10123BE
:10242C0041E07B6893F83D30DBB2002B06D17B6832
:10243C00002283F83C207868FEF710FF7B680222AC
:10244C0083F83D207B681A687B6804331946104674
:10245C0000F056FA7B68012283F846207B68012243
:10246C0083F83E207B68012283F83F207B680122A1
:10247C0083F840207B68012283F841207B6801228D
:10248C0083F842207B68012283F843207B68012279
:10249C0083F844207B68012283F845207B68012265
:1024AC0083F83D20002318460837BD4680BD000048
:1024BC0080B485B000AF78607B6893F83D30DBB2B8
:1024CC00012B01D0012335E07B68022283F83D20EB
:1024DC007B681B68DA687B681B6842F00102DA6073
:1024EC007B681B68164A934209D07B681B68B3F162
:1024FC00804F04D07B681B68124A934211D17B68D1
:10250C001B689B6803F00703FB60FB68062B10D06D
:10251C007B681B681A687B681B6842F001021A60B2
:10252C0007E07B681B681A687B681B6842F0010235
:10253C001A60002318461437BD4680BC704700BF94
:10254C00002C01400004004080B584B000AF7860DE
:10255C007B681B68DB68FB607B681B681B69BB6066
:10256C00BB6803F00203002B20D0FB6803F00203CE
:10257C00002B1BD07B681B686FF002021A617B6812
:10258C0001221A777B681B689B6903F00303002BFD
:10259C0003D0786800F098F905E0786800F08BF9C2
:1025AC00786800F09AF97B6800221A77BB6803F010
:1025BC000403002B20D0FB6803F00403002B1BD07A
:1025CC007B681B686FF004021A617B6802221A7721
:1025DC007B681B689B6903F44073002B03D07868FD
:1025EC0000F072F905E0786800F065F9786800F0A1
:1025FC0074F97B6800221A77BB6803F00803002B80
:10260C0020D0FB6803F00803002B1BD07B681B68F1
:10261C006FF008021A617B6804221A777B681B68CA
:10262C00DB6903F00303002B03D0786800F04CF94E
:10263C0005E0786800F03FF9786800F04EF97B68A7
:10264C0000221A77BB6803F01003002B20D0FB6824
:10265C0003F01003002B1BD07B681B686FF010027B
:10266C001A617B6808221A777B681B68DB6903F4A4
:10267C004073002B03D0786800F026F905E07868E9
:10268C0000F019F9786800F028F97B6800221A77B5
:10269C00BB6803F00103002B0CD0FB6803F00103B3
:1026AC00002B07D07B681B686FF001021A617868F9
:1026BC00FEF77EFDBB6803F08003002B0CD0FB689B
:1026CC0003F08003002B07D07B681B686FF080023F
:1026DC001A61786800F06FFABB6803F04003002BB6
:1026EC000CD0FB6803F04003002B07D07B681B6801
:1026FC006FF040021A61786800F0F8F8BB6803F0DC
:10270C002003002B0CD0FB6803F02003002B07D018
:10271C007B681B686FF020021A61786800F042FA3F
:10272C0000BF1037BD4680BD80B584B000AF786067
:10273C0039600023FB737B6893F83C30012B01D18B
:10274C000223B4E07B68012283F83C207B680222E0
:10275C0083F83D207B681B689B68BB60BB6823F0DB
:10276C007703BB60BB6823F47F43BB607B681B684B
:10277C00BA689A603B681B68B3F5005F3ED0B3F54E
:10278C00005F00F28780B3F5805F00F08680B3F5C0
:10279C00805F7FD8702B1AD0702B7BD8602B50D0D9
:1027AC00602B77D8502B3CD0502B73D8402B58D063
:1027BC00402B6FD8302B64D0302B6BD8202B60D0B3
:1027CC00202B67D8002B5CD0102B5AD062E07B6892
:1027DC0018683B6899683B685A683B68DB6800F08E
:1027EC006AF97B681B689B68BB60BB6843F0770326
:1027FC00BB607B681B68BA689A604FE07B6818689E
:10280C003B6899683B685A683B68DB6800F053F991
:10281C007B681B689A687B681B6842F480429A60EC
:10282C003CE07B6818683B6859683B68DB681A4673
:10283C0000F0CAF87B681B685021184600F021F99B
:10284C002CE07B6818683B6859683B68DB681A4663
:10285C0000F0E8F87B681B686021184600F011F95D
:10286C001CE07B6818683B6859683B68DB681A4653
:10287C0000F0AAF87B681B684021184600F001F9AB
:10288C000CE07B681A683B681B681946104600F020
:10289C00F8F803E00123FB7300E000BF7B68012222
:1028AC0083F83D207B68002283F83C20FB7B184694
:1028BC001037BD4680BD80B483B000AF786000BFD8
:1028CC000C37BD4680BC704780B483B000AF7860D5
:1028DC0000BF0C37BD4680BC704780B483B000AFDE
:1028EC00786000BF0C37BD4680BC704780B483B0A5
:1028FC0000AF786000BF0C37BD4680BC704700004D
:10290C0080B485B000AF786039607B681B68FB6071
:10291C007B682B4A934207D07B68B3F1804F03D07E
:10292C007B68284A934208D1FB6823F07003FB6054
:10293C003B685B68FA681343FB607B68204A9342F0
:10294C0007D07B68B3F1804F03D07B681D4A93425C
:10295C0008D1FB6823F44073FB603B68DB68FA68C2
:10296C001343FB60FB6823F080023B685B691343F5
:10297C00FB607B68FA681A603B689A687B68DA626D
:10298C003B681A687B689A627B680D4A934203D154
:10299C003B681A697B681A637B6801225A617B6801
:1029AC001B6903F00103002B05D07B681B6923F026
:1029BC0001027B681A6100BF1437BD4680BC7047AA
:1029CC00002C01400004004080B487B000AFF860D8
:1029DC00B9607A60FB681B6A7B61FB681B6A23F039
:1029EC000102FB681A62FB689B693B613B6923F03F
:1029FC00F0033B617B681B013A6913433B617B69C4
:102A0C0023F00A037B617A69BB6813437B61FB6823
:102A1C003A699A61FB687A691A6200BF1C37BD4635
:102A2C0080BC704780B487B000AFF860B9607A6042
:102A3C00FB681B6A7B61FB681B6A23F01002FB6856
:102A4C001A62FB689B693B613B6923F470433B61F1
:102A5C007B681B033A6913433B617B6923F0A0033A
:102A6C007B61BB681B017A6913437B61FB683A6924
:102A7C009A61FB687A691A6200BF1C37BD4680BC3C
:102A8C00704780B485B000AF786039607B689B6814
:102A9C00FB60FB6823F07003FB603A68FB68134330
:102AAC0043F00703FB607B68FA689A6000BF143739
:102ABC00BD4680BC704780B487B000AFF860B96089
:102ACC007A603B60FB689B687B617B6923F47F4386
:102ADC007B613B681A027B681A43BB6813437A69B3
:102AEC0013437B61FB687A699A6000BF1C37BD4653
:102AFC0080BC704780B485B000AF786039607B686B
:102B0C0093F83C30012B01D1022341E07B68012278
:102B1C0083F83C207B68022283F83D207B681B688D
:102B2C005B68FB607B681B689B68BB60FB6823F081
:102B3C007003FB603B681B68FA681343FB607B689F
:102B4C001B68FA685A607B681B68144A934209D068
:102B5C007B681B68B3F1804F04D07B681B68104AFC
:102B6C0093420CD1BB6823F08003BB603B685B686D
:102B7C00BA681343BB607B681B68BA689A607B6851
:102B8C00012283F83D207B68002283F83C2000233F
:102B9C0018461437BD4680BC704700BF002C01405E
:102BAC000004004080B483B000AF786000BF0C37E5
:102BBC00BD4680BC704780B483B000AF786000BF66
:102BCC000C37BD4680BC704770B500260C4D0D4CC3
:102BDC00641BA410A64209D100F022F800260A4D6D
:102BEC000A4C641BA410A64205D170BD55F8043BD9
:102BFC0098470136EEE755F8043B98470136F2E763
:102C0C00682C0008682C0008682C00086C2C000844
:102C1C0003460244934200D1704703F8011BF9E7C5
:102C2C00F8B500BFF8BC08BC9E467047F8B500BFAD
:082C3C00F8BC08BC9E4670477D
:102C44000000000000000000010203040607080958
:102C540002030405060708090A0B0C0D0E0F1010D9
:042C64000102000069
:042C6800310100082E
:042C6C000D0100084E
:102C7000010000000100000000127A0000000000C6
:102C80000000000000000000000000000000000044
:102C90000100000001000000010000000000000031
:0C2CA00000000000100000000100000017
:04000005080015B525
:00000001FF
