:020000040800F2
:1000000000280020B1150008951300089B13000874
:10001000A1130008A7130008AD130008000000009A
:10002000000000000000000000000000B313000802
:10003000BF13000800000000CB130008D71300080E
:10004000F9150008F9150008F9150008F915000858
:10005000F9150008F9150008F9150008F915000848
:10006000F9150008F9150008F9150008F915000838
:10007000F9150008F9150008F9150008F915000828
:10008000F9150008F9150008F9150008F915000818
:10009000F9150008F9150008F9150008F915000808
:1000A000F9150008F9150008F9150008F9150008F8
:1000B000E5130008F915000800000000F915000814
:1000C000F91500080000000000000000F915000804
:1000D00000000000F9150008F915000800000000F4
:1000E000F9150008F9150008F915000800000000CE
:1000F0000000000000000000000000000000000000
:0C01000000000000000000005FF808F1A3
:10010C0010B5054C237833B9044B13B10448AFF345
:10011C0000800123237010BD7C0000200000000033
:10012C00DC2D000808B5034B1BB103490348AFF3A2
:10013C00008008BD0000000080000020DC2D0008BD
:10014C0080B500AF264B1B78002B05D0244B1B78B9
:10015C00013BDAB2224B1A70214B1B78002B11D1C8
:10016C004FF480511F4801F02DFD0346002B09D19F
:10017C001D4B01221A6020211A4801F052FD184B28
:10018C0032221A70164B1B78002B11D14FF40051F0
:10019C00144801F017FD0346002B09D1124B012224
:1001AC005A6020210F4801F03CFD0D4B32221A7091
:1001BC000B4B1B78002B11D14FF48041094801F0F7
:1001CC0001FD0346002B09D1074B01229A60202127
:1001DC00044801F026FD024B32221A7000BF80BD8C
:1001EC009800002000080140BC00002080B483B0BF
:1001FC0000AF7860094A7B6852F82330012B06D196
:10020C00064A7B68002142F82310012300E00023FA
:10021C0018460C37BD4680BC704700BFBC000020A0
:10022C0080B500AF254B1B68013B042B44D801A2C1
:10023C0052F823F055020008550200085502000838
:10024C00550200085502000800BF0020FFF7CEFF42
:10025C000346002B15D01A4B1B68184600F0C4FF40
:10026C00184800F0C1FF184800F0BEFF174B0022E1
:10027C001A6000F03FFD114B1B681E330F4A1360D0
:10028C001BE00220FFF7B2FF0346002B15D00C4BEE
:10029C001B68184600F0A8FF0B4800F0A5FF00F003
:1002AC00E7FC0B2001F0DEF80021002000F0B2FA90
:1002BC00024B0B221A6000E000BF80BD0000002042
:1002CC00A8000020550D0008DD020008A400002045
:1002DC0080B500AF094B1B68013B084A1360074B04
:1002EC005B68013B054A5360044B1B68034A526828
:1002FC001146184600F08EFA00BF80BDE4000020C5
:10030C0080B500AF154B02221A60022001F0AAF84A
:10031C00134B1A68134B1B681344134A82FB0312CA
:10032C009211DB17D31A114A13600D4B1B680E4A3E
:10033C0082FB03129211DB17D31A0C4A5360084B41
:10034C001B68002219460A4800F06AFE094B0A4A4B
:10035C001A600A4B064A1A6000BF80BD00000020DC
:10036C000400002008000020D34D6210E40000209F
:10037C008D030008AC0000200D030008A80000202D
:10038C0080B500AF144B03221A60032001F06AF809
:10039C00124B1B68124A82FB03129211DB17D31A01
:1003AC00104A13600D4B1B680D4A82FB031292110D
:1003BC00DB17D31A0B4A5360084B1B6800221946F3
:1003CC00094800F02DFE094B094A1A60094B064AF0
:1003DC001A6000BF80BD00BF000000200800002094
:1003EC00D34D6210E400002005040008AC0000208E
:1003FC008D030008A800002080B500AF154B042227
:10040C001A60042001F02EF8134B1B68134A82FB70
:10041C0003129211DB17D31A114A13600E4B1A6890
:10042C00104B1B6813440D4A82FB03129211DB170D
:10043C00D31A0B4A5360084B1B68002219460A4812
:10044C0000F0EEFD094B0A4A1A600A4B064A1A6084
:10045C0000BF80BD0000002004000020D34D6210BE
:10046C00E40000200800002085040008AC000020F7
:10047C0005040008A800002080B500AF144B05222D
:10048C001A60052000F0EEFF124B1B68124A82FB2B
:10049C0003129211DB17D31A104A13600D4B1B6811
:1004AC000D4A82FB03129211DB17D31A0B4A5360CD
:1004BC00084B1B6800221946094800F0B1FD094B96
:1004CC00094A1A60094B064A1A6000BF80BD00BF7A
:1004DC000000002008000020D34D6210E400002032
:1004EC000D030008AC00002085040008A8000020C3
:1004FC0080B500AF3A4B1B68203B032B6DD801A293
:10050C0052F823F021050008410500086105000898
:10051C00810500080120FFF769FE0346002B39D046
:10052C00032000F09FFF2E4B21221A602D4B2E4AE8
:10053C001A602FE00120FFF759FE0346002B2BD049
:10054C00042000F08FFF264B22221A60254B274AED
:10055C001A6021E00120FFF749FE0346002B1DD055
:10056C00052000F07FFF1E4B23221A601D4B204AF2
:10057C001A6013E00120FFF739FE0346002B0FD061
:10058C00022000F06FFF164B20221A60154B194AFF
:10059C001A6005E000BF04E000BF02E000BF00E00D
:1005AC0000BF0020FFF722FE0346002B16D0124B93
:1005BC0000221A600B4B1B6800220021184600F029
:1005CC002FFD4FF47A720A210C4800F029FDFA2213
:1005DC000A210B4800F024FD00E000BF80BD00BFE5
:1005EC0000000020AC0000208D030008050400086A
:1005FC00850400080D030008A4000020DD0200089B
:10060C00550D000880B500AF774B1B680B2B02D043
:10061C000C2B5CD0E7E00120FFF7E8FD0346002B34
:10062C0016D0724B1B680133704A1360704B1B68F9
:10063C0001336F4A13606E4B1B68622B02DD6C4BEF
:10064C0000221A606A4B1B681946002000F0E2F881
:10065C000020FFF7CBFD0346002B00F0B580644B68
:10066C001B684FF47A7202FB03F3614A1360604B10
:10067C001A68604B1B6853405D4A13605C4B1A68E8
:10068C005C4B1B6853405B4A1360594B1A68594BBF
:10069C001B685340564A1360544B1B68002B03DCF9
:1006AC00534B1B68534A1360504B00221A60504B3B
:1006BC0000221A604E4B1B681946002000F0AAF865
:1006CC000C2000F0CFFE484B0C221A607CE001207D
:1006DC00FFF78CFD0346002B20D0444B1B680133E5
:1006EC00424A1360424B1B680133414A1360414B31
:1006FC001B68414A82FB03125211DB179B1A03F150
:10070C0063023B4B1B689A4202DA394B00221A6097
:10071C00374B1B681946002000F07CF80020FFF7CF
:10072C0065FD0346002B51D000224FF480713348F5
:10073C0001F05FFA00224FF40061304801F059FAE1
:10074C002B4B1B684FF47A7202FB03F3284A13609D
:10075C00274B1A682A4B1B685340254A1360244BBD
:10076C001A68274B1B685340254A1360204B1A68A4
:10077C00234B1B6853401E4A13601C4B1B68002BF9
:10078C0003DC1B4B1B681E4A1360184B00221A60BB
:10079C00174B00221A601B4800F026FD1A4B002252
:1007AC001A601A4B1B6800220021184600F038FC16
:1007BC004FF47A720A21164800F032FCFA220A2110
:1007CC00104800F02DFC01E000BF00E000BF02204B
:1007DC00FFF70CFD0346002B05D0044B00221A60DA
:1007EC00034B00221A6080BD00000020A0000020F6
:1007FC009C000020040000201F85EB5100080140E4
:10080C0008000020550D0008A4000020AC000020BA
:10081C00DD02000880B483B000AF786039603968BD
:10082C00184B83FB01239A10CB17D21A13469B004B
:10083C0013445B00CA1A144BDA603B68114A82FB02
:10084C0003129210DB17D31A0F4A936079680D4B81
:10085C0083FB01239A10CB17D21A13469B00134427
:10086C005B00CA1A084B5A607B68064A82FB03126B
:10087C009210DB17D31A044A136000BF0C37BD4625
:10088C0080BC704767666666F000002080B582B059
:10089C0000AF7860012202212B4801F0AAF9012255
:1008AC000421294801F0A5F901220821264801F06C
:1008BC00A0F901221021244801F09BF97B68032B3D
:1008CC003ED801A252F823F0E5080008FF08000802
:1008DC001909000833090008002202211A4801F006
:1008EC0088F91A4A7B6852F82330184600F030F821
:1008FC0026E000220421144801F07BF9134A7B689E
:10090C0052F82330184600F023F819E00022082191
:10091C000D4801F06EF90D4A7B6852F823301846E9
:10092C0000F016F80CE000221021074801F061F9E4
:10093C00064A7B6852F82330184600F009F800BFCD
:10094C0000BF0837BD4680BD00080140F000002004
:10095C0080B582B000AF78607B68092B00F2808193
:10096C0001A252F823F000BF9D090008E509000818
:10097C002D0A0008750A0008BD0A0008050B0008BE
:10098C004D0B0008950B0008DD0B0008250C00082A
:10099C0000220121B54801F02CF900220221B348B4
:1009AC0001F027F900220421B04801F022F90022BD
:1009BC000821AE4801F01DF900221021AB4801F0CE
:1009CC0018F900222021A94801F013F90122402135
:1009DC00A64801F00EF944E101220121A34801F0DF
:1009EC0008F900220221A14801F003F90022042198
:1009FC009E4801F0FEF8012208219C4801F0F9F80C
:100A0C0001221021994801F0F4F801222021974885
:100A1C0001F0EFF801224021944801F0EAF820E1BE
:100A2C0000220121914801F0E4F8002202218F48B4
:100A3C0001F0DFF8012204218C4801F0DAF80022E1
:100A4C0008218A4801F0D5F800221021874801F0CE
:100A5C00D0F801222021854801F0CBF8002240215A
:100A6C00824801F0C6F8FCE0002201217F4801F029
:100A7C00C0F8002202217D4801F0BBF800220421BD
:100A8C007A4801F0B6F800220821784801F0B1F854
:100A9C0001221021754801F0ACF801222021734885
:100AAC0001F0A7F800224021704801F0A2F8D8E02C
:100ABC00012201216D4801F09CF8002202216B48B3
:100ACC0001F097F800220421684801F092F8012205
:100ADC000821664801F08DF801221021634801F0CD
:100AEC0088F800222021614801F083F8002240217F
:100AFC005E4801F07EF8B4E0002201215B4801F071
:100B0C0078F801220221594801F073F800220421DF
:100B1C00564801F06EF800220821544801F069F89B
:100B2C0001221021514801F064F8002220214F4885
:100B3C0001F05FF8002240214C4801F05AF890E097
:100B4C0000220121494801F054F8012202214748B2
:100B5C0001F04FF800220421444801F04AF8002229
:100B6C000821424801F045F8002210213F4801F0CD
:100B7C0040F8002220213D4801F03BF800224021A2
:100B8C003A4801F036F86CE000220121374801F0B8
:100B9C0030F800220221354801F02BF80022042104
:100BAC00324801F026F801220821304801F021F8E2
:100BBC00012210212D4801F01CF8012220212B4884
:100BCC0001F017F801224021284801F012F848E002
:100BDC0000220121254801F00CF8002202212348B3
:100BEC0001F007F800220421204801F002F800224D
:100BFC0008211E4800F0FDFF002210211B4800F0C8
:100C0C00F8FF00222021194800F0F3FF00224021B8
:100C1C00164800F0EEFF24E000220121134800F0FA
:100C2C00E8FF00220221114800F0E3FF002204211A
:100C3C000E4800F0DEFF002208210C4800F0D9FF1E
:100C4C0001221021094800F0D4FF0022202107487E
:100C5C0000F0CFFF00224021044800F0CAFF00E062
:100C6C0000BF00BF0837BD4680BD00BF000C01406F
:100C7C0080B500AF002202211D4800F0BAFF00220F
:100C8C0004211B4800F0B5FF00220821184800F091
:100C9C00B0FF00221021164800F0ABFF00222021EB
:100CAC00134800F0A6FF00224021114800F0A1FFDC
:100CBC00002280210E4800F09CFF00224FF480712E
:100CCC000B4800F096FF00224FF40071084800F02A
:100CDC0090FF00224FF48061054800F08AFF00224B
:100CEC004FF40061024800F084FF00BF80BD00BFDC
:100CFC000008014080B500AF01220121114800F02D
:100D0C0078FF012202210F4800F073FF0122042119
:100D1C000C4800F06EFF012208210A4800F069FF20
:100D2C0001221021074800F064FF01222021054810
:100D3C0000F05FFF01224021024800F05AFF00BF83
:100D4C0080BD00BF000C014080B500AF084B1B6894
:100D5C00032B02DD064B00221A60054B1B685A1C44
:100D6C0003490A601846FFF791FD00BF80BD00BF24
:100D7C00A400002080B500AF00F03AFC00F044F86D
:100D8C0000F0CAF800F07CF8174801F08FFB00F077
:100D9C0035F90A220021154800F042F90A220A21ED
:100DAC00134800F03DF90A220A21124800F038F9E4
:100DBC000A220A21104800F033F900220A210F48B8
:100DCC0000F02EF94FF47A7214210D4800F028F936
:100DDC00FA2214210B4800F023F9022000F042FB08
:100DEC0000F0C4F9FCE700BF000100202D02000850
:100DFC00FD040008110600084D0100080D03000851
:100E0C00DD020008550D000880B590B000AF07F169
:100E1C00180328220021184601F00EFF3B1D00226A
:100E2C001A605A609A60DA601A610223BB6101236E
:100E3C00BB621023FB6200237B6307F11803184687
:100E4C0000F008FF0346002B01D000F0D1F80F236F
:100E5C007B600023BB600023FB6000233B6100230D
:100E6C007B613B1D0021184601F074F90346002BF1
:100E7C0001D000F0BDF800BF4037BD4680BD00007A
:100E8C0080B586B000AF07F1080300221A605A60E3
:100E9C009A60DA603B4600221A605A601D4B4FF094
:100EAC0080421A601B4B41F63F725A60194B00226C
:100EBC009A60184B0922DA60164B00221A61154B06
:100ECC0000229A61134801F0A1FA0346002B01D0CD
:100EDC0000F08EF84FF48053BB6007F108031946FD
:100EEC000C4801F01FFC0346002B01D000F080F8E9
:100EFC0000233B6000237B603B461946054801F00C
:100F0C00F7FD0346002B01D000F072F800BF183734
:100F1C00BD4680BD0001002080B586B000AF07F152
:100F2C00080300221A605A609A60DA60284B9B69A9
:100F3C00274A43F004039361254B9B6903F0040398
:100F4C007B607B68224B9B69214A43F008039361C9
:100F5C001F4B9B6903F008033B603B68002240F683
:100F6C00FE711C4800F045FE00227F211A4800F05B
:100F7C0040FE40F6FE73BB600123FB6000233B6127
:100F8C0002237B6107F108031946124800F0A0FC0C
:100F9C007F23BB600123FB6000233B6102237B6149
:100FAC0007F1080319460C4800F092FC4FF4E0439B
:100FBC00BB600023FB6001233B6107F1080319466A
:100FCC00044800F085FC00BF1837BD4680BD00BF4B
:100FDC000010024000080140000C014080B582B0B6
:100FEC0000AF786000F0B0F800BF0837BD4680BD98
:100FFC0080B400AF72B600BFFEE7000080B400AF53
:10100C00064B00221A60054B00225A60034B00224B
:10101C001A7200BFBD4680BC704700BF480100205B
:10102C0080B586B000AFF860B9607A60142001F02A
:10103C00F3FD03463B613B69002B7DD03B69FA68AD
:10104C001A60BB683E4AA2FB0323DA083B695A606C
:10105C007B683B4AA2FB0323DA083B699A603B6935
:10106C000022DA603B6900221A61364B1B68002BA8
:10107C0006D1344A3B691360324A3B69536054E0F1
:10108C00304B1B687B6109E03B695A687B695B6884
:10109C00D21A3B695A607B69DB687B617B69002BE8
:1010AC0005D03B695A687B695B689A42ECD2254B48
:1010BC001B687A699A4214D1224B1A683B69DA6030
:1010CC00204B1B683A691A611E4B1B6859683B69B7
:1010DC005A681C4B1B688A1A5A601A4A3B6913607F
:1010EC0023E07B69002B0BD1164B5A683B691A61C4
:1010FC00144B5B683A69DA60124A3B69536014E03E
:10110C003B697A69DA607B691A693B691A617B69A8
:10111C001B693A69DA607B693A691A617B695A68BA
:10112C003B695B68D21A7B695A60064B1B7A0133A8
:10113C00DAB2044B1A7200E000BF1837BD4680BD0E
:10114C00CDCCCCCC4801002080B400AF064B1B6842
:10115C00002B05D0044B1B685A68013A5A6000E01A
:10116C0000BFBD4680BC70474801002080B582B0EE
:10117C0000AF1C4B1B68002B30D01A4B1B685B68F4
:10118C00002B2CD1174B1B681B689847154B1B6801
:10119C007B60144B1B68DB68124A13607B689B688E
:1011AC00002B11D07B6818687B689A6813469B00EB
:1011BC0013445B0019467B689A6813469B001344E2
:1011CC005B001A46FFF72CFF786801F02DFD054BEC
:1011DC001B7A013BDAB2034B1A7200E000BF0837EE
:1011EC00BD4680BD4801002080B584B000AF78605A
:1011FC00394B1B7A002B01D1002368E0364B1B7A4C
:10120C00012B11D1344B1B68BB60334B00225A604D
:10121C00314B5B68304A13602F4B00221A72B8684E
:10122C0001F002FD012352E02B4B1B68FB604AE0EE
:10123C00FB681B687A689A4242D1274B1B68FA6894
:10124C009A4211D1FB68DB6800221A61FB68DB68EB
:10125C00214A1360204B1B685968FB685A681E4B67
:10126C001B680A445A6020E01B4B5B68FA689A4280
:10127C0008D1FB681B690022DA60FB681B69164AFF
:10128C00536012E0FB681B69FA68D268DA60FB688D
:10129C00DB68FA6812691A61FB68DB685968FB68DD
:1012AC005A68FB68DB680A445A600B4B1B7A013B9B
:1012BC00DAB2094B1A72F86801F0B6FC012306E0A9
:1012CC00FB68DB68FB60FB68002BB1D10023184680
:1012DC001037BD4680BD00BF4801002080B485B0EA
:1012EC0000AF154B9B69144A43F001039361124BF9
:1012FC009B6903F00103BB60BB680F4BDB690E4AB3
:10130C0043F08053D3610C4BDB6903F080537B605B
:10131C007B680A4B5B68FB60FB6823F0E063FB6057
:10132C00FB6843F08063FB60044AFB68536000BFBA
:10133C001437BD4680BC70470010024000000140CD
:10134C0080B584B000AF78607B681B68B3F1804FC8
:10135C0013D10C4BDB690B4A43F00103D361094BEE
:10136C00DB6903F00103FB60FB68002200211C20F9
:10137C0000F077FA1C2000F090FA00BF1037BD4641
:10138C0080BD00BF0010024080B400AFFEE780B407
:10139C0000AFFEE780B400AFFEE780B400AFFEE71D
:1013AC0080B400AFFEE780B400AF00BFBD4680BC88
:1013BC00704780B400AF00BFBD4680BC704780B49E
:1013CC0000AF00BFBD4680BC704780B500AF00F0D9
:1013DC0055F900BF80BD000080B500AF024801F098
:1013EC00B1F800BF80BD00BF0001002080B586B001
:1013FC0000AF7860144A154BD31A7B617B693B6153
:10140C00134B1B68002B02D1114B124A1A60104B64
:10141C001A687B6813443A699A4207D201F0D2FBEE
:10142C0003460C221A604FF0FF3309E0084B1B688F
:10143C00FB60074B1A687B681344054A1360FB6812
:10144C0018461837BD4680BD002800200004000057
:10145C00B00000206801002080B400AF00BFBD4682
:10146C0080BC704780B582B000AF78607B68023B6F
:10147C000A2B00F2908001A252F823F0B514000858
:10148C00E51400080915000837150008A315000815
:10149C00A3150008A3150008A3150008A315000840
:1014AC005B15000873150008012240213C4800F030
:1014BC00A0FB00224FF48071394800F09AFB002207
:1014CC004FF40071364800F094FB01224FF4806118
:1014DC00334800F08EFB5FE001224021304800F0E1
:1014EC0088FB00224FF480612D4800F082FB012222
:1014FC004FF400612A4800F07CFB4DE000224021B3
:10150C00274800F076FB01228021254800F071FB72
:10151C0001224FF40071224800F06BFB00224FF4C3
:10152C0000611F4800F065FB36E001224FF40071AA
:10153C001B4800F05EFB00228021194800F059FB8B
:10154C0001224FF48071164800F053FB24E0012275
:10155C008021134800F04DFB01224FF480611048AC
:10156C0000F047FB18E0002280210D4800F041FB01
:10157C0000224FF480610A4800F03BFB01224FF43B
:10158C008071074800F035FB01224FF400610448DC
:10159C0000F02FFB00E000BF00BF0837BD4680BD48
:1015AC0000080140FFF758FF0B480C490C4A002378
:1015BC0002E0D458C4500433C4188C42F9D3094AFD
:1015CC00094C002301E013600432A242FBD301F06A
:1015DC00FFFAFFF7CFFB7047000000207C000020D3
:1015EC00202E00087C00002068010020FEE700008F
:1015FC0080B500AF084B1B68074A43F0100313601B
:10160C00032000F023F90F2000F008F8FFF766FE26
:10161C000023184680BD00BF0020024080B582B078
:10162C0000AF7860124B1A68124B1B7819464FF4B6
:10163C007A73B3FBF1F3B2FBF3F3184600F03BF90A
:10164C000346002B01D001230EE07B680F2B0AD838
:10165C00002279684FF0FF3000F003F9064A7B68EE
:10166C001360002300E0012318460837BD4680BDF7
:10167C000C000020140000201000002080B400AFEB
:10168C00054B1B781A46054B1B681344034A136021
:10169C0000BFBD4680BC70471400002054010020E0
:1016AC0080B400AF024B1B681846BD4680BC704727
:1016BC005401002080B485B000AF78607B6803F0E3
:1016CC000703FB600C4BDB68BB60BA684FF6FF038B
:1016DC001340BB60FB681A02BB68134343F0BF6343
:1016EC0043F40033BB60044ABB68D36000BF1437BB
:1016FC00BD4680BC704700BF00ED00E080B400AF79
:10170C00044BDB681B0A03F007031846BD4680BC7C
:10171C00704700BF00ED00E080B483B000AF03461B
:10172C00FB7197F90730002B0BDBFB7903F01F02E1
:10173C00064997F907305B09012000FA02F241F8DB
:10174C00232000BF0C37BD4680BC704700E100E091
:10175C0080B483B000AF03463960FB7197F9073052
:10176C00002B0ADB3B68DAB20C4997F907301201FF
:10177C00D2B20B4483F800230AE03B68DAB2084982
:10178C00FB7903F00F03043B1201D2B20B441A761F
:10179C0000BF0C37BD4680BC704700BF00E100E0C5
:1017AC0000ED00E080B489B000AFF860B9607A60F9
:1017BC00FB6803F00703FB61FB69C3F10703042B10
:1017CC0028BF0423BB61FB690433062B02D9FB69D8
:1017DC00033B00E000237B614FF0FF32BB6902FA50
:1017EC0003F3DA43BB681A407B699A404FF0FF3130
:1017FC007B6901FA03F3D9437B680B40134318460A
:10180C002437BD4680BC704780B582B000AF78608D
:10181C007B68013BB3F1807F01D301230FE00A4ABF
:10182C007B68013B53600F214FF0FF30FFF790FFB7
:10183C00054B00229A60044B07221A6000231846BD
:10184C000837BD4680BD00BF10E000E080B582B017
:10185C0000AF78607868FFF72DFF00BF0837BD46F2
:10186C0080BD80B586B000AF0346B9607A60FB736B
:10187C0000237B61FFF742FF78617A68B968786969
:10188C00FFF790FF024697F90F3011461846FFF705
:10189C005FFF00BF1837BD4680BD80B582B000AF7A
:1018AC000346FB7197F907301846FFF735FF00BF69
:1018BC000837BD4680BD80B582B000AF78607868CF
:1018CC00FFF7A2FF034618460837BD4680BD00004F
:1018DC0080B48BB000AF7860396000237B6200234A
:1018EC003B6248E101227B6A02FA03F3FB613B682D
:1018FC001B68FA691340BB61BA69FB699A4240F0F4
:10190C0037813B685B68A34A93425ED0A14A9342FD
:10191C0075D8A14A934258D09F4A93426FD89F4A98
:10192C00934252D09D4A934269D89D4A93424CD0DF
:10193C009B4A934263D89B4A934246D0994A93421E
:10194C005DD8122B2AD8122B59D801A252F823F0A9
:10195C00D7190008B1190008C3190008051A0008A6
:10196C000B1A00080B1A00080B1A00080B1A0008B7
:10197C000B1A00080B1A00080B1A00080B1A0008A7
:10198C000B1A00080B1A00080B1A00080B1A000897
:10199C000B1A0008B9190008CD190008824A9342A5
:1019AC0013D02CE03B68DB683B6229E03B68DB68CA
:1019BC0004333B6224E03B68DB6808333B621FE086
:1019CC003B68DB680C333B621AE03B689B68002B7E
:1019DC0002D104233B6213E03B689B68012B05D1C9
:1019EC0008233B627B68FA691A6109E008233B62B1
:1019FC007B68FA695A6103E000233B6200E000BF98
:101A0C00BB69FF2B01D87B6801E07B6804337B61E9
:101A1C00BB69FF2B02D87B6A9B0002E07B6A083B08
:101A2C009B003B617B691A680F213B6901FA03F348
:101A3C00DB431A40396A3B6901FA03F31A437B69A9
:101A4C001A603B685B6803F08053002B00F09080B9
:101A5C00564B9B69554A43F001039361534B9B6969
:101A6C0003F00103BB60BB68514A7B6A9B080233DD
:101A7C0052F82330FB607B6A03F003039B000F22B8
:101A8C0002FA03F3DB43FA681340FB607B68494AB4
:101A9C0093420DD07B68484A934207D07B68474AF3
:101AAC00934201D1022304E0032302E0012300E06E
:101ABC0000237A6A02F0030292009340FA681343FF
:101ACC00FB603B497B6A9B080233FA6841F8232090
:101ADC003B685B6803F48013002B06D0384B9A6884
:101AEC003749BB6913438B6006E0354B9A68BB6979
:101AFC00DB43334913408B603B685B6803F4001392
:101B0C00002B06D02E4BDA682D49BB691343CB60F2
:101B1C0006E02B4BDA68BB69DB4329491340CB60E9
:101B2C003B685B6803F40033002B06D0244B5A68E7
:101B3C002349BB6913434B6006E0214B5A68BB69D0
:101B4C00DB431F4913404B603B685B6803F48033F5
:101B5C00002B06D01A4B1A681949BB6913430B604A
:101B6C0006E0174B1A68BB69DB43154913400B6041
:101B7C007B6A01337B623B681A687B6A22FA03F347
:101B8C00002B7FF4AFAE00BF00BF2C37BD4680BC2E
:101B9C00704700BF0000321000003110000022100E
:101BAC000000211000001210000011100010024063
:101BBC000000014000080140000C014000100140F1
:101BCC000004014080B485B000AF78600B467B8088
:101BDC007B689A687B881340002B02D00123FB732F
:101BEC0001E00023FB73FB7B18461437BD4680BC19
:101BFC00704780B483B000AF78600B467B8013468F
:101C0C007B707B78002B03D07A887B681A6103E0A9
:101C1C007B881A047B681A6100BF0C37BD4680BCF8
:101C2C00704780B485B000AF78600B467B807B68D2
:101C3C00DB68FB607A88FB6813401A04FB68D943A5
:101C4C007B880B401A437B681A6100BF1437BD4672
:101C5C0080BC704780B586B000AF78607B68002B85
:101C6C0001D101236CE27B681B6803F00103002B9C
:101C7C0000F08780924B5B6803F00C03042B0CD0B4
:101C8C008F4B5B6803F00C03082B12D18C4B5B68F9
:101C9C0003F48033B3F5803F0BD1894B1B6803F4FD
:101CAC000033002B6CD07B685B68002B68D1012360
:101CBC0046E27B685B68B3F5803F06D1804B1B68BE
:101CCC007F4A43F4803313602EE07B685B68002B03
:101CDC000CD17B4B1B687A4A23F480331360784B0E
:101CEC001B68774A23F4802313601DE07B685B68D4
:101CFC00B3F5A02F0CD1724B1B68714A43F48023AF
:101D0C0013606F4B1B686E4A43F4803313600BE017
:101D1C006B4B1B686A4A23F480331360684B1B6857
:101D2C00674A23F4802313607B685B68002B13D015
:101D3C00FFF7B6FC386108E0FFF7B2FC02463B69DE
:101D4C00D31A642B01D90323FAE15D4B1B6803F40E
:101D5C000033002BF0D014E0FFF7A2FC386108E050
:101D6C00FFF79EFC02463B69D31A642B01D903236F
:101D7C00E6E1534B1B6803F40033002BF0D100E079
:101D8C0000BF7B681B6803F00203002B63D04C4B35
:101D9C005B6803F00C03002B0BD0494B5B6803F022
:101DAC000C03082B1CD1464B5B6803F48033002BCF
:101DBC0016D1434B1B6803F00203002B05D07B6844
:101DCC001B69012B01D00123BAE13D4B1B6823F0A9
:101DDC00F8027B685B69DB00394913430B603AE01E
:101DEC007B681B69002B20D0364B01221A60FFF751
:101DFC0057FC386108E0FFF753FC02463B69D31AE5
:101E0C00022B01D903239BE12D4B1B6803F002032A
:101E1C00002BF0D02A4B1B6823F0F8027B685B691F
:101E2C00DB00274913430B6015E0264B00221A6098
:101E3C00FFF736FC386108E0FFF732FC02463B69DD
:101E4C00D31A022B01D903237AE11D4B1B6803F033
:101E5C000203002BF0D17B681B6803F00803002BF6
:101E6C003AD07B689B69002B19D0174B01221A6062
:101E7C00FFF716FC386108E0FFF712FC02463B69DD
:101E8C00D31A022B01D903235AE10D4B5B6A03F0E1
:101E9C000203002BF0D0012000F09AFA1CE00A4B50
:101EAC0000221A60FFF7FCFB38610FE0FFF7F8FB2C
:101EBC0002463B69D31A022B08D9032340E100BF29
:101ECC000010024000004242800442429E4B5B6A7A
:101EDC0003F00203002BE9D17B681B6803F00403B9
:101EEC00002B00F0A6800023FB75974BDB6903F0F9
:101EFC008053002B0DD1944BDB69934A43F08053F4
:101F0C00D361914BDB6903F08053BB60BB68012349
:101F1C00FB758E4B1B6803F48073002B18D18B4B15
:101F2C001B688A4A43F480731360FFF7B9FB38616E
:101F3C0008E0FFF7B5FB02463B69D31A642B01D9C5
:101F4C000323FDE0814B1B6803F48073002BF0D05E
:101F5C007B68DB68012B06D17B4B1B6A7A4A43F00A
:101F6C00010313622DE07B68DB68002B0CD1764BF0
:101F7C001B6A754A23F001031362734B1B6A724A86
:101F8C0023F0040313621CE07B68DB68052B0CD187
:101F9C006D4B1B6A6C4A43F0040313626A4B1B6A59
:101FAC00694A43F0010313620BE0674B1B6A664AF4
:101FBC0023F001031362644B1B6A634A23F004038E
:101FCC0013627B68DB68002B15D0FFF769FB386167
:101FDC000AE0FFF765FB02463B69D31A41F28832EF
:101FEC00934201D90323ABE0574B1B6A03F0020366
:101FFC00002BEED014E0FFF753FB38610AE0FFF73B
:10200C004FFB02463B69D31A41F28832934201D905
:10201C00032395E04C4B1B6A03F00203002BEED11B
:10202C00FB7D012B05D1484BDB69474A23F08053DC
:10203C00D3617B68DB69002B00F08180424B5B68CD
:10204C0003F00C03082B61D07B68DB69022B46D1B3
:10205C003F4B00221A60FFF723FB386108E0FFF7C3
:10206C001FFB02463B69D31A022B01D9032367E0FD
:10207C00354B1B6803F00073002BF0D17B681B6A97
:10208C00B3F5803F08D1304B5B6823F400327B689A
:10209C009B682D4913434B602B4B5B6823F47412E4
:1020AC007B68196A7B685B6A0B43274913434B6057
:1020BC00274B01221A60FFF7F3FA386108E0FFF7AB
:1020CC00EFFA02463B69D31A022B01D9032337E0FE
:1020DC001D4B1B6803F00073002BF0D02FE01C4B42
:1020EC0000221A60FFF7DCFA386108E0FFF7D8FA33
:1020FC0002463B69D31A022B01D9032320E0124B71
:10210C001B6803F00073002BF0D118E07B68DB69CF
:10211C00012B01D1012313E00B4B5B68FB60FB68C7
:10212C0003F480327B681B6A9A4206D1FB6803F485
:10213C0070127B685B6A9A4201D0012300E0002395
:10214C0018461837BD4680BD001002400070004094
:10215C006000424280B584B000AF786039607B6823
:10216C00002B01D10123D0E06A4B1B6803F007035D
:10217C003A689A4210D9674B1B6823F007026549ED
:10218C003B6813430B60634B1B6803F007033A680F
:10219C009A4201D00123B8E07B681B6803F002036C
:1021AC00002B20D07B681B6803F00403002B05D0A8
:1021BC00594B5B68584A43F4E06353607B681B6877
:1021CC0003F00803002B05D0534B5B68524A43F4D1
:1021DC0060535360504B5B6823F0F0027B689B6844
:1021EC004D4913434B607B681B6803F00103002BC4
:1021FC0040D07B685B68012B07D1474B1B6803F40D
:10220C000033002B15D101237FE07B685B68022B28
:10221C0007D1414B1B6803F00073002B09D101233C
:10222C0073E03D4B1B6803F00203002B01D101232B
:10223C006BE0394B5B6823F003027B685B683649C3
:10224C0013434B60FFF72CFAF8600AE0FFF728FA0B
:10225C000246FB68D31A41F28832934201D9032318
:10226C0053E02D4B5B6803F00C027B685B689B00B2
:10227C009A42EBD1274B1B6803F007033A689A424A
:10228C0010D2244B1B6823F0070222493B681343EE
:10229C000B60204B1B6803F007033A689A4201D08D
:1022AC00012332E07B681B6803F00403002B08D089
:1022BC00194B5B6823F4E0627B68DB6816491343B7
:1022CC004B607B681B6803F00803002B09D0124B92
:1022DC005B6823F460527B681B69DB000E49134377
:1022EC004B6000F021F802460B4B5B681B0903F0B6
:1022FC000F030A49CB5C22FA03F3094A1360094B1A
:10230C001B681846FFF78AF9002318461037BD469C
:10231C0080BD00BF0020024000100240F42D0008D8
:10232C000C0000201000002080B487B000AF002308
:10233C00FB600023BB6000237B6100237B600023D8
:10234C003B611E4B5B68FB60FB6803F00C03042BCA
:10235C0002D0082B03D027E0194B3B6127E0FB6828
:10236C009B0C03F00F03174AD35C7B60FB6803F4F0
:10237C008033002B10D0114B5B685B0C03F0010316
:10238C00114AD35CBB607B680D4A02FB03F2BB684D
:10239C00B2FBF3F37B6104E07B680C4A02FB03F3B2
:1023AC007B617B693B6102E0054B3B6100BF3B6994
:1023BC0018461C37BD4680BC704700BF0010024059
:1023CC0000127A00042E0008142E000800093D00AB
:1023DC0080B485B000AF78600A4B1B680A4AA2FB38
:1023EC0003235B0A7A6802FB03F3FB6000BFFB6804
:1023FC005A1EFA60002BF9D100BF00BF1437BD463E
:10240C0080BC70470C000020D34D621080B582B0A8
:10241C0000AF78607B68002B01D1012341E07B6821
:10242C0093F83D30DBB2002B06D17B68002283F899
:10243C003C207868FEF784FF7B68022283F83D20FD
:10244C007B681A687B6804331946104600F056FA0C
:10245C007B68012283F846207B68012283F83E20AA
:10246C007B68012283F83F207B68012283F840209F
:10247C007B68012283F841207B68012283F842208B
:10248C007B68012283F843207B68012283F8442077
:10249C007B68012283F845207B68012283F83D206C
:1024AC00002318460837BD4680BD000080B485B0B7
:1024BC0000AF78607B6893F83D30DBB2012B01D024
:1024CC00012335E07B68022283F83D207B681B6882
:1024DC00DA687B681B6842F00102DA607B681B6873
:1024EC00164A934209D07B681B68B3F1804F04D025
:1024FC007B681B68124A934211D17B681B689B68EE
:10250C0003F00703FB60FB68062B10D07B681B688D
:10251C001A687B681B6842F001021A6007E07B684E
:10252C001B681A687B681B6842F001021A60002362
:10253C0018461437BD4680BC704700BF002C0140C4
:10254C000004004080B584B000AF78607B681B68E5
:10255C00DB68FB607B681B681B69BB60BB6803F0B6
:10256C000203002B20D0FB6803F00203002B1BD0CE
:10257C007B681B686FF002021A617B6801221A7774
:10258C007B681B689B6903F00303002B03D07868FE
:10259C0000F098F905E0786800F08BF9786800F0A5
:1025AC009AF97B6800221A77BB6803F00403002BAE
:1025BC0020D0FB6803F00403002B1BD07B681B6846
:1025CC006FF004021A617B6802221A777B681B6821
:1025DC009B6903F44073002B03D0786800F072F908
:1025EC0005E0786800F065F9786800F074F97B68AC
:1025FC0000221A77BB6803F00803002B20D0FB687D
:10260C0003F00803002B1BD07B681B686FF00802DB
:10261C001A617B6804221A777B681B68DB6903F0FC
:10262C000303002B03D0786800F04CF905E07868C0
:10263C0000F03FF9786800F04EF97B6800221A77B9
:10264C00BB6803F01003002B20D0FB6803F01003D1
:10265C00002B1BD07B681B686FF010021A617B6823
:10266C0008221A777B681B68DB6903F44073002B24
:10267C0003D0786800F026F905E0786800F019F9C5
:10268C00786800F028F97B6800221A77BB6803F0A1
:10269C000103002B0CD0FB6803F00103002B07D0C7
:1026AC007B681B686FF001021A617868FEF796FC74
:1026BC00BB6803F08003002B0CD0FB6803F0800395
:1026CC00002B07D07B681B686FF080021A6178685A
:1026DC0000F06FFABB6803F04003002B0CD0FB68D2
:1026EC0003F04003002B07D07B681B686FF040029F
:1026FC001A61786800F0F8F8BB6803F02003002B2F
:10270C000CD0FB6803F02003002B07D07B681B6800
:10271C006FF020021A61786800F042FA00BF10379F
:10272C00BD4680BD80B584B000AF786039600023B1
:10273C00FB737B6893F83C30012B01D10223B4E08E
:10274C007B68012283F83C207B68022283F83D20C1
:10275C007B681B689B68BB60BB6823F07703BB601E
:10276C00BB6823F47F43BB607B681B68BA689A60C4
:10277C003B681B68B3F5005F3ED0B3F5005F00F219
:10278C008780B3F5805F00F08680B3F5805F7FD8DB
:10279C00702B1AD0702B7BD8602B50D0602B77D835
:1027AC00502B3CD0502B73D8402B58D0402B6FD88B
:1027BC00302B64D0302B6BD8202B60D0202B67D8DB
:1027CC00002B5CD0102B5AD062E07B6818683B68F9
:1027DC0099683B685A683B68DB6800F06AF97B686B
:1027EC001B689B68BB60BB6843F07703BB607B686E
:1027FC001B68BA689A604FE07B6818683B689968F8
:10280C003B685A683B68DB6800F053F97B681B68CF
:10281C009A687B681B6842F480429A603CE07B6853
:10282C0018683B6859683B68DB681A4600F0CAF8C0
:10283C007B681B685021184600F021F92CE07B685E
:10284C0018683B6859683B68DB681A4600F0E8F882
:10285C007B681B686021184600F011F91CE07B684E
:10286C0018683B6859683B68DB681A4600F0AAF8A0
:10287C007B681B684021184600F001F90CE07B686E
:10288C001A683B681B681946104600F0F8F803E01C
:10289C000123FB7300E000BF7B68012283F83D201D
:1028AC007B68002283F83C20FB7B18461037BD4622
:1028BC0080BD80B483B000AF786000BF0C37BD46DC
:1028CC0080BC704780B483B000AF786000BF0C3719
:1028DC00BD4680BC704780B483B000AF786000BF49
:1028EC000C37BD4680BC704780B483B000AF7860B5
:1028FC0000BF0C37BD4680BC7047000080B485B06B
:10290C0000AF786039607B681B68FB607B682B4A82
:10291C00934207D07B68B3F1804F03D07B68284A81
:10292C00934208D1FB6823F07003FB603B685B6843
:10293C00FA681343FB607B68204A934207D07B689C
:10294C00B3F1804F03D07B681D4A934208D1FB68DA
:10295C0023F44073FB603B68DB68FA681343FB604D
:10296C00FB6823F080023B685B691343FB607B6868
:10297C00FA681A603B689A687B68DA623B681A6886
:10298C007B689A627B680D4A934203D13B681A6953
:10299C007B681A637B6801225A617B681B6903F0B0
:1029AC000103002B05D07B681B6923F001027B68B7
:1029BC001A6100BF1437BD4680BC7047002C014023
:1029CC000004004080B487B000AFF860B9607A6052
:1029DC00FB681B6A7B61FB681B6A23F00102FB68C6
:1029EC001A62FB689B693B613B6923F0F0033B6116
:1029FC007B681B013A6913433B617B6923F00A0333
:102A0C007B617A69BB6813437B61FB683A699A61A5
:102A1C00FB687A691A6200BF1C37BD4680BC7047E0
:102A2C0080B487B000AFF860B9607A60FB681B6A4D
:102A3C007B61FB681B6A23F01002FB681A62FB685F
:102A4C009B693B613B6923F470433B617B681B03CF
:102A5C003A6913433B617B6923F0A0037B61BB683C
:102A6C001B017A6913437B61FB683A699A61FB68C5
:102A7C007A691A6200BF1C37BD4680BC704780B4AF
:102A8C0085B000AF786039607B689B68FB60FB6841
:102A9C0023F07003FB603A68FB68134343F00703B1
:102AAC00FB607B68FA689A6000BF1437BD4680BC37
:102ABC00704780B487B000AFF860B9607A603B6053
:102ACC00FB689B687B617B6923F47F437B613B687C
:102ADC001A027B681A43BB6813437A6913437B6100
:102AEC00FB687A699A6000BF1C37BD4680BC704792
:102AFC0080B485B000AF786039607B6893F83C3067
:102B0C00012B01D1022341E07B68012283F83C2098
:102B1C007B68022283F83D207B681B685B68FB6046
:102B2C007B681B689B68BB60FB6823F07003FB60D1
:102B3C003B681B68FA681343FB607B681B68FA6888
:102B4C005A607B681B68144A934209D07B681B68E7
:102B5C00B3F1804F04D07B681B68104A93420CD1B0
:102B6C00BB6823F08003BB603B685B68BA681343A7
:102B7C00BB607B681B68BA689A607B68012283F82B
:102B8C003D207B68002283F83C2000231846143734
:102B9C00BD4680BC704700BF002C014000040040C3
:102BAC0080B483B000AF786000BF0C37BD4680BCEA
:102BBC00704780B483B000AF786000BF0C37BD465F
:102BCC0080BC7047014B1868704700BF180000208C
:102BDC0070B500260C4D0D4C641BA410A64209D1F7
:102BEC0000F0F6F800260A4D0A4C641BA410A6420D
:102BFC0005D170BD55F8043B98470136EEE755F802
:102C0C00043B98470136F2E7182E0008182E0008EE
:102C1C00182E00081C2E0008024B0146186800F004
:102C2C005FB800BF18000020024B0146186800F086
:102C3C000BB800BF1800002003460244934200D199
:102C4C00704703F8011BF9E738B50546002943D056
:102C5C0051F8043C0C1F002BB8BFE41800F0AAF884
:102C6C001E4A1368104633B9636014602846BDE8E9
:102C7C00384000F0A5B8A3420AD9216862189342E3
:102C8C0001BF1A685B685218226063600460EDE74C
:102C9C001A465B680BB1A342FAD911685018A042CE
:102CAC000BD120680144501883421160DED11868A2
:102CBC005B68014411605360D8E702D90C232B6088
:102CCC00D4E7206821188B4201BF19685B6809188A
:102CDC00216063605460C9E738BD00BFB4000020B8
:102CEC00F8B5CD1C25F0030508350C2D38BF0C2587
:102CFC00002D064601DBA94203D90C2333600020CA
:102D0C00F8BD00F057F821490A6814469CB9204FC9
:102D1C003B6823B92146304600F03CF83860294620
:102D2C00304600F037F8431C23D10C233046336077
:102D3C0000F046F8E3E723685B1B17D40B2B03D991
:102D4C0023601C44256004E06368A2420CBF0B6046
:102D5C005360304600F034F804F10B00231D20F0D2
:102D6C000700C21ACCD01B1AA350C9E722466468CC
:102D7C00CCE7C41C24F00304A042E3D0211A304653
:102D8C0000F008F80130DDD1CFE700BFB40000201F
:102D9C00B800002038B50023054D044608462B60CA
:102DAC00FEF724FB431C02D12B6803B1236038BD12
:102DBC0058010020014800F009B800BF6001002054
:102DCC00014800F004B800BF600100207047704754
:102DDC00F8B500BFF8BC08BC9E467047F8B500BFFC
:082DEC00F8BC08BC9E467047CC
:102DF40000000000000000000102030406070809A7
:102E040002030405060708090A0B0C0D0E0F101027
:042E140001020000B7
:042E1800310100087C
:042E1C000D0100089C
:102E200001000000B80B0000D007000000127A007B
:102E300010000000010000001C0000200000000045
:102E40000000000000000000000000000000000082
:102E50000000000000000000000000000000000072
:102E60000000000000000000000000000000000062
:102E70000000000000000000000000000000000052
:102E80000000000000000000000000000000000042
:0C2E900000000000000000000000000036
:04000005080015B129
:00000001FF
