:020000040800F2
:100000000028002019140008F5110008FB11000851
:1000100001120008071200080D120008000000007D
:1000200000000000000000000000000013120008A3
:100030001F120008000000002B12000837120008F1
:1000400061140008611400086114000861140008BC
:1000500061140008611400086114000861140008AC
:10006000611400086114000861140008611400089C
:10007000611400086114000861140008611400088C
:10008000611400086114000861140008611400087C
:10009000611400086114000861140008611400086C
:1000A000611400086114000861140008611400085C
:1000B00045120008611400080000000061140008E7
:1000C0006114000800000000000000006114000836
:1000D0000000000061140008611400080000000026
:1000E0006114000861140008611400080000000099
:1000F0000000000000000000000000000000000000
:0C01000000000000000000005FF808F1A3
:10010C0010B5054C237833B9044B13B10448AFF345
:10011C0000800123237010BD44000020000000006B
:10012C00902A000808B5034B1BB103490348AFF3F1
:10013C00008008BD0000000048000020902A000844
:10014C0080B500AF234B5B69012B12D14FF480516A
:10015C00214801F06BFC0346002B0AD11F4B0122F6
:10016C001A6020211C4801F090FC3221052001F07E
:10017C0073F8184B9B69012B12D14FF400511648A0
:10018C0001F054FC0346002B0AD1144B01225A6097
:10019C002021114801F079FC3221062001F05CF895
:1001AC000C4BDB69012B12D14FF480410A4801F052
:1001BC003DFC0346002B0AD1084B01229A602021FA
:1001CC00054801F062FC3221072001F045F800BF20
:1001DC0080BD00BF14000020000801400C0100206D
:1001EC0080B483B000AF7860094A7B6852F8233042
:1001FC00012B06D1064A7B68002142F8231001230B
:10020C0000E0002318460C37BD4680BC704700BF89
:10021C000C01002080B500AFB24B1B68013B042BD6
:10022C0000F2A48101A252F823F000BF4D02000895
:10023C00A302000835030008CB0300085B04000888
:10024C0000F0E6FDA74B02221A60022001F044F8F0
:10025C001821002001F000F8A34B1B68194601205F
:10026C0000F0FAFF6421022000F0F6FF00F088F99C
:10027C009E4B1B68013B9D4A13609C4B1A689B4B21
:10028C005B68013B99494B60984B5B68194610467B
:10029C0000F090FB37E1964B9B68012B40F02081DE
:1002AC00924B1B68013B914A1360904B1A688F4B21
:1002BC005B68013B8D494B608C4B5B681946104663
:1002CC0000F078FB6421022000F0C6FF182100200A
:1002DC0000F0C2FF874B00221A60854B5B68012B34
:1002EC0040F0FE807F4B03221A60804B9B68013BE1
:1002FC007E4A93607D4B9B687C4A926811461846F7
:10030C0000F058FB7C4B1B681946012000F0A4FF41
:10031C006421022000F0A0FF1821002000F09CFFB7
:10032C00032000F0D9FFDBE0714B9B68012B40F000
:10033C00E5806E4B9B68013B6C4A93606B4B9B68F2
:10034C006A4A92681146184600F034FB6421022078
:10035C0000F082FF1821002000F07EFF654B002288
:10036C001A60634B5B68012B40F0C8805D4B042224
:10037C001A6000F005F95D4B5B68013B5B4A53600A
:10038C005A4B5A68594B1B68013B58490B60574BE9
:10039C001B681946104600F00DFB534B1B681946A1
:1003AC00012000F059FF6421022000F055FF1821B4
:1003BC00002000F051FF042000F08EFF9EE04C4B1B
:1003CC009B68012B40F09C80484B5B68013B474A83
:1003DC005360464B5A68454B1B68013B43490B60C5
:1003EC00424B1B681946104600F0E4FA64210220C7
:1003FC0000F032FF1821002000F02EFF3D4B0022B0
:10040C001A603B4B5B68012B7AD1364B05221A6084
:10041C00364B9B68013B354A9360344B9B68334A9F
:10042C0092681146184600F0C5FA334B1B68194602
:10043C00012000F011FF6421022000F00DFF1821B3
:10044C00002000F009FF052000F046FF58E0284B83
:10045C009B68012B56D1254B9B68013B234A93602B
:10046C00224B9B68214A92681146184600F0A2FA6A
:10047C006421022000F0F0FE1821002000F0ECFEB8
:10048C001C4B00221A601A4B5B68012B3AD1154B9E
:10049C0002221A6000F074F8144B1B68013B134ADB
:1004AC001360124B1A68114B5B68013B0F494B6090
:1004BC000E4B5B681946104600F07CFA0A4B1B6821
:1004CC001946012000F0C8FE6421022000F0C4FE91
:1004DC001821002000F0C0FE022000F0FDFE11E00B
:1004EC0000BF10E000000020040000205C01002090
:1004FC0014000020680000200800002000BF02E06B
:10050C0000BF00E000BF0020FFF76AFE0346002B8F
:10051C000FD000F035F8164B1B681E33144A1360CD
:10052C00144B1B681946012000F096FE00F0B2FC3B
:10053C001DE00220FFF754FE0346002B05D000F00F
:10054C0067FC0B4B0B221A6011E00B4B1B68012B49
:10055C000DD10A4B1B685A1C08490A60184600F05A
:10056C0065FA1821002000F077FE00E000BF80BD86
:10057C00000000200C000020140000206800002067
:10058C0080B400AF0F4B1B680F4A82FB0312521151
:10059C00DB17D31A0D4A53600D4B1B680A4A82FBBA
:1005AC0003125211DB17D31A084A9360074B5A688F
:1005BC00064B9B681344054A136000BFBD4680BCC4
:1005CC00704700BF040000201F85EB515C01002028
:1005DC000800002080B500AF3C4B1B68203B032B70
:1005EC0071D801A252F823F0050600082B0600086A
:1005FC0051060008770600080120FFF7F1FD0346BD
:10060C00002B45D0032000F067FE304B21221A60EE
:10061C002F4B1B681946012000F01EFE38E001200C
:10062C00FFF7DEFD0346002B34D0042000F054FE0F
:10063C00264B22221A60264B1B681946012000F01B
:10064C000BFE27E00120FFF7CBFD0346002B23D048
:10065C00052000F041FE1D4B23221A601C4B1B6829
:10066C001946012000F0F8FD16E00120FFF7B8FD57
:10067C000346002B12D0022000F02EFE134B20223A
:10068C001A60134B1B681946012000F0E5FD05E0CC
:10069C0000BF04E000BF02E000BF00E000BF0D4B54
:1006AC005B68012B05D1094B1B681F3B074A136084
:1006BC000AE00220FFF794FD0346002B04D0034B05
:1006CC000D221A6000E000BF80BD00BF00000020BA
:1006DC000C0000201400002080B500AF8F4B1B686D
:1006EC000D2B00F0BE800D2B00F359810B2B02D08B
:1006FC000C2B55D053E10B2000F052FE0120FFF7DC
:10070C006FFD0346002B16D0854B1B680133844AC2
:10071C001360844B1B680133824A1360814B1B6846
:10072C00622B02DD7F4B00221A607E4B1B68194640
:10073C00002000F03FF90020FFF752FD0346002B8C
:10074C0000F0E880754B0C221A60764B1B68642213
:10075C0002FB03F3734A1360724B1A68724B1B68EB
:10076C005340704A13606F4B1A686F4B1B685340B1
:10077C006D4A13606B4B1A686B4B1B685340694A8C
:10078C001360674B1B68002B03DC664B1B68664AC7
:10079C001360634B00221A60624B00221A60B9E0AE
:1007AC000C2000F0FDFD0120FFF71AFD0346002B85
:1007BC0020D05B4B1B680133594A1360594B1B68A3
:1007CC000133584A1360584B1B68584A82FB03127A
:1007DC005211DB179B1A03F16302524B1B689A42AE
:1007EC0002DA504B00221A604E4B1B68194600204F
:1007FC0000F0E0F80020FFF7F3FC0346002B00F0BC
:10080C008B80464B01221A6000F002FB454B1B68A3
:10081C00642202FB03F3434A1360424B1A68444BB5
:10082C001B6853403F4A13603E4B1A68404B1B6891
:10083C0053403F4A13603B4B1A683D4B1B68534077
:10084C00384A1360364B1B68002B03DC354B1B6896
:10085C00374A1360324B00221A60324B00221A6066
:10086C005AE00120FFF7BCFC0346002B16D02C4BA2
:10087C001B6801332A4A13602A4B1B680133294A2F
:10088C001360284B1B68632B02DD264B00221A6079
:10089C00244B1B681946002000F08CF80020FFF751
:1008AC009FFC0346002B47D01C4B20221A601D4B8B
:1008BC001B68642202FB03F31A4A1360194B1A6873
:1008CC001C4B1B685340174A1360164B1A68194B84
:1008DC001B685340174A1360124B1A68154B1B6860
:1008EC005340104A13600E4B1B68002B03DC0D4B5E
:1008FC001B68104A13600F4B1B681946012000F04F
:10090C00ABFC00F0C7FA064B00221A60054B002224
:10091C001A6011E000BF10E000BF0EE000000020E4
:10092C006400002060000020040000201F85EB51B3
:10093C00080000200C00002000BF0220FFF750FC34
:10094C000346002B05D0174B00221A60164B0022D1
:10095C001A60164B9B68012B10D1134B1B68194660
:10096C00002000F027F86421022000F075FC18210B
:10097C00002000F071FC0E4B00221A600B4B1B6820
:10098C00012B0DD10A4B1B685A1C09490A601846E9
:10099C0000F04CF81821002000F05EFC00E000BFD5
:1009AC0080BD00BF64000020600000201400002007
:1009BC006800002080B483B000AF7860396039687B
:1009CC00184B83FB01239A10CB17D21A13469B00AA
:1009DC0013445B00CA1A144BDA603B68114A82FB61
:1009EC0003129210DB17D31A0F4A936079680D4BE0
:1009FC0083FB01239A10CB17D21A13469B00134486
:100A0C005B00CA1A084B5A607B68064A82FB0312C9
:100A1C009210DB17D31A044A136000BF0C37BD4683
:100A2C0080BC7047676666668401002080B582B022
:100A3C0000AF7860012202212B4801F00EF8012250
:100A4C000421294801F009F801220821264801F067
:100A5C0004F801221021244800F0FFFF7B68032BCF
:100A6C003ED801A252F823F0850A00089F0A00081C
:100A7C00B90A0008D30A0008002202211A4800F023
:100A8C00ECFF1A4A7B6852F82330184600F030F815
:100A9C0026E000220421144800F0DFFF134A7B6893
:100AAC0052F82330184600F023F819E000220821F0
:100ABC000D4800F0D2FF0D4A7B6852F823301846DF
:100ACC0000F016F80CE000221021074800F0C5FFDA
:100ADC00064A7B6852F82330184600F009F800BF2C
:100AEC0000BF0837BD4680BD0008014084010020CE
:100AFC0080B582B000AF78607B68092B00F28081F2
:100B0C0001A252F823F000BF3D0B0008850B000832
:100B1C00CD0B0008150C00085D0C0008A50C000896
:100B2C00ED0C0008350D00087D0D0008C50D000802
:100B3C0000220121B54800F090FF00220221B348A9
:100B4C0000F08BFF00220421B04800F086FF002249
:100B5C000821AE4800F081FF00221021AB4800F0C4
:100B6C007CFF00222021A94800F077FF01224021C0
:100B7C00A64800F072FF44E101220121A34800F0D5
:100B8C006CFF00220221A14800F067FF0022042123
:100B9C009E4800F062FF012208219C4800F05DFF96
:100BAC0001221021994800F058FF0122202197487A
:100BBC0000F053FF01224021944800F04EFF20E149
:100BCC0000220121914800F048FF002202218F48A9
:100BDC0000F043FF012204218C4800F03EFF00226C
:100BEC0008218A4800F039FF00221021874800F0C4
:100BFC0034FF01222021854800F02FFF00224021E4
:100C0C00824800F02AFFFCE0002201217F4800F01E
:100C1C0024FF002202217D4800F01FFF0022042146
:100C2C007A4800F01AFF00220821784800F015FFDE
:100C3C0001221021754800F010FF01222021734879
:100C4C0000F00BFF00224021704800F006FFD8E0B6
:100C5C00012201216D4800F000FF002202216B48A7
:100C6C0000F0FBFE00220421684800F0F6FE012291
:100C7C000821664800F0F1FE01221021634800F0C3
:100C8C00ECFE00222021614800F0E7FE002240210A
:100C9C005E4800F0E2FEB4E0002201215B4800F067
:100CAC00DCFE01220221594800F0D7FE002204216B
:100CBC00564800F0D2FE00220821544800F0CDFE28
:100CCC0001221021514800F0C8FE002220214F487B
:100CDC0000F0C3FE002240214C4800F0BEFE90E024
:100CEC0000220121494800F0B8FE012202214748A8
:100CFC0000F0B3FE00220421444800F0AEFE0022B6
:100D0C000821424800F0A9FE002210213F4800F0C3
:100D1C00A4FE002220213D4800F09FFE002240212D
:100D2C003A4800F09AFE6CE000220121374800F0AE
:100D3C0094FE00220221354800F08FFE002204218F
:100D4C00324800F08AFE01220821304800F085FE6E
:100D5C00012210212D4800F080FE012220212B4879
:100D6C0000F07BFE01224021284800F076FE48E08E
:100D7C0000220121254800F070FE002202212348A8
:100D8C0000F06BFE00220421204800F066FE0022D9
:100D9C0008211E4800F061FE002210211B4800F0C3
:100DAC005CFE00222021194800F057FE0022402151
:100DBC00164800F052FE24E000220121134800F0F6
:100DCC004CFE00220221114800F047FE00220421B3
:100DDC000E4800F042FE002208210C4800F03DFEB7
:100DEC0001221021094800F038FE0022202107487A
:100DFC0000F033FE00224021044800F02EFE00E0FB
:100E0C0000BF00BF0837BD4680BD00BF000C0140CD
:100E1C0080B500AF002202211D4800F01EFE00220A
:100E2C0004211B4800F019FE00220821184800F08C
:100E3C0014FE00221021164800F00FFE0022202183
:100E4C00134800F00AFE00224021114800F005FE74
:100E5C00002280210E4800F000FE00224FF4807129
:100E6C000B4800F0FAFD00224FF40071084800F026
:100E7C00F4FD00224FF48061054800F0EEFD0022E5
:100E8C004FF40061024800F0E8FD00BF80BD00BFD8
:100E9C000008014080B500AF01220121114800F08B
:100EAC00DCFD012202210F4800F0D7FD01220421B4
:100EBC000C4800F0D2FD012208210A4800F0CDFDBB
:100ECC0001221021074800F0C8FD0122202105480D
:100EDC0000F0C3FD01224021024800F0BEFD00BF1E
:100EEC0080BD00BF000C014080B500AF00F0B4FA2B
:100EFC0000F016F800F09CF800F04EF8064801F0EF
:100F0C0009FA064B01221A60FFF784F9FFF762FB1E
:100F1C00FFF7E2FBF8E700BF94010020000000207F
:100F2C0080B590B000AF07F11803282200211846B5
:100F3C0001F0A0FD3B1D00221A605A609A60DA6035
:100F4C001A610223BB610123BB621023FB620023E5
:100F5C007B6307F11803184600F0B0FD0346002B25
:100F6C0001D000F0E6F80F237B600023BB60002368
:100F7C00FB6000233B6100237B613B1D0021184675
:100F8C0001F01CF80346002B01D000F0D2F800BF92
:100F9C004037BD4680BD000080B586B000AF07F17C
:100FAC00080300221A605A609A60DA603B460022FD
:100FBC001A605A601D4B4FF080421A601B4B41F671
:100FCC003F725A60194B00229A60184B0922DA6062
:100FDC00164B00221A61154B00229A61134801F03E
:100FEC0049F90346002B01D000F0A3F84FF48053CD
:100FFC00BB6007F1080319460C4801F0C7FA034619
:10100C00002B01D000F095F800233B6000237B609F
:10101C003B461946054801F09FFC0346002B01D0C6
:10102C0000F087F800BF1837BD4680BD9401002042
:10103C0080B586B000AF07F1080300221A605A6031
:10104C009A60DA60284B9B69274A43F0040393614A
:10105C00254B9B6903F004037B607B68224B9B69E7
:10106C00214A43F0080393611F4B9B6903F008036B
:10107C003B603B68002240F6FE711C4800F0EDFC22
:10108C0000227F211A4800F0E8FC40F6FE73BB609A
:10109C000123FB6000233B6102237B6107F1080302
:1010AC001946124800F048FB7F23BB600123FB600C
:1010BC0000233B6102237B6107F1080319460C48AE
:1010CC0000F03AFB4FF4E043BB600023FB600123CC
:1010DC003B6107F108031946044800F02DFB00BFE3
:1010EC001837BD4680BD00BF00100240000801400B
:1010FC00000C014080B582B000AF7860002000F099
:10110C00C3F8012000F0C0F8022000F0BDF8032065
:10111C0000F0BAF8052000F0B7F8062000F0B4F89B
:10112C00072000F0B1F8FFF70BF800BF0837BD46F9
:10113C0080BD80B400AF72B600BFFEE780B485B04E
:10114C0000AF154B9B69144A43F001039361124B9A
:10115C009B6903F00103BB60BB680F4BDB690E4A54
:10116C0043F08053D3610C4BDB6903F080537B60FD
:10117C007B680A4B5B68FB60FB6823F0E063FB60F9
:10118C00FB6843F08063FB60044AFB68536000BF5C
:10119C001437BD4680BC704700100240000001406F
:1011AC0080B584B000AF78607B681B68B3F1804F6A
:1011BC0013D10C4BDB690B4A43F00103D361094B90
:1011CC00DB6903F00103FB60FB68002200211C209B
:1011DC0000F07BFA1C2000F094FA00BF1037BD46DB
:1011EC0080BD00BF0010024080B400AFFEE780B4A9
:1011FC0000AFFEE780B400AFFEE780B400AFFEE7BF
:10120C0080B400AFFEE780B400AF00BFBD4680BC29
:10121C00704780B400AF00BFBD4680BC704780B43F
:10122C0000AF00BFBD4680BC704780B500AF00F07A
:10123C0059F900BF80BD000080B500AF024801F035
:10124C00B5F800BF80BD00BF9401002080B400AF92
:10125C0000BFBD4680BC704780B483B000AF7860DF
:10126C003960074A7B68002142F8231005497B68E6
:10127C003A6841F8232000BF0C37BD4680BC70474C
:10128C0014000020DC01002080B483B000AF786033
:10129C000F4A7B6852F82330002B13DD0C4A7B6815
:1012AC0052F823305A1E0A497B6841F82320084A19
:1012BC007B6852F82330002B04DC064A7B68012142
:1012CC0042F8231000BF0C37BD4680BC704700BFEE
:1012DC00DC0100201400002080B582B000AF7860E3
:1012EC007B68023B032B53D801A252F823F000BFBA
:1012FC000D1300083D130008571300088513000850
:10130C0001224021254800F0A8FB00224FF48071F7
:10131C00224800F0A2FB00224FF400711F4800F09D
:10132C009CFB01224FF480611C4800F096FB30E0DE
:10133C0000224FF48061194800F08FFB01224FF41A
:10134C000061164800F089FB23E00022402113487D
:10135C0000F083FB01228021104800F07EFB01226B
:10136C004FF400710D4800F078FB00224FF400613F
:10137C000A4800F072FB0CE000228021074800F0C4
:10138C006CFB01224FF48071044800F066FB00E016
:10139C0000BF00BF0837BD4680BD00BF000801403C
:1013AC0080B582B000AF78607B680B2B03D07B6874
:1013BC000C2B0CD023E001228021134800F04DFBB4
:1013CC0001224FF48061104800F047FB17E0002227
:1013DC0080210D4800F041FB00224FF480610A4847
:1013EC0000F03BFB01224FF48071074800F035FB05
:1013FC0001224FF40061044800F02FFB00BF00BF36
:10140C000837BD4680BD00BF00080140FFF71EFF36
:10141C000B480C490C4A002302E0D458C450043346
:10142C00C4188C42F9D3094A094C002301E013601B
:10143C000432A242FBD301F0F9FAFFF755FD7047D5
:10144C000000002044000020D42A000844000020A2
:10145C0008020020FEE7000080B500AF084B1B68B7
:10146C00074A43F010031360032000F023F90F2008
:10147C0000F008F8FFF762FE0023184680BD00BF9D
:10148C000020024080B582B000AF7860124B1A6821
:10149C00124B1B7819464FF47A73B3FBF1F3B2FB82
:1014AC00F3F3184600F03BF90346002B01D001235F
:1014BC000EE07B680F2B0AD8002279684FF0FF30C2
:1014CC0000F003F9064A7B681360002300E0012357
:1014DC0018460837BD4680BD100000204000002093
:1014EC003C00002080B400AF054B1B781A46054B1E
:1014FC001B681344034A136000BFBD4680BC704791
:10150C00400000200402002080B400AF024B1B6896
:10151C001846BD4680BC70470402002080B485B0DC
:10152C0000AF78607B6803F00703FB600C4BDB6853
:10153C00BB60BA684FF6FF031340BB60FB681A022E
:10154C00BB68134343F0BF6343F40033BB60044AEE
:10155C00BB68D36000BF1437BD4680BC704700BF6A
:10156C0000ED00E080B400AF044BDB681B0A03F015
:10157C0007031846BD4680BC704700BF00ED00E075
:10158C0080B483B000AF0346FB7197F90730002B92
:10159C000BDBFB7903F01F02064997F907305B0957
:1015AC00012000FA02F241F8232000BF0C37BD469F
:1015BC0080BC704700E100E080B483B000AF03460C
:1015CC003960FB7197F90730002B0ADB3B68DAB204
:1015DC000C4997F907301201D2B20B4483F800235F
:1015EC000AE03B68DAB20849FB7903F00F03043BCD
:1015FC001201D2B20B441A7600BF0C37BD4680BC28
:10160C00704700BF00E100E000ED00E080B489B05D
:10161C0000AFF860B9607A60FB6803F00703FB6108
:10162C00FB69C3F10703042B28BF0423BB61FB69CF
:10163C000433062B02D9FB69033B00E000237B61DA
:10164C004FF0FF32BB6902FA03F3DA43BB681A406E
:10165C007B699A404FF0FF317B6901FA03F3D94360
:10166C007B680B40134318462437BD4680BC70473B
:10167C0080B582B000AF78607B68013BB3F1807FAE
:10168C0001D301230FE00A4A7B68013B53600F2111
:10169C004FF0FF30FFF790FF054B00229A60044B90
:1016AC0007221A60002318460837BD4680BD00BFCC
:1016BC0010E000E080B582B000AF78607868FFF78A
:1016CC002DFF00BF0837BD4680BD80B586B000AF8A
:1016DC000346B9607A60FB7300237B61FFF742FF1E
:1016EC0078617A68B9687869FFF790FF024697F9D4
:1016FC000F3011461846FFF75FFF00BF1837BD4685
:10170C0080BD80B582B000AF0346FB7197F90730FE
:10171C001846FFF735FF00BF0837BD4680BD80B5C2
:10172C0082B000AF78607868FFF7A2FF03461846D6
:10173C000837BD4680BD000080B48BB000AF786028
:10174C00396000237B6200233B6248E101227B6A03
:10175C0002FA03F3FB613B681B68FA691340BB6137
:10176C00BA69FB699A4240F037813B685B68A34ACF
:10177C0093425ED0A14A934275D8A14A934258D065
:10178C009F4A93426FD89F4A934252D09D4A9342AC
:10179C0069D89D4A93424CD09B4A934263D89B4A4A
:1017AC00934246D0994A93425DD8122B2AD8122BD9
:1017BC0059D801A252F823F03F1800081918000854
:1017CC002B1800086D18000873180008731800080F
:1017DC0073180008731800087318000873180008B1
:1017EC0073180008731800087318000873180008A1
:1017FC0073180008731800087318000821180008E3
:10180C0035180008824A934213D02CE03B68DB6801
:10181C003B6229E03B68DB6804333B6224E03B68B5
:10182C00DB6808333B621FE03B68DB680C333B62D0
:10183C001AE03B689B68002B02D104233B6213E047
:10184C003B689B68012B05D108233B627B68FA69D6
:10185C001A6109E008233B627B68FA695A6103E06C
:10186C0000233B6200E000BFBB69FF2B01D87B6803
:10187C0001E07B6804337B61BB69FF2B02D87B6A78
:10188C009B0002E07B6A083B9B003B617B691A680A
:10189C000F213B6901FA03F3DB431A40396A3B69B8
:1018AC0001FA03F31A437B691A603B685B6803F027
:1018BC008053002B00F09080564B9B69554A43F0A7
:1018CC0001039361534B9B6903F00103BB60BB683D
:1018DC00514A7B6A9B08023352F82330FB607B6AC7
:1018EC0003F003039B000F2202FA03F3DB43FA68B5
:1018FC001340FB607B68494A93420DD07B68484A91
:10190C00934207D07B68474A934201D1022304E0FB
:10191C00032302E0012300E000237A6A02F00302B1
:10192C0092009340FA681343FB603B497B6A9B0827
:10193C000233FA6841F823203B685B6803F4801398
:10194C00002B06D0384B9A683749BB6913438B6020
:10195C0006E0354B9A68BB69DB43334913408B6017
:10196C003B685B6803F40013002B06D02E4BDA683F
:10197C002D49BB691343CB6006E02B4BDA68BB697E
:10198C00DB4329491340CB603B685B6803F40033AD
:10199C00002B06D0244B5A682349BB6913434B6078
:1019AC0006E0214B5A68BB69DB431F4913404B606F
:1019BC003B685B6803F48033002B06D01A4B1A6823
:1019CC001949BB6913430B6006E0174B1A68BB69D6
:1019DC00DB43154913400B607B6A01337B623B6828
:1019EC001A687B6A22FA03F3002B7FF4AFAE00BFB8
:1019FC0000BF2C37BD4680BC704700BF00003210C2
:101A0C000000311000002210000021100000121004
:101A1C0000001110001002400000014000080140BD
:101A2C00000C0140001001400004014080B485B05E
:101A3C0000AF78600B467B807B689A687B8813408C
:101A4C00002B02D00123FB7301E00023FB73FB7B13
:101A5C0018461437BD4680BC704780B483B000AFC5
:101A6C0078600B467B8013467B707B78002B03D011
:101A7C007A887B681A6103E07B881A047B681A6198
:101A8C0000BF0C37BD4680BC704780B485B000AF3A
:101A9C0078600B467B807B68DB68FB607A88FB6830
:101AAC0013401A04FB68D9437B880B401A437B68AC
:101ABC001A6100BF1437BD4680BC704780B586B034
:101ACC0000AF78607B68002B01D101236CE27B684E
:101ADC001B6803F00103002B00F08780924B5B68BE
:101AEC0003F00C03042B0CD08F4B5B6803F00C033E
:101AFC00082B12D18C4B5B6803F48033B3F5803F19
:101B0C000BD1894B1B6803F40033002B6CD07B6822
:101B1C005B68002B68D1012346E27B685B68B3F5F8
:101B2C00803F06D1804B1B687F4A43F4803313609F
:101B3C002EE07B685B68002B0CD17B4B1B687A4AD0
:101B4C0023F480331360784B1B68774A23F480238B
:101B5C0013601DE07B685B68B3F5A02F0CD1724B52
:101B6C001B68714A43F4802313606F4B1B686E4AE9
:101B7C0043F4803313600BE06B4B1B686A4A23F40D
:101B8C0080331360684B1B68674A23F4802313600F
:101B9C007B685B68002B13D0FFF7B6FC386108E05C
:101BAC00FFF7B2FC02463B69D31A642B01D903231D
:101BBC00FAE15D4B1B6803F40033002BF0D014E00A
:101BCC00FFF7A2FC386108E0FFF79EFC02463B6978
:101BDC00D31A642B01D90323E6E1534B1B6803F49E
:101BEC000033002BF0D100E000BF7B681B6803F0D2
:101BFC000203002B63D04C4B5B6803F00C03002BEF
:101C0C000BD0494B5B6803F00C03082B1CD1464BE3
:101C1C005B6803F48033002B16D1434B1B6803F035
:101C2C000203002B05D07B681B69012B01D001231B
:101C3C00BAE13D4B1B6823F0F8027B685B69DB0063
:101C4C00394913430B603AE07B681B69002B20D0A9
:101C5C00364B01221A60FFF757FC386108E0FFF79A
:101C6C0053FC02463B69D31A022B01D903239BE197
:101C7C002D4B1B6803F00203002BF0D02A4B1B6882
:101C8C0023F0F8027B685B69DB00274913430B6088
:101C9C0015E0264B00221A60FFF736FC386108E08D
:101CAC00FFF732FC02463B69D31A022B01D90323FE
:101CBC007AE11D4B1B6803F00203002BF0D17B680B
:101CCC001B6803F00803002B3AD07B689B69002B40
:101CDC0019D0174B01221A60FFF716FC386108E087
:101CEC00FFF712FC02463B69D31A022B01D90323DE
:101CFC005AE10D4B5B6A03F00203002BF0D001207C
:101D0C0000F09AFA1CE00A4B00221A60FFF7FCFB69
:101D1C0038610FE0FFF7F8FB02463B69D31A022B40
:101D2C0008D9032340E100BF0010024000004242EA
:101D3C00800442429E4B5B6A03F00203002BE9D104
:101D4C007B681B6803F00403002B00F0A6800023C3
:101D5C00FB75974BDB6903F08053002B0DD1944B33
:101D6C00DB69934A43F08053D361914BDB6903F0F9
:101D7C008053BB60BB680123FB758E4B1B6803F45F
:101D8C008073002B18D18B4B1B688A4A43F48073E9
:101D9C001360FFF7B9FB386108E0FFF7B5FB0246AB
:101DAC003B69D31A642B01D90323FDE0814B1B68DB
:101DBC0003F48073002BF0D07B68DB68012B06D119
:101DCC007B4B1B6A7A4A43F0010313622DE07B685C
:101DDC00DB68002B0CD1764B1B6A754A23F0010390
:101DEC001362734B1B6A724A23F0040313621CE0E8
:101DFC007B68DB68052B0CD16D4B1B6A6C4A43F07E
:101E0C00040313626A4B1B6A694A43F001031362B1
:101E1C000BE0674B1B6A664A23F001031362644BA9
:101E2C001B6A634A23F0040313627B68DB68002B94
:101E3C0015D0FFF769FB38610AE0FFF765FB024636
:101E4C003B69D31A41F28832934201D90323ABE0A8
:101E5C00574B1B6A03F00203002BEED014E0FFF784
:101E6C0053FB38610AE0FFF74FFB02463B69D31A7C
:101E7C0041F28832934201D9032395E04C4B1B6A03
:101E8C0003F00203002BEED1FB7D012B05D1484B57
:101E9C00DB69474A23F08053D3617B68DB69002BF5
:101EAC0000F08180424B5B6803F00C03082B61D07F
:101EBC007B68DB69022B46D13F4B00221A60FFF78F
:101ECC0023FB386108E0FFF71FFB02463B69D31A7E
:101EDC00022B01D9032367E0354B1B6803F0007319
:101EEC00002BF0D17B681B6AB3F5803F08D1304BD7
:101EFC005B6823F400327B689B682D4913434B606D
:101F0C002B4B5B6823F474127B68196A7B685B6AE1
:101F1C000B43274913434B60274B01221A60FFF7F1
:101F2C00F3FA386108E0FFF7EFFA02463B69D31A7F
:101F3C00022B01D9032337E01D4B1B6803F0007300
:101F4C00002BF0D02FE01C4B00221A60FFF7DCFABC
:101F5C00386108E0FFF7D8FA02463B69D31A022B26
:101F6C0001D9032320E0124B1B6803F00073002BF4
:101F7C00F0D118E07B68DB69012B01D1012313E060
:101F8C000B4B5B68FB60FB6803F480327B681B6A5D
:101F9C009A4206D1FB6803F470127B685B6A9A4222
:101FAC0001D0012300E0002318461837BD4680BD40
:101FBC0000100240007000406000424280B584B0C6
:101FCC0000AF786039607B68002B01D10123D0E031
:101FDC006A4B1B6803F007033A689A4210D9674BA7
:101FEC001B6823F0070265493B6813430B60634B86
:101FFC001B6803F007033A689A4201D00123B8E04A
:10200C007B681B6803F00203002B20D07B681B68E5
:10201C0003F00403002B05D0594B5B68584A43F47A
:10202C00E06353607B681B6803F00803002B05D04A
:10203C00534B5B68524A43F460535360504B5B689C
:10204C0023F0F0027B689B684D4913434B607B681F
:10205C001B6803F00103002B40D07B685B68012BED
:10206C0007D1474B1B6803F40033002B15D1012318
:10207C007FE07B685B68022B07D1414B1B6803F048
:10208C000073002B09D1012373E03D4B1B6803F057
:10209C000203002B01D101236BE0394B5B6823F069
:1020AC0003027B685B68364913434B60FFF72CFADD
:1020BC00F8600AE0FFF728FA0246FB68D31A41F2EF
:1020CC008832934201D9032353E02D4B5B6803F014
:1020DC000C027B685B689B009A42EBD1274B1B6818
:1020EC0003F007033A689A4210D2244B1B6823F082
:1020FC00070222493B6813430B60204B1B6803F01B
:10210C0007033A689A4201D0012332E07B681B68CE
:10211C0003F00403002B08D0194B5B6823F4E06236
:10212C007B68DB68164913434B607B681B6803F0C4
:10213C000803002B09D0124B5B6823F460527B68B8
:10214C001B69DB000E4913434B6000F021F802467B
:10215C000B4B5B681B0903F00F030A49CB5C22FA9B
:10216C0003F3094A1360094B1B681846FFF78AF9F9
:10217C00002318461037BD4680BD00BF002002402A
:10218C0000100240A82A0008100000203C0000208B
:10219C0080B487B000AF0023FB600023BB6000233A
:1021AC007B6100237B6000233B611E4B5B68FB6003
:1021BC00FB6803F00C03042B02D0082B03D027E0A0
:1021CC00194B3B6127E0FB689B0C03F00F03174A8C
:1021DC00D35C7B60FB6803F48033002B10D0114B75
:1021EC005B685B0C03F00103114AD35CBB607B683A
:1021FC000D4A02FB03F2BB68B2FBF3F37B6104E014
:10220C007B680C4A02FB03F37B617B693B6102E058
:10221C00054B3B6100BF3B6918461C37BD4680BC73
:10222C00704700BF0010024000127A00B82A000864
:10223C00C82A000800093D0080B485B000AF786062
:10224C000A4B1B680A4AA2FB03235B0A7A6802FB4F
:10225C0003F3FB6000BFFB685A1EFA60002BF9D138
:10226C0000BF00BF1437BD4680BC70471000002073
:10227C00D34D621080B582B000AF78607B68002BC4
:10228C0001D1012341E07B6893F83D30DBB2002B98
:10229C0006D17B68002283F83C207868FEF780FF2B
:1022AC007B68022283F83D207B681A687B680433C4
:1022BC001946104600F056FA7B68012283F8462036
:1022CC007B68012283F83E207B68012283F83F2043
:1022DC007B68012283F840207B68012283F841202F
:1022EC007B68012283F842207B68012283F843201B
:1022FC007B68012283F844207B68012283F8452007
:10230C007B68012283F83D20002318460837BD4620
:10231C0080BD000080B485B000AF78607B6893F816
:10232C003D30DBB2012B01D0012335E07B6802226A
:10233C0083F83D207B681B68DA687B681B6842F079
:10234C000102DA607B681B68164A934209D07B68ED
:10235C001B68B3F1804F04D07B681B68124A934210
:10236C0011D17B681B689B6803F00703FB60FB685B
:10237C00062B10D07B681B681A687B681B6842F0C0
:10238C0001021A6007E07B681B681A687B681B688F
:10239C0042F001021A60002318461437BD4680BC77
:1023AC00704700BF002C01400004004080B584B091
:1023BC0000AF78607B681B68DB68FB607B681B6820
:1023CC001B69BB60BB6803F00203002B20D0FB68C9
:1023DC0003F00203002B1BD07B681B686FF002021A
:1023EC001A617B6801221A777B681B689B6903F072
:1023FC000303002B03D0786800F098F905E07868A7
:10240C0000F08BF9786800F09AF97B6800221A7753
:10241C00BB6803F00403002B20D0FB6803F004031B
:10242C00002B1BD07B681B686FF004021A617B6861
:10243C0002221A777B681B689B6903F44073002B9C
:10244C0003D0786800F072F905E0786800F065F95F
:10245C00786800F074F97B6800221A77BB6803F087
:10246C000803002B20D0FB6803F00803002B1BD0C3
:10247C007B681B686FF008021A617B6804221A776C
:10248C007B681B68DB6903F00303002B03D07868BF
:10249C0000F04CF905E0786800F03FF9786800F03E
:1024AC004EF97B6800221A77BB6803F01003002BEF
:1024BC0020D0FB6803F01003002B1BD07B681B683B
:1024CC006FF010021A617B6808221A777B681B6810
:1024DC00DB6903F44073002B03D0786800F026F915
:1024EC0005E0786800F019F9786800F028F97B6845
:1024FC0000221A77BB6803F00103002B0CD0FB6899
:10250C0003F00103002B07D07B681B686FF00102FE
:10251C001A617868FEF7EEFDBB6803F08003002BB0
:10252C000CD0FB6803F08003002B07D07B681B6882
:10253C006FF080021A61786800F06FFABB6803F0E4
:10254C004003002B0CD0FB6803F04003002B07D09A
:10255C007B681B686FF040021A61786800F0F8F82D
:10256C00BB6803F02003002B0CD0FB6803F02003A6
:10257C00002B07D07B681B686FF020021A6178680B
:10258C0000F042FA00BF1037BD4680BD80B584B064
:10259C0000AF786039600023FB737B6893F83C30A4
:1025AC00012B01D10223B4E07B68012283F83C208B
:1025BC007B68022283F83D207B681B689B68BB60AC
:1025CC00BB6823F07703BB60BB6823F47F43BB601D
:1025DC007B681B68BA689A603B681B68B3F5005F40
:1025EC003ED0B3F5005F00F28780B3F5805F00F05A
:1025FC008680B3F5805F7FD8702B1AD0702B7BD878
:10260C00602B50D0602B77D8502B3CD0502B73D8EC
:10261C00402B58D0402B6FD8302B64D0302B6BD83C
:10262C00202B60D0202B67D8002B5CD0102B5AD0DD
:10263C0062E07B6818683B6899683B685A683B683D
:10264C00DB6800F06AF97B681B689B68BB60BB6841
:10265C0043F07703BB607B681B68BA689A604FE0F5
:10266C007B6818683B6899683B685A683B68DB680C
:10267C0000F053F97B681B689A687B681B6842F40E
:10268C0080429A603CE07B6818683B6859683B68FC
:10269C00DB681A4600F0CAF87B681B6850211846A4
:1026AC0000F021F92CE07B6818683B6859683B689E
:1026BC00DB681A4600F0E8F87B681B686021184656
:1026CC0000F011F91CE07B6818683B6859683B689E
:1026DC00DB681A4600F0AAF87B681B684021184694
:1026EC0000F001F90CE07B681A683B681B6819461E
:1026FC00104600F0F8F803E00123FB7300E000BF84
:10270C007B68012283F83D207B68002283F83C2003
:10271C00FB7B18461037BD4680BD80B483B000AF3C
:10272C00786000BF0C37BD4680BC704780B483B066
:10273C0000AF786000BF0C37BD4680BC704780B4DA
:10274C0083B000AF786000BF0C37BD4680BC7047CB
:10275C0080B483B000AF786000BF0C37BD4680BC3E
:10276C007047000080B485B000AF786039607B683A
:10277C001B68FB607B682B4A934207D07B68B3F1E4
:10278C00804F03D07B68284A934208D1FB6823F022
:10279C007003FB603B685B68FA681343FB607B6803
:1027AC00204A934207D07B68B3F1804F03D07B68FB
:1027BC001D4A934208D1FB6823F44073FB603B68CD
:1027CC00DB68FA681343FB60FB6823F080023B680C
:1027DC005B691343FB607B68FA681A603B689A6814
:1027EC007B68DA623B681A687B689A627B680D4A80
:1027FC00934203D13B681A697B681A637B68012298
:10280C005A617B681B6903F00103002B05D07B68C0
:10281C001B6923F001027B681A6100BF1437BD46A7
:10282C0080BC7047002C01400004004080B487B08D
:10283C0000AFF860B9607A60FB681B6A7B61FB686B
:10284C001B6A23F00102FB681A62FB689B693B61FF
:10285C003B6923F0F0033B617B681B013A6913432E
:10286C003B617B6923F00A037B617A69BB68134384
:10287C007B61FB683A699A61FB687A691A6200BFEE
:10288C001C37BD4680BC704780B487B000AFF86081
:10289C00B9607A60FB681B6A7B61FB681B6A23F07A
:1028AC001002FB681A62FB689B693B613B6923F46D
:1028BC0070433B617B681B033A6913433B617B6943
:1028CC0023F0A0037B61BB681B017A6913437B6116
:1028DC00FB683A699A61FB687A691A6200BF1C3717
:1028EC00BD4680BC704780B485B000AF786039605D
:1028FC007B689B68FB60FB6823F07003FB603A68A5
:10290C00FB68134343F00703FB607B68FA689A602B
:10291C0000BF1437BD4680BC704780B487B000AF91
:10292C00F860B9607A603B60FB689B687B617B698F
:10293C0023F47F437B613B681A027B681A43BB68B4
:10294C0013437A6913437B61FB687A699A6000BF11
:10295C001C37BD4680BC704780B485B000AF786032
:10296C0039607B6893F83C30012B01D1022341E0A4
:10297C007B68012283F83C207B68022283F83D208F
:10298C007B681B685B68FB607B681B689B68BB6033
:10299C00FB6823F07003FB603B681B68FA68134309
:1029AC00FB607B681B68FA685A607B681B68144A7A
:1029BC00934209D07B681B68B3F1804F04D07B68CD
:1029CC001B68104A93420CD1BB6823F08003BB6098
:1029DC003B685B68BA681343BB607B681B68BA686A
:1029EC009A607B68012283F83D207B68002283F883
:1029FC003C20002318461437BD4680BC704700BFEE
:102A0C00002C01400004004080B483B000AF78601B
:102A1C0000BF0C37BD4680BC704780B483B000AF9C
:102A2C00786000BF0C37BD4680BC704770B500267F
:102A3C000C4D0D4C641BA410A64209D100F022F8D9
:102A4C0000260A4D0A4C641BA410A64205D170BD89
:102A5C0055F8043B98470136EEE755F8043B984788
:102A6C000136F2E7CC2A0008CC2A0008CC2A000850
:102A7C00D02A000803460244934200D1704703F861
:102A8C00011BF9E7F8B500BFF8BC08BC9E467047BF
:0C2A9C00F8B500BFF8BC08BC9E467047AF
:102AA80000000000000000000102030406070809F6
:102AB80002030405060708090A0B0C0D0E0F101077
:042AC8000102000007
:042ACC0031010008CC
:042AD0000D010008EC
:102AD400010000002C010000C8000000C800000034
:102AE40000127A0000000000000000000000000056
:102AF40000000000000000000100000001000000D0
:102B040001000000000000000000000010000000B0
:042B140001000000BC
:0400000508001419C2
:00000001FF
