:020000040800F2
:1000000000280020450D0008E90C0008EF0C00084E
:10001000F50C0008FB0C0008010D000800000000B2
:10002000000000000000000000000000070D0008B4
:10003000130D0008000000001F0D00082B0D000824
:100040008D0D00088D0D00088D0D00088D0D000828
:100050008D0D00088D0D00088D0D00088D0D000818
:100060008D0D00088D0D00088D0D00088D0D000808
:100070008D0D00088D0D00088D0D00088D0D0008F8
:100080008D0D00088D0D00088D0D00088D0D0008E8
:100090008D0D00088D0D00088D0D00088D0D0008D8
:1000A0008D0D00088D0D00088D0D00088D0D0008C8
:1000B0008D0D00088D0D0008000000008D0D00085A
:1000C0008D0D000800000000000000008D0D0008EC
:1000D000000000008D0D00088D0D000800000000DC
:1000E0008D0D00088D0D00088D0D0008000000002A
:1000F0000000000000000000000000000000000000
:0C01000000000000000000005FF808F1A3
:10010C0010B5054C237833B9044B13B10448AFF345
:10011C0000800123237010BD10000020000000009F
:10012C00981B000808B5034B1BB103490348AFF3F8
:10013C00008008BD0000000014000020981B00087F
:10014C0080B582B000AF7860C7F800C07B68002B28
:10015C0029D100228021C84801F0F8F800224FF480
:10016C008071C54801F0F2F800224FF40071C248CA
:10017C0001F0ECF800224FF48061BF4801F0E6F882
:10018C0000224FF40061BC4801F0E0F800224FF46B
:10019C008051B94801F0DAF801224FF40051B64809
:1001AC0001F0D4F8C0E17B68012B29D10122802118
:1001BC00B14801F0CBF800224FF48071AE4801F049
:1001CC00C5F800224FF40071AB4801F0BFF80122D2
:1001DC004FF48061A84801F0B9F801224FF4006196
:1001EC00A54801F0B3F801224FF48051A24801F068
:1001FC00ADF801224FF400519F4801F0A7F893E1AC
:10020C007B68022B29D1002280219B4801F09EF8AB
:10021C0000224FF48071984801F098F801224FF4B5
:10022C000071954801F092F800224FF480619248D9
:10023C0001F08CF800224FF400618F4801F086F831
:10024C0001224FF480518C4801F080F800224FF4C9
:10025C000051894801F07AF866E17B68032B29D1BB
:10026C0000228021844801F071F800224FF4807143
:10027C00814801F06BF800224FF400717E4801F0C8
:10028C0065F800224FF480617B4801F05FF8012291
:10029C004FF40061784801F059F801224FF4805175
:1002AC00754801F053F800224FF40051724801F0E8
:1002BC004DF839E17B68042B29D1012280216E484D
:1002CC0001F044F800224FF480716B4801F03EF8C5
:1002DC0000224FF40071684801F038F801224FF405
:1002EC008061654801F032F801224FF400616248E8
:1002FC0001F02CF800224FF480515F4801F026F8F1
:10030C0000224FF400515C4801F020F80CE17B68AE
:10031C00052B29D100228021574801F017F8012222
:10032C004FF48071544801F011F800224FF4007121
:10033C00514801F00BF800224FF480614E4801F057
:10034C0005F801224FF400614B4800F0FFFF00223A
:10035C004FF48051484800F0F9FF00224FF400514F
:10036C00454800F0F3FFDFE07B68062B29D1002223
:10037C008021414800F0EAFF01224FF480713E4891
:10038C0000F0E4FF00224FF400713B4800F0DEFF68
:10039C0000224FF48061384800F0D8FF00224FF45F
:1003AC000061354800F0D2FF00224FF480513248F2
:1003BC0000F0CCFF00224FF400512F4800F0C6FF94
:1003CC00B2E07B68072B29D1002280212A4800F05B
:1003DC00BDFF00224FF48071274800F0B7FF0022C8
:1003EC004FF40071244800F0B1FF01224FF48061FA
:1003FC00214800F0ABFF01224FF400611E4800F0D1
:10040C00A5FF01224FF480511B4800F09FFF0122F1
:10041C004FF40051184800F099FF85E07B68082BD9
:10042C002CD100228021144800F090FF00224FF4C0
:10043C008071114800F08AFF00224FF400710E48C1
:10044C0000F084FF00224FF480610B4800F07EFF27
:10045C0000224FF40061084800F078FF00224FF4AE
:10046C008051054800F072FF00224FF40051024801
:10047C0000F06CFF58E000BF000801407B68092BBE
:10048C0029D1002280212A4800F060FF00224FF47D
:10049C008071274800F05AFF00224FF40071244865
:1004AC0000F054FF00224FF48061214800F04EFF11
:1004BC0001224FF400611E4800F048FF00224FF467
:1004CC0080511B4800F042FF00224FF400511848A5
:1004DC0000F03CFF28E001228021154800F036FF97
:1004EC0001224FF48071124800F030FF01224FF4CA
:1004FC0000710F4800F02AFF01224FF480610C4874
:10050C0000F024FF01224FF40061094800F01EFFA7
:10051C0001224FF48051064800F018FF01224FF4DD
:10052C000051034800F012FF00BF0837BD4680BDE4
:10053C000008014080B582B000AF07F110037B606A
:10054C0000F020FC00F000FB00F03AFB012210212F
:10055C007D4800F0FBFE012240217B4800F0F6FEB6
:10056C0001222021784800F0F1FE01221021774869
:10057C0000F0ECFE01224021744800F0E7FE01225D
:10058C002021724800F0E2FE012280216F4800F029
:10059C00DDFE01224FF480716C4800F0D7FE012281
:1005AC004FF40071694800F0D1FE01224FF48061D4
:1005BC00664800F0CBFE01224FF40061634800F066
:1005CC00C5FE01224FF48051604800F0BFFE0122AD
:1005DC004FF400515D4800F0B9FE5D4B1B68062BD3
:1005EC002EDD00224021584800F0B0FE01222021CF
:1005FC00554800F0ABFE00221021534800F0A6FE37
:10060C00534B1B68053B3A1D94461846FFF798FD63
:10061C00002240214D4800F099FE002220214B4839
:10062C0000F094FE01221021484800F08FFE484B48
:10063C001B68073B3A1D9446184600F08BF872E095
:10064C00434B1B68042B24DD012220213E4800F083
:10065C007DFE002210213C4800F078FE3C4B1B68CC
:10066C00053B3A1D94461846FFF76AFD01224021CE
:10067C00364800F06BFE00221021344800F066FE74
:10068C00334B1B68053B3A1D9446184600F062F844
:10069C0049E02F4B1B68012B23DD002220212A4827
:1006AC0000F054FE01221021274800F04FFE284B89
:1006BC001B68023B3A1D94461846FFF741FD002289
:1006CC004021224800F042FE012220211F4800F068
:1006DC003DFE1F4B1B683A1D9446184600F03AF835
:1006EC0021E001224021184800F030FE00221021A8
:1006FC00154800F02BFE164B1B683A1D9446184605
:10070C00FFF71EFD00224021104800F01FFE0122C1
:10071C0020210E4800F01AFE0D4B1B683A1D944622
:10072C00184600F017F80A4B1B68002B02DC084B2C
:10073C000A221A60064B1B68013B054A13604FF4F2
:10074C007A7000F081FB48E700080140000C014082
:10075C000000002080B582B000AF7860C7F800C000
:10076C007B68002B29D100228021C84800F0EEFDC7
:10077C0000224FF48071C54800F0E8FD00224FF4D0
:10078C000071C24800F0E2FD00224FF48061BF48C6
:10079C0000F0DCFD00224FF40061BC4800F0D6FDF7
:1007AC0000224FF48051B94800F0D0FD01224FF4E3
:1007BC000051B64800F0CAFDC0E17B68012B29D17D
:1007CC0001228021B14800F0C1FD00224FF480715C
:1007DC00AE4800F0BBFD00224FF40071AB4800F0B6
:1007EC00B5FD01224FF48061A84800F0AFFD012255
:1007FC004FF40061A54800F0A9FD01224FF480518F
:10080C00A24800F0A3FD01224FF400519F4800F0D4
:10081C009DFD93E17B68022B29D1002280219B480E
:10082C0000F094FD00224FF48071984800F08EFD8A
:10083C0001224FF40071954800F088FD00224FF41E
:10084C008061924800F082FD00224FF400618F48D5
:10085C0000F07CFD01224FF480518C4800F076FDB5
:10086C0000224FF40051894800F070FD66E17B686E
:10087C00032B29D100228021844800F067FD00223F
:10088C004FF48071814800F061FD00224FF400713B
:10089C007E4800F05BFD00224FF480617B4800F045
:1008AC0055FD01224FF40061784800F04FFD012204
:1008BC004FF48051754800F049FD00224FF400516F
:1008CC00724800F043FD39E17B68042B29D10122E9
:1008DC0080216E4800F03AFD00224FF480716B4885
:1008EC0000F034FD00224FF40071684800F02EFD3A
:1008FC0001224FF48061654800F028FD01224FF47D
:10090C000061624800F022FD00224FF480515F48E4
:10091C0000F01CFD00224FF400515C4800F016FD65
:10092C000CE17B68052B29D100228021574800F06F
:10093C000DFD01224FF48071544800F007FD002298
:10094C004FF40071514800F001FD00224FF480611A
:10095C004E4800F0FBFC01224FF400614B4800F0C4
:10096C00F5FC00224FF48051484800F0EFFC0022C7
:10097C004FF40051454800F0E9FCDFE07B68062BA2
:10098C0029D100228021414800F0E0FC01224FF4E3
:10099C0080713E4800F0DAFC00224FF400713B48B5
:1009AC0000F0D4FC00224FF48061384800F0CEFCFB
:1009BC0000224FF40061354800F0C8FC00224FF4CF
:1009CC008051324800F0C2FC00224FF400512F48F5
:1009DC0000F0BCFCB2E07B68072B29D100228021FF
:1009EC002A4800F0B3FC00224FF48071274800F035
:1009FC00ADFC00224FF40071244800F0A7FC01224A
:100A0C004FF48061214800F0A1FC01224FF40061F9
:100A1C001E4800F09BFC01224FF480511B4800F053
:100A2C0095FC01224FF40051184800F08FFC85E032
:100A3C007B68082B2CD100228021144800F086FC06
:100A4C0000224FF48071114800F080FC00224FF41A
:100A5C0000710E4800F07AFC00224FF480610B48C4
:100A6C0000F074FC00224FF40061084800F06EFCAA
:100A7C0000224FF48051054800F068FC00224FF42E
:100A8C000051024800F062FC58E000BF000C01402D
:100A9C007B68092B29D1002280212A4800F056FCC2
:100AAC0000224FF48071274800F050FC00224FF4D4
:100ABC000071244800F04AFC00224FF48061214868
:100ACC0000F044FC01224FF400611E4800F03EFC93
:100ADC0000224FF480511B4800F038FC00224FF4E8
:100AEC000051184800F032FC28E001228021154802
:100AFC0000F02CFC01224FF48071124800F026FC0F
:100B0C0001224FF400710F4800F020FC01224FF439
:100B1C0080610C4800F01AFC01224FF40061094876
:100B2C0000F014FC01224FF48051064800F00EFC3A
:100B3C0001224FF40051034800F008FC00BF0837B5
:100B4C00BD4680BD000C014080B590B000AF07F1F0
:100B5C00180328220021184601F010F83B1D002232
:100B6C001A605A609A60DA601A610223BB61012331
:100B7C00BB621023FB6200237B6307F1180318464A
:100B8C0000F0FCFB0346002B01D000F06FF80F23A4
:100B9C007B600023BB600023FB6000233B610023D0
:100BAC007B613B1D0021184600F068FE0346002BBC
:100BBC0001D000F05BF800BF4037BD4680BD00009F
:100BCC0080B586B000AF07F1080300221A605A60A6
:100BDC009A60DA60224B9B69214A43F004039361CB
:100BEC001F4B9B6903F004037B607B681C4B9B6968
:100BFC001B4A43F008039361194B9B6903F00803EC
:100C0C003B603B68002243F6F071164800F09EFBF7
:100C1C00002243F6F071144800F098FB43F6F07391
:100C2C00BB600123FB6000233B6102237B6107F166
:100C3C00080319460B4800F00FFA43F6F073BB603B
:100C4C000123FB6000233B6102237B6107F1080356
:100C5C001946054800F000FA00BF1837BD4680BDA4
:100C6C000010024000080140000C014080B400AFAD
:100C7C0072B600BFFEE7000080B485B000AF154B24
:100C8C009B69144A43F001039361124B9B6903F077
:100C9C000103BB60BB680F4BDB690E4A43F080530A
:100CAC00D3610C4BDB6903F080537B607B680A4B90
:100CBC005B68FB60FB6823F0E063FB60FB6843F060
:100CCC008063FB60044AFB68536000BF1437BD4669
:100CDC0080BC7047001002400000014080B400AF9F
:100CEC00FEE780B400AFFEE780B400AFFEE780B44F
:100CFC0000AFFEE780B400AFFEE780B400AF00BFEA
:100D0C00BD4680BC704780B400AF00BFBD4680BC00
:100D1C00704780B400AF00BFBD4680BC704780B543
:100D2C0000AF00F075F800BF80BD80B400AF00BF0D
:100D3C00BD4680BC70470000FFF7F7FF0B480C491D
:100D4C000C4A002302E0D458C4500433C4188C421B
:100D5C00F9D3094A094C002301E013600432A24282
:100D6C00FBD300F0E7FEFFF7E5FB70470000002027
:100D7C0010000020DC1B00081000002030000020B8
:100D8C00FEE7000080B500AF084B1B68074A43F034
:100D9C0010031360032000F02BF90F2000F008F86B
:100DAC00FFF76AFF0023184680BD00BF00200240F9
:100DBC0080B582B000AF7860124B1A68124B1B786A
:100DCC0019464FF47A73B3FBF1F3B2FBF3F3184605
:100DDC0000F035F90346002B01D001230EE07B68AF
:100DEC000F2B0AD8002279684FF0FF3000F00BF976
:100DFC00064A7B681360002300E00123184608377D
:100E0C00BD4680BD040000200C000020080000201E
:100E1C0080B400AF054B1B781A46054B1B68134476
:100E2C00034A136000BFBD4680BC70470C00002015
:100E3C002C00002080B400AF024B1B681846BD4646
:100E4C0080BC70472C00002080B584B000AF786067
:100E5C00FFF7F0FFB8607B68FB60FB68B3F1FF3F06
:100E6C0005D00A4B1B781A46FB681344FB6000BF85
:100E7C00FFF7E0FF0246BB68D31AFA689A42F7D82C
:100E8C0000BF00BF1037BD4680BD00BF0C00002066
:100E9C0080B485B000AF78607B6803F00703FB601B
:100EAC000C4BDB68BB60BA684FF6FF031340BB60AA
:100EBC00FB681A02BB68134343F0BF6343F400336F
:100ECC00BB60044ABB68D36000BF1437BD4680BC0E
:100EDC00704700BF00ED00E080B400AF044BDB684E
:100EEC001B0A03F007031846BD4680BC704700BFC1
:100EFC0000ED00E080B483B000AF03463960FB71B5
:100F0C0097F90730002B0ADB3B68DAB20C4997F9EA
:100F1C0007301201D2B20B4483F800230AE03B687D
:100F2C00DAB20849FB7903F00F03043B1201D2B289
:100F3C000B441A7600BF0C37BD4680BC704700BF0F
:100F4C0000E100E000ED00E080B489B000AFF86093
:100F5C00B9607A60FB6803F00703FB61FB69C3F1BE
:100F6C000703042B28BF0423BB61FB690433062B46
:100F7C0002D9FB69033B00E000237B614FF0FF3299
:100F8C00BB6902FA03F3DA43BB681A407B699A40E7
:100F9C004FF0FF317B6901FA03F3D9437B680B40B7
:100FAC00134318462437BD4680BC704780B582B0C9
:100FBC0000AF78607B68013BB3F1807F01D30123E4
:100FCC000FE00A4A7B68013B53600F214FF0FF3062
:100FDC00FFF790FF054B00229A60044B07221A6022
:100FEC00002318460837BD4680BD00BF10E000E066
:100FFC0080B582B000AF78607868FFF749FF00BF1A
:10100C000837BD4680BD80B586B000AF0346B960D9
:10101C007A60FB7300237B61FFF75EFF78617A686F
:10102C00B9687869FFF790FF024697F90F301146BF
:10103C001846FFF75FFF00BF1837BD4680BD80B56F
:10104C0082B000AF78607868FFF7B0FF03461846AF
:10105C000837BD4680BD000080B48BB000AF78600F
:10106C00396000237B6200233B6248E101227B6AEA
:10107C0002FA03F3FB613B681B68FA691340BB611E
:10108C00BA69FB699A4240F037813B685B68A34AB6
:10109C0093425ED0A14A934275D8A14A934258D04C
:1010AC009F4A93426FD89F4A934252D09D4A934293
:1010BC0069D89D4A93424CD09B4A934263D89B4A31
:1010CC00934246D0994A93425DD8122B2AD8122BC0
:1010DC0059D801A252F823F05F1100083911000809
:1010EC004B1100088D110008931100089311000892
:1010FC009311000893110008931100089311000834
:10110C009311000893110008931100089311000823
:10111C009311000893110008931100084111000865
:10112C0055110008824A934213D02CE03B68DB68CF
:10113C003B6229E03B68DB6804333B6224E03B689C
:10114C00DB6808333B621FE03B68DB680C333B62B7
:10115C001AE03B689B68002B02D104233B6213E02E
:10116C003B689B68012B05D108233B627B68FA69BD
:10117C001A6109E008233B627B68FA695A6103E053
:10118C0000233B6200E000BFBB69FF2B01D87B68EA
:10119C0001E07B6804337B61BB69FF2B02D87B6A5F
:1011AC009B0002E07B6A083B9B003B617B691A68F1
:1011BC000F213B6901FA03F3DB431A40396A3B699F
:1011CC0001FA03F31A437B691A603B685B6803F00E
:1011DC008053002B00F09080564B9B69554A43F08E
:1011EC0001039361534B9B6903F00103BB60BB6824
:1011FC00514A7B6A9B08023352F82330FB607B6AAE
:10120C0003F003039B000F2202FA03F3DB43FA689B
:10121C001340FB607B68494A93420DD07B68484A77
:10122C00934207D07B68474A934201D1022304E0E2
:10123C00032302E0012300E000237A6A02F0030298
:10124C0092009340FA681343FB603B497B6A9B080E
:10125C000233FA6841F823203B685B6803F480137F
:10126C00002B06D0384B9A683749BB6913438B6007
:10127C0006E0354B9A68BB69DB43334913408B60FE
:10128C003B685B6803F40013002B06D02E4BDA6826
:10129C002D49BB691343CB6006E02B4BDA68BB6965
:1012AC00DB4329491340CB603B685B6803F4003394
:1012BC00002B06D0244B5A682349BB6913434B605F
:1012CC0006E0214B5A68BB69DB431F4913404B6056
:1012DC003B685B6803F48033002B06D01A4B1A680A
:1012EC001949BB6913430B6006E0174B1A68BB69BD
:1012FC00DB43154913400B607B6A01337B623B680F
:10130C001A687B6A22FA03F3002B7FF4AFAE00BF9E
:10131C0000BF2C37BD4680BC704700BF00003210A8
:10132C0000003110000022100000211000001210EB
:10133C0000001110001002400000014000080140A4
:10134C00000C0140001001400004014080B483B047
:10135C0000AF78600B467B8013467B707B78002B4C
:10136C0003D07A887B681A6103E07B881A047B6857
:10137C001A6100BF0C37BD4680BC704780B586B083
:10138C0000AF78607B68002B01D101236CE27B6895
:10139C001B6803F00103002B00F08780924B5B6805
:1013AC0003F00C03042B0CD08F4B5B6803F00C0385
:1013BC00082B12D18C4B5B6803F48033B3F5803F60
:1013CC000BD1894B1B6803F40033002B6CD07B686A
:1013DC005B68002B68D1012346E27B685B68B3F540
:1013EC00803F06D1804B1B687F4A43F480331360E7
:1013FC002EE07B685B68002B0CD17B4B1B687A4A18
:10140C0023F480331360784B1B68774A23F48023D2
:10141C0013601DE07B685B68B3F5A02F0CD1724B99
:10142C001B68714A43F4802313606F4B1B686E4A30
:10143C0043F4803313600BE06B4B1B686A4A23F454
:10144C0080331360684B1B68674A23F48023136056
:10145C007B685B68002B13D0FFF7ECFC386108E06D
:10146C00FFF7E8FC02463B69D31A642B01D903232E
:10147C00FAE15D4B1B6803F40033002BF0D014E051
:10148C00FFF7D8FC386108E0FFF7D4FC02463B6953
:10149C00D31A642B01D90323E6E1534B1B6803F4E5
:1014AC000033002BF0D100E000BF7B681B6803F019
:1014BC000203002B63D04C4B5B6803F00C03002B36
:1014CC000BD0494B5B6803F00C03082B1CD1464B2B
:1014DC005B6803F48033002B16D1434B1B6803F07D
:1014EC000203002B05D07B681B69012B01D0012363
:1014FC00BAE13D4B1B6823F0F8027B685B69DB00AB
:10150C00394913430B603AE07B681B69002B20D0F0
:10151C00364B01221A60FFF78DFC386108E0FFF7AB
:10152C0089FC02463B69D31A022B01D903239BE1A8
:10153C002D4B1B6803F00203002BF0D02A4B1B68C9
:10154C0023F0F8027B685B69DB00274913430B60CF
:10155C0015E0264B00221A60FFF76CFC386108E09E
:10156C00FFF768FC02463B69D31A022B01D903230F
:10157C007AE11D4B1B6803F00203002BF0D17B6852
:10158C001B6803F00803002B3AD07B689B69002B87
:10159C0019D0174B01221A60FFF74CFC386108E098
:1015AC00FFF748FC02463B69D31A022B01D90323EF
:1015BC005AE10D4B5B6A03F00203002BF0D00120C3
:1015CC0000F09AFA1CE00A4B00221A60FFF732FC7A
:1015DC0038610FE0FFF72EFC02463B69D31A022B51
:1015EC0008D9032340E100BF001002400000424232
:1015FC00800442429E4B5B6A03F00203002BE9D14C
:10160C007B681B6803F00403002B00F0A68000230A
:10161C00FB75974BDB6903F08053002B0DD1944B7A
:10162C00DB69934A43F08053D361914BDB6903F040
:10163C008053BB60BB680123FB758E4B1B6803F4A6
:10164C008073002B18D18B4B1B688A4A43F4807330
:10165C001360FFF7EFFB386108E0FFF7EBFB024686
:10166C003B69D31A642B01D90323FDE0814B1B6822
:10167C0003F48073002BF0D07B68DB68012B06D160
:10168C007B4B1B6A7A4A43F0010313622DE07B68A3
:10169C00DB68002B0CD1764B1B6A754A23F00103D7
:1016AC001362734B1B6A724A23F0040313621CE02F
:1016BC007B68DB68052B0CD16D4B1B6A6C4A43F0C5
:1016CC00040313626A4B1B6A694A43F001031362F9
:1016DC000BE0674B1B6A664A23F001031362644BF1
:1016EC001B6A634A23F0040313627B68DB68002BDC
:1016FC0015D0FFF79FFB38610AE0FFF79BFB024612
:10170C003B69D31A41F28832934201D90323ABE0EF
:10171C00574B1B6A03F00203002BEED014E0FFF7CB
:10172C0089FB38610AE0FFF785FB02463B69D31A57
:10173C0041F28832934201D9032395E04C4B1B6A4A
:10174C0003F00203002BEED1FB7D012B05D1484B9E
:10175C00DB69474A23F08053D3617B68DB69002B3C
:10176C0000F08180424B5B6803F00C03082B61D0C6
:10177C007B68DB69022B46D13F4B00221A60FFF7D6
:10178C0059FB386108E0FFF755FB02463B69D31A59
:10179C00022B01D9032367E0354B1B6803F0007360
:1017AC00002BF0D17B681B6AB3F5803F08D1304B1E
:1017BC005B6823F400327B689B682D4913434B60B4
:1017CC002B4B5B6823F474127B68196A7B685B6A29
:1017DC000B43274913434B60274B01221A60FFF739
:1017EC0029FB386108E0FFF725FB02463B69D31A59
:1017FC00022B01D9032337E01D4B1B6803F0007348
:10180C00002BF0D02FE01C4B00221A60FFF712FBCC
:10181C00386108E0FFF70EFB02463B69D31A022B36
:10182C0001D9032320E0124B1B6803F00073002B3B
:10183C00F0D118E07B68DB69012B01D1012313E0A7
:10184C000B4B5B68FB60FB6803F480327B681B6AA4
:10185C009A4206D1FB6803F470127B685B6A9A4269
:10186C0001D0012300E0002318461837BD4680BD87
:10187C0000100240007000406000424280B584B00D
:10188C0000AF786039607B68002B01D10123D0E078
:10189C006A4B1B6803F007033A689A4210D9674BEE
:1018AC001B6823F0070265493B6813430B60634BCD
:1018BC001B6803F007033A689A4201D00123B8E091
:1018CC007B681B6803F00203002B20D07B681B682D
:1018DC0003F00403002B05D0594B5B68584A43F4C2
:1018EC00E06353607B681B6803F00803002B05D092
:1018FC00534B5B68524A43F460535360504B5B68E4
:10190C0023F0F0027B689B684D4913434B607B6866
:10191C001B6803F00103002B40D07B685B68012B34
:10192C0007D1474B1B6803F40033002B15D101235F
:10193C007FE07B685B68022B07D1414B1B6803F08F
:10194C000073002B09D1012373E03D4B1B6803F09E
:10195C000203002B01D101236BE0394B5B6823F0B0
:10196C0003027B685B68364913434B60FFF762FAEE
:10197C00F8600AE0FFF75EFA0246FB68D31A41F200
:10198C008832934201D9032353E02D4B5B6803F05B
:10199C000C027B685B689B009A42EBD1274B1B685F
:1019AC0003F007033A689A4210D2244B1B6823F0C9
:1019BC00070222493B6813430B60204B1B6803F062
:1019CC0007033A689A4201D0012332E07B681B6816
:1019DC0003F00403002B08D0194B5B6823F4E0627E
:1019EC007B68DB68164913434B607B681B6803F00C
:1019FC000803002B09D0124B5B6823F460527B6800
:101A0C001B69DB000E4913434B6000F021F80246C2
:101A1C000B4B5B681B0903F00F030A49CB5C22FAE2
:101A2C0003F3094A1360094B1B681846FFF7C0F90A
:101A3C00002318461037BD4680BD00BF0020024071
:101A4C0000100240B01B0008040000200800002019
:101A5C0080B487B000AF0023FB600023BB60002381
:101A6C007B6100237B6000233B611E4B5B68FB604A
:101A7C00FB6803F00C03042B02D0082B03D027E0E7
:101A8C00194B3B6127E0FB689B0C03F00F03174AD3
:101A9C00D35C7B60FB6803F48033002B10D0114BBC
:101AAC005B685B0C03F00103114AD35CBB607B6881
:101ABC000D4A02FB03F2BB68B2FBF3F37B6104E05B
:101ACC007B680C4A02FB03F37B617B693B6102E0A0
:101ADC00054B3B6100BF3B6918461C37BD4680BCBB
:101AEC00704700BF0010024000127A00C01B0008B3
:101AFC00D01B000800093D0080B485B000AF7860B1
:101B0C000A4B1B680A4AA2FB03235B0A7A6802FB96
:101B1C0003F3FB6000BFFB685A1EFA60002BF9D17F
:101B2C0000BF00BF1437BD4680BC704704000020C6
:101B3C00D34D621070B500260C4D0D4C641BA410D7
:101B4C00A64209D100F022F800260A4D0A4C641B6B
:101B5C00A410A64205D170BD55F8043B9847013638
:101B6C00EEE755F8043B98470136F2E7D41B000822
:101B7C00D41B0008D41B0008D81B000803460244E1
:101B8C00934200D1704703F8011BF9E7F8B500BF89
:101B9C00F8BC08BC9E467047F8B500BFF8BC08BC42
:041BAC009E4670479A
:101BB00000000000000000000102030406070809FD
:101BC00002030405060708090A0B0C0D0E0F10107E
:041BD000010200000E
:041BD40031010008D3
:041BD8000D010008F3
:101BDC000900000000127A00100000000100000053
:0400000508000D459D
:00000001FF
