:020000040800F2
:10000000002800206D140008991200089F120008B3
:10001000A5120008AB120008B11200080000000091
:10002000000000000000000000000000B7120008FF
:10003000C312000800000000CF120008DB12000805
:10004000B5140008B5140008B5140008B51400086C
:10005000B5140008B5140008B5140008B51400085C
:10006000B5140008B5140008B5140008B51400084C
:10007000B5140008B5140008B5140008B51400083C
:10008000B5140008B5140008B5140008B51400082C
:10009000B5140008B5140008B5140008B51400081C
:1000A000B5140008B5140008B5140008B51400080C
:1000B000E9120008B514000800000000B51400089B
:1000C000B51400080000000000000000B51400088E
:1000D00000000000B5140008B5140008000000007E
:1000E000B5140008B5140008B5140008000000009D
:1000F0000000000000000000000000000000000000
:0C01000000000000000000005FF808F1A3
:10010C0010B5054C237833B9044B13B10448AFF345
:10011C0000800123237010BDA80000200000000007
:10012C00382C000808B5034B1BB103490348AFF347
:10013C00008008BD00000000AC000020382C000836
:10014C0080B483B000AF7860094A7B6852F82330E2
:10015C00012B06D1064A7B68002142F823100123AB
:10016C0000E0002318460C37BD4680BC704700BF2A
:10017C007401002080B500AFAD4B1B68013B042B14
:10018C0000F28B8101A252F823F000BFAD010008F0
:10019C0007020008870200080F0300089D030008EF
:1001AC0000F0C0FCA24B02221A60022001F0F4F80D
:1001BC0000F060FA9F4B1B68013B9E4A13609D4BFD
:1001CC005B68013B9B4A53609A4B1B68994A526887
:1001DC001146184600F078FA00220021964800F0EB
:1001EC004DFE4FF47A720021944800F047FEFA223B
:1001FC000021934800F042FE2DE1924B9B68012BAD
:10020C0014D18C4B1B68013B8A4A1360894B5B6889
:10021C00013B884A5360874B1B68864A52681146DB
:10022C00184600F051FA884B00221A60854B5B6827
:10023C00012B40F0F6807E4B03221A607D4B9B68AD
:10024C00013B7C4A93607B4B9B687A4A92681146CF
:10025C00184600F039FA7D4B1B681946012001F055
:10026C0083F86421022001F07FF81821002001F0AE
:10027C007BF8032001F090F8D3E0724B9B68012BC4
:10028C0017D16C4B9B68013B6A4A9360694B9B6826
:10029C00684A92681146184600F016FA642102204A
:1002AC0001F062F81821002001F05EF8664B002284
:1002BC001A60644B5B68012B40F0B5805C4B0422E8
:1002CC001A6000F0D7F95B4B1B68013B594A13606D
:1002DC00584B5B68013B574A5360564B5B68554A19
:1002EC0012681146184600F0EFF96421022001F063
:1002FC003BF81821002001F037F8042001F04CF8ED
:10030C0091E0504B9B68012B1CD14A4B1B68013B65
:10031C00484A1360474B5B68013B464A5360454B68
:10032C005B68444A12681146184600F0CDF9642106
:10033C00022001F019F81821002001F015F8424BA9
:10034C0000221A603F4B5B68012B6ED1384B0522A3
:10035C001A60384B9B68013B364A9360354B9B685F
:10036C00344A92681146184600F0AEF9374B1B68B8
:10037C001946012000F0F8FF6421022000F0F4FF80
:10038C001821002000F0F0FF052001F005F84CE0EA
:10039C002C4B9B68012B17D1264B9B68013B254AA4
:1003AC009360244B9B68234A92681146184600F0D0
:1003BC008BF96421022000F0D7FF1821002000F0F7
:1003CC00D3FF214B00221A601E4B5B68012B41D1DD
:1003DC00174B02221A6000F04DF9164B1B68013BBB
:1003EC00144A1360134B5B68013B124A5360114B68
:1003FC001B68104A52681146184600F065F9144BF8
:10040C001B681946012000F0AFFF6421022000F0A8
:10041C00ABFF1821002000F0A7FF022000F0BCFF6A
:10042C0018E000BF17E000BF15E000BF13E000BFED
:10043C0000000020C4010020F1040008B5040008ED
:10044C00090C000814000020C40000200800002043
:10045C000400002000BF0020FFF772FE0346002BB3
:10046C000FD000F007F90E4B1B681E330C4A1360BB
:10047C000C4B1B681946012000F076FF00F094FB32
:10048C000CE00220FFF75CFE0346002B06D000F0C8
:10049C0049FB034B0B221A6000E000BF80BD00BF7C
:1004AC00000000200C00002080B500AF0B4B1B6837
:1004BC00013B0A4A1360094B5B68013B074A5360D6
:1004CC00064B1B68054A52681146184600F0FCF8AA
:1004DC00034B00221A6000BF80BD00BFC401002086
:1004EC00C400002080B500AF124B02221A6002201B
:1004FC0000F052FF104B1A68104B1B681344104A43
:10050C0082FB03125211DB17D31A0E4A13600A4BEB
:10051C001B680B4A82FB03125211DB17D31A094AD0
:10052C005360054B1B6800221946074800F0A6FCD7
:10053C0000BF80BD00000020040000200800002047
:10054C001F85EB51C40100205905000880B500AF90
:10055C00114B03221A60032000F01EFF0F4B1B6887
:10056C000F4A82FB03125211DB17D31A0D4A136088
:10057C000A4B1B680A4A82FB03125211DB17D31A6F
:10058C00084A5360054B1B6800221946064800F0C8
:10059C0075FC00BF80BD00BF0000002008000020DB
:1005AC001F85EB51C4010020B905000880B500AFD0
:1005BC00124B04221A60042000F0EEFE104B1B6854
:1005CC00104A82FB03125211DB17D31A0E4A136026
:1005DC000B4B1A680D4B1B6813440A4A82FB03121F
:1005EC005211DB17D31A084A5360054B1B680022C3
:1005FC001946074800F042FC00BF80BD00000020F7
:10060C00040000201F85EB51C401002008000020CD
:10061C002106000880B500AF114B05221A60052099
:10062C0000F0BAFE0F4B1B680F4A82FB03125211EB
:10063C00DB17D31A0D4A13600A4B1B680A4A82FB5C
:10064C0003125211DB17D31A084A5360054B1B686F
:10065C0000221946064800F011FC00BF80BD00BF07
:10066C0000000020080000201F85EB51C401002071
:10067C00F104000880B400AF0F4B1B680F4A82FBDB
:10068C0003125211DB17D31A0D4A53600D4B1B6822
:10069C000A4A82FB03125211DB17D31A084A9360E1
:1006AC00074B5A68064B9B681344054A136000BFFE
:1006BC00BD4680BC704700BF040000201F85EB5175
:1006CC00C40100200800002080B483B000AF786023
:1006DC0039603968184B83FB01239A10CB17D21A57
:1006EC0013469B0013445B00CA1A144BDA603B6838
:1006FC00114A82FB03129210DB17D31A0F4A936034
:10070C0079680D4B83FB01239A10CB17D21A134631
:10071C009B0013445B00CA1A084B5A607B68064A5C
:10072C0082FB03129210DB17D31A044A136000BF2A
:10073C000C37BD4680BC704767666666D0010020EA
:10074C0080B582B000AF7860012202212B4801F005
:10075C0097F901220421294801F092F9012208217C
:10076C00264801F08DF901221021244801F088F966
:10077C007B68032B3ED801A252F823F0990700089E
:10078C00B3070008CD070008E70700080022022184
:10079C001A4801F075F91A4A7B6852F8233018464A
:1007AC0000F030F826E000220421144801F068F92A
:1007BC00134A7B6852F82330184600F023F819E0EE
:1007CC00002208210D4801F05BF90D4A7B6852F8B4
:1007DC002330184600F016F80CE0002210210748D0
:1007EC0001F04EF9064A7B6852F82330184600F0A7
:1007FC0009F800BF00BF0837BD4680BD00080140A6
:10080C00D001002080B582B000AF78607B68092BE6
:10081C0000F2808101A252F823F000BF51080008B9
:10082C0099080008E1080008290900087109000866
:10083C00B9090008010A0008490A0008910A0008D1
:10084C00D90A000800220121B54801F019F900224B
:10085C000221B34801F014F900220421B04801F040
:10086C000FF900220821AE4801F00AF900221021EC
:10087C00AB4801F005F900222021A94801F000F94C
:10088C0001224021A64801F0FBF844E1012201219C
:10089C00A34801F0F5F800220221A14801F0F0F87C
:1008AC00002204219E4801F0EBF8012208219C480B
:1008BC0001F0E6F801221021994801F0E1F801223B
:1008CC002021974801F0DCF801224021944801F0E6
:1008DC00D7F820E100220121914801F0D1F8002243
:1008EC0002218F4801F0CCF8012204218C4801F040
:1008FC00C7F8002208218A4801F0C2F80022102112
:10090C00874801F0BDF801222021854801F0B8F894
:10091C0000224021824801F0B3F8FCE000220121C2
:10092C007F4801F0ADF8002202217D4801F0A8F8C3
:10093C00002204217A4801F0A3F80022082178480B
:10094C0001F09EF801221021754801F099F801225E
:10095C002021734801F094F800224021704801F0E6
:10096C008FF8D8E0012201216D4801F089F80022AE
:10097C0002216B4801F084F800220421684801F040
:10098C007FF801220821664801F07AF80122102133
:10099C00634801F075F800222021614801F070F8DD
:1009AC00002240215E4801F06BF8B4E000220121E6
:1009BC005B4801F065F801220221594801F060F80A
:1009CC0000220421564801F05BF80022082154480B
:1009DC0001F056F801221021514801F051F8002283
:1009EC0020214F4801F04CF8002240214C4801F0E6
:1009FC0047F890E000220121494801F041F801221A
:100A0C000221474801F03CF800220421444801F03F
:100A1C0037F800220821424801F032F80022102158
:100A2C003F4801F02DF8002220213D4801F028F824
:100A3C00002240213A4801F023F86CE00022012109
:100A4C00374801F01DF800220221354801F018F852
:100A5C0000220421324801F013F801220821304809
:100A6C0001F00EF8012210212D4801F009F80122A5
:100A7C0020212B4801F004F801224021284800F0E5
:100A8C00FFFF48E000220121254800F0F9FF002279
:100A9C000221234800F0F4FF00220421204800F03A
:100AAC00EFFF002208211E4800F0EAFF002210216F
:100ABC001B4800F0E5FF00222021194800F0E0FF60
:100ACC0000224021164800F0DBFF24E00022012127
:100ADC00134800F0D5FF00220221114800F0D0FF8E
:100AEC00002204210E4800F0CBFF002208210C4804
:100AFC0000F0C6FF01221021094800F0C1FF0022BE
:100B0C002021074800F0BCFF00224021044800F0DF
:100B1C00B7FF00E000BF00BF0837BD4680BD00BF77
:100B2C00000C014080B500AF002202211D4800F0EE
:100B3C00A7FF002204211B4800F0A2FF002208217D
:100B4C00184800F09DFF00221021164800F098FF75
:100B5C0000222021134800F093FF0022402111486D
:100B6C0000F08EFF002280210E4800F089FF002249
:100B7C004FF480710B4800F083FF00224FF400719A
:100B8C00084800F07DFF00224FF48061054800F01A
:100B9C0077FF00224FF40061024800F071FF00BFA4
:100BAC0080BD00BF0008014080B500AF01220121CB
:100BBC00114800F065FF012202210F4800F060FF90
:100BCC00012204210C4800F05BFF012208210A4895
:100BDC0000F056FF01221021074800F051FF0122BE
:100BEC002021054800F04CFF01224021024800F072
:100BFC0047FF00BF80BD00BF000C014080B500AFB7
:100C0C00044B1B685A1C03490A601846FFF798FDF1
:100C1C0000BF80BDC400002080B500AF00F046FCD2
:100C2C0000F016F800F09CF800F04EF8064801F0C1
:100C3C006BFB00F007F90A220021044800F01EF9B2
:100C4C0000F0A4F9FCE700BFE001002081010008DE
:100C5C0080B590B000AF07F1180328220021184688
:100C6C0001F018FF3B1D00221A605A609A60DA608E
:100C7C001A610223BB610123BB621023FB620023B8
:100C8C007B6307F11803184600F012FF0346002B94
:100C9C0001D000F0D1F80F237B600023BB60002350
:100CAC00FB6000233B6100237B613B1D0021184648
:100CBC0001F07EF90346002B01D000F0BDF800BF17
:100CCC004037BD4680BD000080B586B000AF07F14F
:100CDC00080300221A605A609A60DA603B460022D0
:100CEC001A605A601D4B4FF080421A601B4B41F644
:100CFC003F725A60194B00229A60184B0922DA6035
:100D0C00164B00221A61154B00229A61134801F010
:100D1C00ABFA0346002B01D000F08EF84FF4805351
:100D2C00BB6007F1080319460C4801F029FC034687
:100D3C00002B01D000F080F800233B6000237B6087
:100D4C003B461946054801F001FE0346002B01D035
:100D5C0000F072F800BF1837BD4680BDE0010020DE
:100D6C0080B586B000AF07F1080300221A605A6004
:100D7C009A60DA60284B9B69274A43F0040393611D
:100D8C00254B9B6903F004037B607B68224B9B69BA
:100D9C00214A43F0080393611F4B9B6903F008033E
:100DAC003B603B68002240F6FE711C4800F068FE78
:100DBC0000227F211A4800F063FE40F6FE73BB60F0
:100DCC000123FB6000233B6102237B6107F10803D5
:100DDC001946124800F0DAFC7F23BB600123FB604C
:100DEC0000233B6102237B6107F1080319460C4881
:100DFC0000F0CCFC4FF4E043BB600023FB6001230C
:100E0C003B6107F108031946044800F0BFFC00BF22
:100E1C001837BD4680BD00BF0010024000080140DD
:100E2C00000C014080B582B000AF786000F078F81B
:100E3C0000BF0837BD4680BD80B400AF72B600BF9E
:100E4C00FEE7000080B400AF0A4B00221A60094B89
:100E5C0000225A60074B00221A72074B00221A60BC
:100E6C00054B00225A60044B00221A7200BFBD468B
:100E7C0080BC7047280200203402002080B586B068
:100E8C0000AFF860B9607A60F86800F085F9034645
:100E9C00012B3BD0142001F0EDFD03467B617B69F7
:100EAC00002B35D07B69FA681A60BB681A4AA2FB22
:100EBC000323DA087B695A607B68174AA2FB032379
:100ECC00DA087B699A607B690022DA607B69002210
:100EDC001A61124B1B68002B06D1104A7B691360F8
:100EEC000E4A7B6953600AE00C4B5A687B691A61A5
:100EFC000A4B5B687A69DA60084A7B695360074B76
:100F0C001B7A0133DAB2054B1A7202E000BF00E023
:100F1C0000BF1837BD4680BDCDCCCCCC28020020FC
:100F2C0080B582B000AF184B1B687B6024E07B68F7
:100F3C005B68002B05D07B685B685A1E7B685A6027
:100F4C0017E07B681B68184600F03EF87B689A68CF
:100F5C007B685A607B689B68002B0AD17B683B607E
:100F6C007B68DB687B603B681B68184600F0C4F844
:100F7C0002E07B68DB687B607B68002BD7D100BF0D
:100F8C0000BF0837BD4680BD2802002080B582B066
:100F9C0000AF0C4B1B687B600CE07B681B689847B0
:100FAC007B683B607B68DB687B603B681B68184632
:100FBC0000F03EF87B68002BEFD100BF00BF083774
:100FCC00BD4680BD3402002080B584B000AF78608F
:100FDC00142001F04FFD0346FB60FB687A681A6031
:100FEC00FB680022DA60FB6800221A610F4B1B7A47
:100FFC00002B06D10D4AFB6813600C4AFB6853604A
:10100C000AE00A4B5A68FB681A61084B5B68FA687D
:10101C00DA60064AFB685360044B1B7A0133DAB280
:10102C00024B1A7200BF1037BD4680BD340200203F
:10103C0080B584B000AF78602E4B1B7A002B54D057
:10104C002C4B1B7A012B12D12A4B1B68BB60294BF2
:10105C0000221A60274B00225A60B86801F012FD7A
:10106C00244B1B7A013BDAB2224B1A723EE0214B25
:10107C001B68FB6035E0FB681B687A689A422DD1CF
:10108C00FB681B69002B08D1FB68DB6800221A6126
:10109C00FB68DB68174A136016E0FB68DB68002B03
:1010AC0008D1FB681B690022DA60FB681B69114AD6
:1010BC00536009E0FB681B69FA68D268DA60FB6868
:1010CC00DB68FA6812691A610A4B1B7A013BDAB2C7
:1010DC00084B1A72F86801F0D5FC07E0FB68DB6876
:1010EC00FB60FB68002BC6D100E000BF1037BD468B
:1010FC0080BD00BF3402002080B584B000AF7860A2
:10110C00244B1B7A002B01D100233EE0214B1B68A2
:10111C00FB6036E0FB681B687A689A422ED1FB684C
:10112C001B69002B08D1FB68DB6800221A61FB6885
:10113C00DB68184A136016E0FB68DB68002B08D1EB
:10114C00FB681B690022DA60FB681B69114A53605B
:10115C0009E0FB681B69FA68D268DA60FB68DB6837
:10116C00FA6812691A610B4B1B7A013BDAB2094B14
:10117C001A72F86801F086FC012306E0FB68DB6854
:10118C00FB60FB68002BC5D1002318461037BD4609
:10119C0080BD00BF2802002080B485B000AF78600D
:1011AC000E4B1B7A002B01D1002311E00B4B1B685B
:1011BC00FB6009E0FB681B687A689A4201D1012345
:1011CC0006E0FB68DB68FB60FB68002BF2D10023B8
:1011DC0018461437BD4680BC704700BF280200205B
:1011EC0080B485B000AF154B9B69144A43F00103E2
:1011FC009361124B9B6903F00103BB60BB680F4BFF
:10120C00DB690E4A43F08053D3610C4BDB6903F06E
:10121C0080537B607B680A4B5B68FB60FB6823F048
:10122C00E063FB60FB6843F08063FB60044AFB688F
:10123C00536000BF1437BD4680BC7047001002409D
:10124C000000014080B584B000AF78607B681B68FB
:10125C00B3F1804F13D10C4BDB690B4A43F0010304
:10126C00D361094BDB6903F00103FB60FB680022CF
:10127C0000211C2000F053FA1C2000F06CFA00BF77
:10128C001037BD4680BD00BF0010024080B400AFD7
:10129C00FEE780B400AFFEE780B400AFFEE780B499
:1012AC0000AFFEE780B400AFFEE780B400AF00BF34
:1012BC00BD4680BC704780B400AF00BFBD4680BC4B
:1012CC00704780B400AF00BFBD4680BC704780B58E
:1012DC0000AF00F031F900BF80BD000080B500AF59
:1012EC00024801F05DF800BF80BD00BFE0010020A6
:1012FC0080B586B000AF7860144A154BD31A7B6169
:10130C007B693B61134B1B68002B02D1114B124ABA
:10131C001A60104B1A687B6813443A699A4207D2D8
:10132C0001F07EFB03460C221A604FF0FF3309E0FC
:10133C00084B1B68FB60074B1A687B681344054A13
:10134C001360FB6818461837BD4680BD0028002086
:10135C0000040000C80000208002002080B400AF10
:10136C0000BFBD4680BC704780B483B000AF7860CE
:10137C003960074A7B68002142F8231005497B68D5
:10138C003A6841F8232000BF0C37BD4680BC70473B
:10139C00140000204002002080B582B000AF7860BD
:1013AC007B68023B032B53D801A252F823F000BFF9
:1013BC00CD130008FD13000817140008451400088D
:1013CC0001224021254800F05BFB00224FF4807184
:1013DC00224800F055FB00224FF400711F4800F02A
:1013EC004FFB01224FF480611C4800F049FB30E0B8
:1013FC0000224FF48061194800F042FB01224FF4A7
:10140C000061164800F03CFB23E000224021134809
:10141C0000F036FB01228021104800F031FB012244
:10142C004FF400710D4800F02BFB00224FF40061CB
:10143C000A4800F025FB0CE000228021074800F050
:10144C001FFB01224FF48071044800F019FB00E0EF
:10145C0000BF00BF0837BD4680BD00BF000801407B
:10146C00FFF77CFF0B480C490C4A002302E0D458D0
:10147C00C4500433C4188C42F9D3094A094C0023D4
:10148C0001E013600432A242FBD301F0CFFAFFF764
:10149C00C3FB704700000020A80000207C2C000833
:1014AC00A80000207C020020FEE7000080B500AF01
:1014BC00084B1B68074A43F010031360032000F02D
:1014CC0023F90F2000F008F8FFF78AFE00231846D6
:1014DC0080BD00BF0020024080B582B000AF7860B4
:1014EC00124B1A68124B1B7819464FF47A73B3FBE4
:1014FC00F1F3B2FBF3F3184600F03BF90346002B73
:10150C0001D001230EE07B680F2B0AD800227968EA
:10151C004FF0FF3000F003F9064A7B68136000239C
:10152C0000E0012318460837BD4680BD100000209E
:10153C00400000203C00002080B400AF054B1B781D
:10154C001A46054B1B681344034A136000BFBD4683
:10155C0080BC7047400000206802002080B400AFBF
:10156C00024B1B681846BD4680BC704768020020C1
:10157C0080B485B000AF78607B6803F00703FB6034
:10158C000C4BDB68BB60BA684FF6FF031340BB60C3
:10159C00FB681A02BB68134343F0BF6343F4003388
:1015AC00BB60044ABB68D36000BF1437BD4680BC27
:1015BC00704700BF00ED00E080B400AF044BDB6867
:1015CC001B0A03F007031846BD4680BC704700BFDA
:1015DC0000ED00E080B483B000AF0346FB7197F9D7
:1015EC000730002B0BDBFB7903F01F02064997F940
:1015FC0007305B09012000FA02F241F8232000BFFA
:10160C000C37BD4680BC704700E100E080B483B06D
:10161C0000AF03463960FB7197F90730002B0ADBEA
:10162C003B68DAB20C4997F907301201D2B20B447D
:10163C0083F800230AE03B68DAB20849FB7903F02F
:10164C000F03043B1201D2B20B441A7600BF0C37C5
:10165C00BD4680BC704700BF00E100E000ED00E03B
:10166C0080B489B000AFF860B9607A60FB6803F0B1
:10167C000703FB61FB69C3F10703042B28BF042399
:10168C00BB61FB690433062B02D9FB69033B00E009
:10169C0000237B614FF0FF32BB6902FA03F3DA439C
:1016AC00BB681A407B699A404FF0FF317B6901FAA5
:1016BC0003F3D9437B680B40134318462437BD46CC
:1016CC0080BC704780B582B000AF78607B68013B0E
:1016DC00B3F1807F01D301230FE00A4A7B68013B01
:1016EC0053600F214FF0FF30FFF790FF054B0022A6
:1016FC009A60044B07221A60002318460837BD462F
:10170C0080BD00BF10E000E080B582B000AF786013
:10171C007868FFF72DFF00BF0837BD4680BD80B548
:10172C0086B000AF0346B9607A60FB7300237B611F
:10173C00FFF742FF78617A68B9687869FFF790FF24
:10174C00024697F90F3011461846FFF75FFF00BFAE
:10175C001837BD4680BD80B582B000AF0346FB7123
:10176C0097F907301846FFF735FF00BF0837BD461D
:10177C0080BD80B582B000AF78607868FFF7A2FFBB
:10178C00034618460837BD4680BD000080B48BB0B8
:10179C0000AF7860396000237B6200233B6248E134
:1017AC0001227B6A02FA03F3FB613B681B68FA694E
:1017BC001340BB61BA69FB699A4240F037813B68C0
:1017CC005B68A34A93425ED0A14A934275D8A14A62
:1017DC00934258D09F4A93426FD89F4A934252D01B
:1017EC009D4A934269D89D4A93424CD09B4A93425E
:1017FC0063D89B4A934246D0994A93425DD8122BA8
:10180C002AD8122B59D801A252F823F093180008A9
:10181C006D1800087F180008C1180008C7180008C8
:10182C00C7180008C7180008C7180008C718000810
:10183C00C7180008C7180008C7180008C718000800
:10184C00C7180008C7180008C7180008C7180008F0
:10185C007518000889180008824A934213D02CE0AE
:10186C003B68DB683B6229E03B68DB6804333B6226
:10187C0024E03B68DB6808333B621FE03B68DB68B5
:10188C000C333B621AE03B689B68002B02D10423AB
:10189C003B6213E03B689B68012B05D108233B623C
:1018AC007B68FA691A6109E008233B627B68FA6974
:1018BC005A6103E000233B6200E000BFBB69FF2BD1
:1018CC0001D87B6801E07B6804337B61BB69FF2B2B
:1018DC0002D87B6A9B0002E07B6A083B9B003B6161
:1018EC007B691A680F213B6901FA03F3DB431A4049
:1018FC00396A3B6901FA03F31A437B691A603B6846
:10190C005B6803F08053002B00F09080564B9B6972
:10191C00554A43F001039361534B9B6903F0010358
:10192C00BB60BB68514A7B6A9B08023352F8233078
:10193C00FB607B6A03F003039B000F2202FA03F3A4
:10194C00DB43FA681340FB607B68494A93420DD035
:10195C007B68484A934207D07B68474A934201D13F
:10196C00022304E0032302E0012300E000237A6A4F
:10197C0002F0030292009340FA681343FB603B4968
:10198C007B6A9B080233FA6841F823203B685B684A
:10199C0003F48013002B06D0384B9A683749BB6987
:1019AC0013438B6006E0354B9A68BB69DB433349C4
:1019BC0013408B603B685B6803F40013002B06D06C
:1019CC002E4BDA682D49BB691343CB6006E02B4BD9
:1019DC00DA68BB69DB4329491340CB603B685B6821
:1019EC0003F40033002B06D0244B5A682349BB69FF
:1019FC0013434B6006E0214B5A68BB69DB431F491C
:101A0C0013404B603B685B6803F48033002B06D0BB
:101A1C001A4B1A681949BB6913430B6006E0174B44
:101A2C001A68BB69DB43154913400B607B6A0133B1
:101A3C007B623B681A687B6A22FA03F3002B7FF403
:101A4C00AFAE00BF00BF2C37BD4680BC704700BF97
:101A5C000000321000003110000022100000211094
:101A6C000000121000001110001002400000014094
:101A7C0000080140000C014000100140000401402E
:101A8C0080B483B000AF78600B467B8013467B70CC
:101A9C007B78002B03D07A887B681A6103E07B8803
:101AAC001A047B681A6100BF0C37BD4680BC7047B6
:101ABC0080B586B000AF78607B68002B01D1012324
:101ACC006CE27B681B6803F00103002B00F087803D
:101ADC00924B5B6803F00C03042B0CD08F4B5B68B0
:101AEC0003F00C03082B12D18C4B5B6803F480338E
:101AFC00B3F5803F0BD1894B1B6803F40033002BEB
:101B0C006CD07B685B68002B68D1012346E27B6854
:101B1C005B68B3F5803F06D1804B1B687F4A43F46A
:101B2C00803313602EE07B685B68002B0CD17B4B01
:101B3C001B687A4A23F480331360784B1B68774A0E
:101B4C0023F4802313601DE07B685B68B3F5A02F42
:101B5C000CD1724B1B68714A43F4802313606F4B9A
:101B6C001B686E4A43F4803313600BE06B4B1B68AD
:101B7C006A4A23F480331360684B1B68674A23F46A
:101B8C00802313607B685B68002B13D0FFF7E6FCA7
:101B9C00386108E0FFF7E2FC02463B69D31A642B7C
:101BAC0001D90323FAE15D4B1B6803F40033002BCE
:101BBC00F0D014E0FFF7D2FC386108E0FFF7CEFC60
:101BCC0002463B69D31A642B01D90323E6E1534B3C
:101BDC001B6803F40033002BF0D100E000BF7B68DE
:101BEC001B6803F00203002B63D04C4B5B6803F0C3
:101BFC000C03002B0BD0494B5B6803F00C03082B38
:101C0C001CD1464B5B6803F48033002B16D1434B3D
:101C1C001B6803F00203002B05D07B681B69012BAA
:101C2C0001D00123BAE13D4B1B6823F0F8027B681D
:101C3C005B69DB00394913430B603AE07B681B6935
:101C4C00002B20D0364B01221A60FFF787FC38613D
:101C5C0008E0FFF783FC02463B69D31A022B01D93B
:101C6C0003239BE12D4B1B6803F00203002BF0D0E8
:101C7C002A4B1B6823F0F8027B685B69DB00274961
:101C8C0013430B6015E0264B00221A60FFF766FC2D
:101C9C00386108E0FFF762FC02463B69D31A022B5D
:101CAC0001D903237AE11D4B1B6803F00203002BBF
:101CBC00F0D17B681B6803F00803002B3AD07B68DB
:101CCC009B69002B19D0174B01221A60FFF746FCB9
:101CDC00386108E0FFF742FC02463B69D31A022B3D
:101CEC0001D903235AE10D4B5B6A03F00203002B6D
:101CFC00F0D0012000F09AFA1CE00A4B00221A6086
:101D0C00FFF72CFC38610FE0FFF728FC02463B691B
:101D1C00D31A022B08D9032340E100BF0010024064
:101D2C0000004242800442429E4B5B6A03F0020375
:101D3C00002BE9D17B681B6803F00403002B00F037
:101D4C00A6800023FB75974BDB6903F08053002BB7
:101D5C000DD1944BDB69934A43F08053D361914B83
:101D6C00DB6903F08053BB60BB680123FB758E4BB2
:101D7C001B6803F48073002B18D18B4B1B688A4AA9
:101D8C0043F480731360FFF7E9FB386108E0FFF759
:101D9C00E5FB02463B69D31A642B01D90323FDE012
:101DAC00814B1B6803F48073002BF0D07B68DB68DD
:101DBC00012B06D17B4B1B6A7A4A43F00103136259
:101DCC002DE07B68DB68002B0CD1764B1B6A754AC7
:101DDC0023F001031362734B1B6A724A23F0040352
:101DEC0013621CE07B68DB68052B0CD16D4B1B6A06
:101DFC006C4A43F0040313626A4B1B6A694A43F052
:101E0C00010313620BE0674B1B6A664A23F0010364
:101E1C001362644B1B6A634A23F0040313627B68EE
:101E2C00DB68002B15D0FFF799FB38610AE0FFF750
:101E3C0095FB02463B69D31A41F28832934201D991
:101E4C000323ABE0574B1B6A03F00203002BEED0CD
:101E5C0014E0FFF783FB38610AE0FFF77FFB0246D3
:101E6C003B69D31A41F28832934201D9032395E09E
:101E7C004C4B1B6A03F00203002BEED1FB7D012BB4
:101E8C0005D1484BDB69474A23F08053D3617B680B
:101E9C00DB69002B00F08180424B5B6803F00C0384
:101EAC00082B61D07B68DB69022B46D13F4B0022AB
:101EBC001A60FFF753FB386108E0FFF74FFB02464F
:101ECC003B69D31A022B01D9032367E0354B1B68FE
:101EDC0003F00073002BF0D17B681B6AB3F5803FD5
:101EEC0008D1304B5B6823F400327B689B682D492A
:101EFC0013434B602B4B5B6823F474127B68196A99
:101F0C007B685B6A0B43274913434B60274B0122C9
:101F1C001A60FFF723FB386108E0FFF71FFB02464E
:101F2C003B69D31A022B01D9032337E01D4B1B68E5
:101F3C0003F00073002BF0D02FE01C4B00221A6032
:101F4C00FFF70CFB386108E0FFF708FB02463B6922
:101F5C00D31A022B01D9032320E0124B1B6803F088
:101F6C000073002BF0D118E07B68DB69012B01D1E9
:101F7C00012313E00B4B5B68FB60FB6803F48032BE
:101F8C007B681B6A9A4206D1FB6803F470127B686B
:101F9C005B6A9A4201D0012300E0002318461837EF
:101FAC00BD4680BD001002400070004060004242FF
:101FBC0080B584B000AF786039607B68002B01D1AC
:101FCC000123D0E06A4B1B6803F007033A689A427E
:101FDC0010D9674B1B6823F0070265493B68134314
:101FEC000B60634B1B6803F007033A689A4201D0FD
:101FFC000123B8E07B681B6803F00203002B20D0A0
:10200C007B681B6803F00403002B05D0594B5B68FD
:10201C00584A43F4E06353607B681B6803F0080381
:10202C00002B05D0534B5B68524A43F4605353600A
:10203C00504B5B6823F0F0027B689B684D4913435F
:10204C004B607B681B6803F00103002B40D07B685E
:10205C005B68012B07D1474B1B6803F40033002B43
:10206C0015D101237FE07B685B68022B07D1414BC4
:10207C001B6803F00073002B09D1012373E03D4B67
:10208C001B6803F00203002B01D101236BE0394BD9
:10209C005B6823F003027B685B68364913434B6033
:1020AC00FFF75CFAF8600AE0FFF758FA0246FB68A3
:1020BC00D31A41F28832934201D9032353E02D4BBA
:1020CC005B6803F00C027B685B689B009A42EBD167
:1020DC00274B1B6803F007033A689A4210D2244B33
:1020EC001B6823F0070222493B6813430B60204B0B
:1020FC001B6803F007033A689A4201D0012332E0CF
:10210C007B681B6803F00403002B08D0194B5B6839
:10211C0023F4E0627B68DB68164913434B607B68F1
:10212C001B6803F00803002B09D0124B5B6823F4E7
:10213C0060527B681B69DB000E4913434B6000F057
:10214C0021F802460B4B5B681B0903F00F030A498D
:10215C00CB5C22FA03F3094A1360094B1B6818463F
:10216C00FFF7BAF9002318461037BD4680BD00BFF3
:10217C000020024000100240502C000810000020EB
:10218C003C00002080B487B000AF0023FB6000232C
:10219C00BB6000237B6100237B6000233B611E4BF3
:1021AC005B68FB60FB6803F00C03042B02D0082B6C
:1021BC0003D027E0194B3B6127E0FB689B0C03F035
:1021CC000F03174AD35C7B60FB6803F48033002B4E
:1021DC0010D0114B5B685B0C03F00103114AD35C0C
:1021EC00BB607B680D4A02FB03F2BB68B2FBF3F3E6
:1021FC007B6104E07B680C4A02FB03F37B617B6927
:10220C003B6102E0054B3B6100BF3B6918461C3744
:10221C00BD4680BC704700BF0010024000127A001F
:10222C00602C0008702C000800093D0080B485B0BB
:10223C0000AF78600A4B1B680A4AA2FB03235B0AB7
:10224C007A6802FB03F3FB6000BFFB685A1EFA605E
:10225C00002BF9D100BF00BF1437BD4680BC7047BE
:10226C0010000020D34D621080B582B000AF7860B2
:10227C007B68002B01D1012341E07B6893F83D3052
:10228C00DBB2002B06D17B68002283F83C207868F7
:10229C00FEF7D8FF7B68022283F83D207B681A6822
:1022AC007B6804331946104600F056FA7B6801220D
:1022BC0083F846207B68012283F83E207B6801224C
:1022CC0083F83F207B68012283F840207B68012241
:1022DC0083F841207B68012283F842207B6801222D
:1022EC0083F843207B68012283F844207B68012219
:1022FC0083F845207B68012283F83D200023184693
:10230C000837BD4680BD000080B485B000AF786052
:10231C007B6893F83D30DBB2012B01D0012335E013
:10232C007B68022283F83D207B681B68DA687B6837
:10233C001B6842F00102DA607B681B68164A934204
:10234C0009D07B681B68B3F1804F04D07B681B6895
:10235C00124A934211D17B681B689B6803F00703F8
:10236C00FB60FB68062B10D07B681B681A687B68C7
:10237C001B6842F001021A6007E07B681B681A6850
:10238C007B681B6842F001021A6000231846143760
:10239C00BD4680BC704700BF002C014000040040CB
:1023AC0080B584B000AF78607B681B68DB68FB602D
:1023BC007B681B681B69BB60BB6803F00203002BC6
:1023CC0020D0FB6803F00203002B1BD07B681B683A
:1023DC006FF002021A617B6801221A777B681B6816
:1023EC009B6903F00303002B03D0786800F098F985
:1023FC0005E0786800F08BF9786800F09AF97B6852
:10240C0000221A77BB6803F00403002B20D0FB6872
:10241C0003F00403002B1BD07B681B686FF00402D5
:10242C001A617B6802221A777B681B689B6903F42C
:10243C004073002B03D0786800F072F905E07868DF
:10244C0000F065F9786800F074F97B6800221A775F
:10245C00BB6803F00803002B20D0FB6803F00803D3
:10246C00002B1BD07B681B686FF008021A617B681D
:10247C0004221A777B681B68DB6903F00303002BCB
:10248C0003D0786800F04CF905E0786800F03FF96B
:10249C00786800F04EF97B6800221A77BB6803F06D
:1024AC001003002B20D0FB6803F01003002B1BD073
:1024BC007B681B686FF010021A617B6808221A7720
:1024CC007B681B68DB6903F44073002B03D07868CE
:1024DC0000F026F905E0786800F019F9786800F04A
:1024EC0028F97B6800221A77BB6803F00103002BE4
:1024FC000CD0FB6803F00103002B07D07B681B6832
:10250C006FF001021A617868FEF78CFCBB6803F06F
:10251C008003002B0CD0FB6803F08003002B07D04A
:10252C007B681B686FF080021A61786800F06FFAA4
:10253C00BB6803F04003002B0CD0FB6803F0400396
:10254C00002B07D07B681B686FF040021A6178681B
:10255C0000F0F8F8BB6803F02003002B0CD0FB68EC
:10256C0003F02003002B07D07B681B686FF0200260
:10257C001A61786800F042FA00BF1037BD4680BD82
:10258C0080B584B000AF786039600023FB737B6842
:10259C0093F83C30012B01D10223B4E07B6801227B
:1025AC0083F83C207B68022283F83D207B681B6803
:1025BC009B68BB60BB6823F07703BB60BB6823F4EC
:1025CC007F43BB607B681B68BA689A603B681B687A
:1025DC00B3F5005F3ED0B3F5005F00F28780B3F532
:1025EC00805F00F08680B3F5805F7FD8702B1AD0A7
:1025FC00702B7BD8602B50D0602B77D8502B3CD0D5
:10260C00502B73D8402B58D0402B6FD8302B64D024
:10261C00302B6BD8202B60D0202B67D8002B5CD0B4
:10262C00102B5AD062E07B6818683B6899683B684D
:10263C005A683B68DB6800F06AF97B681B689B682A
:10264C00BB60BB6843F07703BB607B681B68BA68F0
:10265C009A604FE07B6818683B6899683B685A68D9
:10266C003B68DB6800F053F97B681B689A687B68F1
:10267C001B6842F480429A603CE07B6818683B68B7
:10268C0059683B68DB681A4600F0CAF87B681B681F
:10269C005021184600F021F92CE07B6818683B6843
:1026AC0059683B68DB681A4600F0E8F87B681B68E1
:1026BC006021184600F011F91CE07B6818683B6833
:1026CC0059683B68DB681A4600F0AAF87B681B68FF
:1026DC004021184600F001F90CE07B681A683B6851
:1026EC001B681946104600F0F8F803E00123FB7351
:1026FC0000E000BF7B68012283F83D207B6800224C
:10270C0083F83C20FB7B18461037BD4680BD80B457
:10271C0083B000AF786000BF0C37BD4680BC7047FB
:10272C0080B483B000AF786000BF0C37BD4680BC6E
:10273C00704780B483B000AF786000BF0C37BD46E3
:10274C0080BC704780B483B000AF786000BF0C379A
:10275C00BD4680BC7047000080B485B000AF786087
:10276C0039607B681B68FB607B682B4A934207D0FF
:10277C007B68B3F1804F03D07B68284A934208D121
:10278C00FB6823F07003FB603B685B68FA681343DB
:10279C00FB607B68204A934207D07B68B3F1804F83
:1027AC0003D07B681D4A934208D1FB6823F4407325
:1027BC00FB603B68DB68FA681343FB60FB6823F043
:1027CC0080023B685B691343FB607B68FA681A60A4
:1027DC003B689A687B68DA623B681A687B689A6225
:1027EC007B680D4A934203D13B681A697B681A6374
:1027FC007B6801225A617B681B6903F00103002B83
:10280C0005D07B681B6923F001027B681A6100BF4D
:10281C001437BD4680BC7047002C014000040040BA
:10282C0080B487B000AFF860B9607A60FB681B6A4F
:10283C007B61FB681B6A23F00102FB681A62FB6870
:10284C009B693B613B6923F0F0033B617B681B0197
:10285C003A6913433B617B6923F00A037B617A6914
:10286C00BB6813437B61FB683A699A61FB687A69C0
:10287C001A6200BF1C37BD4680BC704780B487B05D
:10288C0000AFF860B9607A60FB681B6A7B61FB681B
:10289C001B6A23F01002FB681A62FB689B693B61A0
:1028AC003B6923F470433B617B681B033A69134318
:1028BC003B617B6923F0A0037B61BB681B017A69D8
:1028CC0013437B61FB683A699A61FB687A691A6207
:1028DC0000BF1C37BD4680BC704780B485B000AFCC
:1028EC00786039607B689B68FB60FB6823F0700341
:1028FC00FB603A68FB68134343F00703FB607B689B
:10290C00FA689A6000BF1437BD4680BC704780B42B
:10291C0087B000AFF860B9607A603B60FB689B6879
:10292C007B617B6923F47F437B613B681A027B6884
:10293C001A43BB6813437A6913437B61FB687A695A
:10294C009A6000BF1C37BD4680BC704780B485B010
:10295C0000AF786039607B6893F83C30012B01D173
:10296C00022341E07B68012283F83C207B68022231
:10297C0083F83D207B681B685B68FB607B681B6889
:10298C009B68BB60FB6823F07003FB603B681B68B3
:10299C00FA681343FB607B681B68FA685A607B68B3
:1029AC001B68144A934209D07B681B68B3F1804FB3
:1029BC0004D07B681B68104A93420CD1BB6823F08F
:1029CC008003BB603B685B68BA681343BB607B6881
:1029DC001B68BA689A607B68012283F83D207B688B
:1029EC00002283F83C20002318461437BD4680BCD7
:1029FC00704700BF002C01400004004080B483B03D
:102A0C0000AF786000BF0C37BD4680BC704780B407
:102A1C0083B000AF786000BF0C37BD4680BC7047F8
:102A2C00014B1868704700BF4400002070B50026A9
:102A3C000C4D0D4C641BA410A64209D100F0F6F805
:102A4C0000260A4D0A4C641BA410A64205D170BD89
:102A5C0055F8043B98470136EEE755F8043B984788
:102A6C000136F2E7742C0008742C0008742C000852
:102A7C00782C0008024B0146186800F05FB800BFC4
:102A8C0044000020024B0146186800F00BB800BF50
:102A9C004400002003460244934200D1704703F8DF
:102AAC00011BF9E738B50546002943D051F8043C21
:102ABC000C1F002BB8BFE41800F0AAF81E4A1368CC
:102ACC00104633B9636014602846BDE8384000F006
:102ADC00A5B8A3420AD921686218934201BF1A68AB
:102AEC005B685218226063600460EDE71A465B680D
:102AFC000BB1A342FAD911685018A0420BD120682F
:102B0C000144501883421160DED118685B6801449F
:102B1C0011605360D8E702D90C232B60D4E72068EE
:102B2C0021188B4201BF19685B680918216063602A
:102B3C005460C9E738BD00BFCC000020F8B5CD1CEF
:102B4C0025F0030508350C2D38BF0C25002D064645
:102B5C0001DBA94203D90C2333600020F8BD00F03F
:102B6C0057F821490A6814469CB9204F3B6823B991
:102B7C002146304600F03CF838602946304600F0DB
:102B8C0037F8431C23D10C233046336000F046F851
:102B9C00E3E723685B1B17D40B2B03D923601C447E
:102BAC00256004E06368A2420CBF0B6053603046A2
:102BBC0000F034F804F10B00231D20F00700C21ABA
:102BCC00CCD01B1AA350C9E722466468CCE7C41CBE
:102BDC0024F00304A042E3D0211A304600F008F898
:102BEC000130DDD1CFE700BFCC000020D0000020A9
:102BFC0038B50023054D044608462B60FEF778FBDC
:102C0C00431C02D12B6803B1236038BD6C02002039
:102C1C00014800F009B800BF74020020014800F020
:102C2C0004B800BF7402002070477047F8B500BFAD
:102C3C00F8BC08BC9E467047F8B500BFF8BC08BC91
:042C4C009E467047E9
:102C5000000000000000000001020304060708094C
:102C600002030405060708090A0B0C0D0E0F1010CD
:042C7000010200005D
:042C74003101000822
:042C78000D01000842
:102C7C00010000002C010000C8000000C80000008A
:102C8C0000127A00000000000000000000000000AC
:102C9C000000000000000000010000000100000026
:102CAC000100000000000000000000001000000007
:102CBC00010000004800002000000000000000009F
:102CCC0000000000000000000000000000000000F8
:102CDC0000000000000000000000000000000000E8
:102CEC0000000000000000000000000000000000D8
:102CFC0000000000000000000000000000000000C8
:102D0C0000000000000000000000000000000000B7
:082D1C000000000000000000AF
:040000050800146D6E
:00000001FF
